{
  "_format": "hh-sol-artifact-1",
  "contractName": "MockUSDC",
  "sourceName": "contracts/MockUSDC.sol",
  "abi": [
    {
      "inputs": [],
      "stateMutability": "nonpayable",
      "type": "constructor"
    },
    {
      "inputs": [
        {
          "internalType": "address",
          "name": "spender",
          "type": "address"
        },
        {
          "internalType": "uint256",
          "name": "allowance",
          "type": "uint256"
        },
        {
          "internalType": "uint256",
          "name": "needed",
          "type": "uint256"
        }
      ],
      "name": "ERC20InsufficientAllowance",
      "type": "error"
    },
    {
      "inputs": [
        {
          "internalType": "address",
          "name": "sender",
          "type": "address"
        },
        {
          "internalType": "uint256",
          "name": "balance",
          "type": "uint256"
        },
        {
          "internalType": "uint256",
          "name": "needed",
          "type": "uint256"
        }
      ],
      "name": "ERC20InsufficientBalance",
      "type": "error"
    },
    {
      "inputs": [
        {
          "internalType": "address",
          "name": "approver",
          "type": "address"
        }
      ],
      "name": "ERC20InvalidApprover",
      "type": "error"
    },
    {
      "inputs": [
        {
          "internalType": "address",
          "name": "receiver",
          "type": "address"
        }
      ],
      "name": "ERC20InvalidReceiver",
      "type": "error"
    },
    {
      "inputs": [
        {
          "internalType": "address",
          "name": "sender",
          "type": "address"
        }
      ],
      "name": "ERC20InvalidSender",
      "type": "error"
    },
    {
      "inputs": [
        {
          "internalType": "address",
          "name": "spender",
          "type": "address"
        }
      ],
      "name": "ERC20InvalidSpender",
      "type": "error"
    },
    {
      "anonymous": false,
      "inputs": [
        {
          "indexed": true,
          "internalType": "address",
          "name": "owner",
          "type": "address"
        },
        {
          "indexed": true,
          "internalType": "address",
          "name": "spender",
          "type": "address"
        },
        {
          "indexed": false,
          "internalType": "uint256",
          "name": "value",
          "type": "uint256"
        }
      ],
      "name": "Approval",
      "type": "event"
    },
    {
      "anonymous": false,
      "inputs": [
        {
          "indexed": true,
          "internalType": "address",
          "name": "from",
          "type": "address"
        },
        {
          "indexed": true,
          "internalType": "address",
          "name": "to",
          "type": "address"
        },
        {
          "indexed": false,
          "internalType": "uint256",
          "name": "value",
          "type": "uint256"
        }
      ],
      "name": "Transfer",
      "type": "event"
    },
    {
      "inputs": [],
      "name": "FAUCET_AMOUNT",
      "outputs": [
        {
          "internalType": "uint256",
          "name": "",
          "type": "uint256"
        }
      ],
      "stateMutability": "view",
      "type": "function"
    },
    {
      "inputs": [
        {
          "internalType": "address",
          "name": "owner",
          "type": "address"
        },
        {
          "internalType": "address",
          "name": "spender",
          "type": "address"
        }
      ],
      "name": "allowance",
      "outputs": [
        {
          "internalType": "uint256",
          "name": "",
          "type": "uint256"
        }
      ],
      "stateMutability": "view",
      "type": "function"
    },
    {
      "inputs": [
        {
          "internalType": "address",
          "name": "spender",
          "type": "address"
        },
        {
          "internalType": "uint256",
          "name": "value",
          "type": "uint256"
        }
      ],
      "name": "approve",
      "outputs": [
        {
          "internalType": "bool",
          "name": "",
          "type": "bool"
        }
      ],
      "stateMutability": "nonpayable",
      "type": "function"
    },
    {
      "inputs": [
        {
          "internalType": "address",
          "name": "account",
          "type": "address"
        }
      ],
      "name": "balanceOf",
      "outputs": [
        {
          "internalType": "uint256",
          "name": "",
          "type": "uint256"
        }
      ],
      "stateMutability": "view",
      "type": "function"
    },
    {
      "inputs": [],
      "name": "decimals",
      "outputs": [
        {
          "internalType": "uint8",
          "name": "",
          "type": "uint8"
        }
      ],
      "stateMutability": "pure",
      "type": "function"
    },
    {
      "inputs": [],
      "name": "faucet",
      "outputs": [],
      "stateMutability": "nonpayable",
      "type": "function"
    },
    {
      "inputs": [
        {
          "internalType": "address",
          "name": "to",
          "type": "address"
        },
        {
          "internalType": "uint256",
          "name": "amount",
          "type": "uint256"
        }
      ],
      "name": "mint",
      "outputs": [],
      "stateMutability": "nonpayable",
      "type": "function"
    },
    {
      "inputs": [],
      "name": "name",
      "outputs": [
        {
          "internalType": "string",
          "name": "",
          "type": "string"
        }
      ],
      "stateMutability": "view",
      "type": "function"
    },
    {
      "inputs": [],
      "name": "symbol",
      "outputs": [
        {
          "internalType": "string",
          "name": "",
          "type": "string"
        }
      ],
      "stateMutability": "view",
      "type": "function"
    },
    {
      "inputs": [],
      "name": "totalSupply",
      "outputs": [
        {
          "internalType": "uint256",
          "name": "",
          "type": "uint256"
        }
      ],
      "stateMutability": "view",
      "type": "function"
    },
    {
      "inputs": [
        {
          "internalType": "address",
          "name": "to",
          "type": "address"
        },
        {
          "internalType": "uint256",
          "name": "value",
          "type": "uint256"
        }
      ],
      "name": "transfer",
      "outputs": [
        {
          "internalType": "bool",
          "name": "",
          "type": "bool"
        }
      ],
      "stateMutability": "nonpayable",
      "type": "function"
    },
    {
      "inputs": [
        {
          "internalType": "address",
          "name": "from",
          "type": "address"
        },
        {
          "internalType": "address",
          "name": "to",
          "type": "address"
        },
        {
          "internalType": "uint256",
          "name": "value",
          "type": "uint256"
        }
      ],
      "name": "transferFrom",
      "outputs": [
        {
          "internalType": "bool",
          "name": "",
          "type": "bool"
        }
      ],
      "stateMutability": "nonpayable",
      "type": "function"
    }
  ],
  "bytecode": "0x6080346102f4576040906001600160401b0390808301828111828210176102e057835260088152602091672aa9a21021b7b4b760c11b83830152835192848401848110838211176102e0578552600493848152635553444360e01b828201528351908382116102cd576003928354926001968785811c951680156102c3575b838610146102b0578190601f95868111610262575b508390868311600114610204575f926101f9575b50505f1982871b1c191690871b1784555b81519485116101e65786548681811c911680156101dc575b828210146101c957838111610186575b508092851160011461012157509383949184925f95610116575b50501b925f19911b1c19161790555b516107cd90816102f98239f35b015193505f806100fa565b92919084601f198116885f52855f20955f905b8983831061016c5750505010610153575b50505050811b019055610109565b01519060f8845f19921b161c191690555f808080610145565b858701518955909701969485019488935090810190610134565b875f52815f208480880160051c8201928489106101c0575b0160051c019087905b8281106101b55750506100e0565b5f81550187906101a7565b9250819261019e565b602288634e487b7160e01b5f525260245ffd5b90607f16906100d0565b604187634e487b7160e01b5f525260245ffd5b015190505f806100a7565b90899350601f19831691885f52855f20925f5b8782821061024c5750508411610235575b505050811b0184556100b8565b01515f1983891b60f8161c191690555f8080610228565b8385015186558d97909501949384019301610217565b909150865f52835f208680850160051c8201928686106102a7575b918b91869594930160051c01915b828110610299575050610093565b5f81558594508b910161028b565b9250819261027d565b602289634e487b7160e01b5f525260245ffd5b94607f169461007e565b604186634e487b7160e01b5f525260245ffd5b634e487b7160e01b5f52604160045260245ffd5b5f80fdfe6080604081815260049182361015610015575f80fd5b5f3560e01c90816306fdde031461058d57508063095ea7b3146104e557806318160ddd146104c757806323b872dd146103d5578063313ce567146103ba57806340c10f191461032857806370a08231146102f257806376697640146102d357806395d89b41146101b4578063a9059cbb14610184578063dd62ed3e1461013b5763de5f72fd146100a3575f80fd5b34610137575f366003190112610137573315610121576002546402540be4009283820180921161010e5750600255335f525f602052805f20828154019055519081525f7fddf252ad1be2c89b69c2b068fc378daa952ba7f163c4a11628f55a4df523b3ef60203393a3005b601190634e487b7160e01b5f525260245ffd5b905f602492519163ec442f0560e01b8352820152fd5b5f80fd5b5034610137578060031936011261013757602090610157610691565b61015f6106a7565b9060018060a01b038091165f5260018452825f2091165f528252805f20549051908152f35b50346101375780600319360112610137576020906101ad6101a3610691565b60243590336106bd565b5160018152f35b5034610137575f366003190112610137578051905f835460018160011c90600183169283156102c9575b60209384841081146102b65783885290811561029a5750600114610246575b505050829003601f01601f191682019267ffffffffffffffff841183851017610233575082918261022f925282610667565b0390f35b604190634e487b7160e01b5f525260245ffd5b5f878152929350837f8a35acfbc15ff81a39ae7d344fd709f28e8600b4aa8c65c6b64bfe7fe36bd19b5b83851061028657505050508301015f80806101fd565b805488860183015293019284908201610270565b60ff1916878501525050151560051b84010190505f80806101fd565b602289634e487b7160e01b5f525260245ffd5b91607f16916101de565b5034610137575f36600319011261013757602090516402540be4008152f35b5034610137576020366003190112610137576020906001600160a01b03610317610691565b165f525f8252805f20549051908152f35b5034610137578060031936011261013757610341610691565b6001600160a01b031691602435919083156103a5576002549083820180921161010e57505f927fddf252ad1be2c89b69c2b068fc378daa952ba7f163c4a11628f55a4df523b3ef9260209260025585855284835280852082815401905551908152a3005b5f602492519163ec442f0560e01b8352820152fd5b5034610137575f366003190112610137576020905160068152f35b509034610137576060366003190112610137576103f0610691565b6103f86106a7565b906044359260018060a01b038216805f526001602052855f20335f52602052855f2054915f198310610433575b6020876101ad8888886106bd565b85831061049b57811561048557331561046f57505f908152600160209081528682203383528152908690209185900390915582906101ad610425565b6024905f885191634a1406b160e11b8352820152fd5b6024905f88519163e602df0560e01b8352820152fd5b8651637dc7a0d960e11b8152339181019182526020820193909352604081018690528291506060010390fd5b5034610137575f366003190112610137576020906002549051908152f35b50346101375780600319360112610137576104fe610691565b602435903315610577576001600160a01b03169081156105615760209350335f5260018452825f20825f52845280835f205582519081527f8c5be1e5ebec7d5bd14f71427d1e84f3dd0314c0f7b2291e5b200ac8c7c3b925843392a35160018152f35b8251634a1406b160e11b81525f81860152602490fd5b825163e602df0560e01b81525f81860152602490fd5b91905034610137575f366003190112610137575f60035460018160011c906001831692831561065d575b60209384841081146102b65783885290811561029a575060011461060757505050829003601f01601f191682019267ffffffffffffffff841183851017610233575082918261022f925282610667565b60035f908152929350837fc2575a0e9e593c00f959f8c92f12db2869c3395a3b0502d05e2516446f71f85b5b83851061064957505050508301015f80806101fd565b805488860183015293019284908201610633565b91607f16916105b7565b602060409281835280519182918282860152018484015e5f828201840152601f01601f1916010190565b600435906001600160a01b038216820361013757565b602435906001600160a01b038216820361013757565b916001600160a01b0380841692831561077f571692831561076757825f525f60205260405f2054908282106107355750817fddf252ad1be2c89b69c2b068fc378daa952ba7f163c4a11628f55a4df523b3ef92602092855f525f84520360405f2055845f5260405f20818154019055604051908152a3565b60405163391434e360e21b81526001600160a01b03919091166004820152602481019190915260448101829052606490fd5b60405163ec442f0560e01b81525f6004820152602490fd5b604051634b637e8f60e11b81525f6004820152602490fdfea26469706673582212208f9cc44141aee64743667e1c54cd52a0d06fccd907740fa802ba926b302fa60264736f6c63430008190033",
  "linkReferences": {},
  "deployedLinkReferences": {}
}