{"contracts/PlasmaPayroll.sol":{"PlasmaPayroll":{"abi":[{"inputs":[{"internalType":"contract IERC20","name":"_usdc","type":"address"}],"stateMutability":"nonpayable","type":"constructor"},{"inputs":[{"internalType":"address","name":"token","type":"address"}],"name":"SafeERC20FailedOperation","type":"error"},{"anonymous":false,"inputs":[{"indexed":true,"internalType":"uint256","name":"streamId","type":"uint256"},{"indexed":true,"internalType":"address","name":"worker","type":"address"},{"indexed":false,"internalType":"uint256","name":"amount","type":"uint256"},{"indexed":false,"internalType":"uint256","name":"intervalsCount","type":"uint256"}],"name":"PaymentClaimed","type":"event"},{"anonymous":false,"inputs":[{"indexed":true,"internalType":"uint256","name":"streamId","type":"uint256"},{"indexed":true,"internalType":"address","name":"employer","type":"address"},{"indexed":true,"internalType":"address","name":"worker","type":"address"},{"indexed":false,"internalType":"uint256","name":"usdcPerInterval","type":"uint256"},{"indexed":false,"internalType":"uint256","name":"claimInterval","type":"uint256"},{"indexed":false,"internalType":"uint256","name":"totalDeposit","type":"uint256"}],"name":"StreamCreated","type":"event"},{"anonymous":false,"inputs":[{"indexed":true,"internalType":"uint256","name":"streamId","type":"uint256"},{"indexed":false,"internalType":"uint256","name":"totalClaimed","type":"uint256"},{"indexed":false,"internalType":"uint256","name":"refunded","type":"uint256"}],"name":"StreamEnded","type":"event"},{"inputs":[{"internalType":"uint256","name":"_streamId","type":"uint256"}],"name":"claim","outputs":[],"stateMutability":"nonpayable","type":"function"},{"inputs":[{"internalType":"address","name":"_worker","type":"address"},{"internalType":"uint256","name":"_usdcPerInterval","type":"uint256"},{"internalType":"uint256","name":"_claimInterval","type":"uint256"},{"internalType":"uint256","name":"_totalDeposit","type":"uint256"}],"name":"createStream","outputs":[{"internalType":"uint256","name":"streamId","type":"uint256"}],"stateMutability":"nonpayable","type":"function"},{"inputs":[{"internalType":"uint256","name":"_streamId","type":"uint256"}],"name":"endStream","outputs":[],"stateMutability":"nonpayable","type":"function"},{"inputs":[{"internalType":"uint256","name":"_streamId","type":"uint256"}],"name":"getStream","outputs":[{"components":[{"internalType":"address","name":"employer","type":"address"},{"internalType":"address","name":"worker","type":"address"},{"internalType":"uint256","name":"usdcPerInterval","type":"uint256"},{"internalType":"uint256","name":"claimInterval","type":"uint256"},{"internalType":"uint256","name":"totalDeposit","type":"uint256"},{"internalType":"uint256","name":"totalClaimed","type":"uint256"},{"internalType":"uint256","name":"lastClaimTime","type":"uint256"},{"internalType":"uint256","name":"createdAt","type":"uint256"},{"internalType":"bool","name":"active","type":"bool"}],"internalType":"struct PlasmaPayroll.Stream","name":"","type":"tuple"}],"stateMutability":"view","type":"function"},{"inputs":[],"name":"nextStreamId","outputs":[{"internalType":"uint256","name":"","type":"uint256"}],"stateMutability":"view","type":"function"},{"inputs":[{"internalType":"uint256","name":"","type":"uint256"}],"name":"streams","outputs":[{"internalType":"address","name":"employer","type":"address"},{"internalType":"address","name":"worker","type":"address"},{"internalType":"uint256","name":"usdcPerInterval","type":"uint256"},{"internalType":"uint256","name":"claimInterval","type":"uint256"},{"internalType":"uint256","name":"totalDeposit","type":"uint256"},{"internalType":"uint256","name":"totalClaimed","type":"uint256"},{"internalType":"uint256","name":"lastClaimTime","type":"uint256"},{"internalType":"uint256","name":"createdAt","type":"uint256"},{"internalType":"bool","name":"active","type":"bool"}],"stateMutability":"view","type":"function"},{"inputs":[],"name":"usdc","outputs":[{"internalType":"contract IERC20","name":"","type":"address"}],"stateMutability":"view","type":"function"}],"evm":{"bytecode":{"linkReferences":{},"object":"60a034607b57601f610aaa38819003918201601f19168301916001600160401b03831184841017607f57808492602094604052833981010312607b57516001600160a01b0381168103607b57608052604051610a16908161009482396080518181816101010152818161056a015281816105df01526107290152f35b5f80fd5b634e487b7160e01b5f52604160045260245ffdfe608060409080825260049182361015610016575f80fd5b60e0915f35831c9081631e99d5691461085e57508063379607f51461060e5780633e413bee146105cb57806350d55afc146104ca57806364d60d911461043a578063894e9a0d1461031c57639755ecd01461006f575f80fd5b34610318576080366003190112610318576001600160a01b0392803584811691908290036103185760249384359160449182359160649384359487156102e95786156102b8578415610283578515610251578851916323b872dd60e01b6020840152338b84015230908301528581830152815260a0810181811067ffffffffffffffff82111761023f578852610125907f000000000000000000000000000000000000000000000000000000000000000061097b565b5f54975f19891461022d575060209888600193896008948684015f5581519461014d866108f8565b3386528e86018c81528387018c815260608801918b835260808901938d85528060a08b01975f895260c08c0199428b528c019a428c526101008d019e8f525f526020600190525f209a5116906bffffffffffffffffffffffff60a01b91828c5416178b5560018b01925116908254161790555160028801555160038701555190850155516005840155516006830155516007820155019051151560ff8019835416911617905584519283528683015283820152837f8d3a4d9a98c71920c13665fb97f1a612978391e661f9a17fa5390f60e7424d5c60603393a451908152f35b634e487b7160e01b5f90815260118352fd5b89604184634e487b7160e01b5f52525ffd5b885162461bcd60e51b81526020818501526011818c0152704d757374206465706f736974205553444360781b81840152fd5b885162461bcd60e51b81526020818501526014818c0152730496e74657276616c206d757374206265203e20360641b81840152fd5b885162461bcd60e51b81526020818501526010818c01526f052617465206d757374206265203e20360841b81840152fd5b885162461bcd60e51b8152602081850152600e818c01526d24b73b30b634b2103bb7b935b2b960911b81840152fd5b5f80fd5b509190346103185760203660031901126103185782610120935191610340836108f8565b5f83525f60208401525f828401525f60608401525f60808401525f60a08401525f60c08401525f818401525f6101008094015283355f526001602052815f2091805192839161038e836108f8565b60018060a01b038083541697888552816001850154169260208601938452600285015481870190815260038601549260608801938452860154936080880194855260058701549560a089019687528b60ff600860068b01549a60c08d019b8c528d60078201549d019c8d520154169b019a15158b5283519c8d52511660208c015251908a01525160608901525160808801525160a08701525160c0860152519084015251151590820152f35b508234610318576020366003190112610318576101209281355f526001602052825f209060018060a01b03938483541694600184015416936002840154906003850154908501549060058601549260068701549460ff600860078a0154990154169881519a8b5260208b01528901526060880152608087015260a086015260c08501528301521515610100820152f35b83823461031857602036600319011261031857813590815f526001602052805f2060018060a01b03815416908133036105955761054b60057faaf3ecb4577772367b3bf3e2b4fb8682f9444cc4ec121a6710f191c485ef6c3c959660088401805461053760ff8216610877565b60ff191690558301549201805490926108d8565b918280610564575b5050549082519182526020820152a2005b61058e917f0000000000000000000000000000000000000000000000000000000000000000610929565b8582610553565b825162461bcd60e51b8152602081870152601060248201526f2737ba103a34329032b6b83637bcb2b960811b6044820152606490fd5b5034610318575f36600319011261031857517f00000000000000000000000000000000000000000000000000000000000000006001600160a01b03168152602090f35b838234610318576020908160031936011261031857823590815f5260018352805f20600881019485549561064460ff8816610877565b6001830180546001600160a01b0392908316903382900361082a57600686019586549560038201549761067789896108b7565b42106107f25761068788426108d8565b89156107df578990049788156107a5576106a560028501548a6108e5565b996005848601549501938454908c6106bd83896108d8565b80911161079d575b508c156107685750927f323b476e3de85384ba6766fa4ddb4422f28bfd874fd0ea4d9b77fde0a6b9f75e9d9e9f9361074d9896936107168e9997948e61070e8c61071c966108b7565b8097556108e5565b906108b7565b9055101561075b575b50507f0000000000000000000000000000000000000000000000000000000000000000610929565b5416958351928352820152a3005b60ff191690558b80610725565b8f606492508e519162461bcd60e51b8352820152600f60248201526e14dd1c99585b4819195c1b195d1959608a1b6044820152fd5b9c505f6106c5565b8a5162461bcd60e51b81528084018e90526014602482015273139bc81a5b9d195c9d985b1cc8195b185c1cd95960621b6044820152606490fd5b601283634e487b7160e01b5f525260245ffd5b895162461bcd60e51b81528083018d90526012602482015271546f6f206561726c7920746f20636c61696d60701b6044820152606490fd5b865162461bcd60e51b81528086018a9052600e60248201526d2737ba103a3432903bb7b935b2b960911b6044820152606490fd5b34610318575f366003190112610318576020905f548152f35b1561087e57565b60405162461bcd60e51b815260206004820152601160248201527053747265616d206e6f742061637469766560781b6044820152606490fd5b919082018092116108c457565b634e487b7160e01b5f52601160045260245ffd5b919082039182116108c457565b818102929181159184041417156108c457565b610120810190811067ffffffffffffffff82111761091557604052565b634e487b7160e01b5f52604160045260245ffd5b60405163a9059cbb60e01b60208201526001600160a01b039092166024830152604480830193909352918152608081019167ffffffffffffffff831182841017610915576109799260405261097b565b565b905f602091828151910182855af1156109d5575f513d6109cc57506001600160a01b0381163b155b6109aa5750565b604051635274afe760e01b81526001600160a01b039091166004820152602490fd5b600114156109a3565b6040513d5f823e3d90fdfea26469706673582212208a8034b7dbfec01b447adc64655e7839f3cef8e1737eaca4620d934a055ed58764736f6c63430008190033","opcodes":"PUSH1 0xA0 CALLVALUE PUSH1 0x7B JUMPI PUSH1 0x1F PUSH2 0xAAA CODESIZE DUP2 SWAP1 SUB SWAP2 DUP3 ADD PUSH1 0x1F NOT AND DUP4 ADD SWAP2 PUSH1 0x1 PUSH1 0x1 PUSH1 0x40 SHL SUB DUP4 GT DUP5 DUP5 LT OR PUSH1 0x7F JUMPI DUP1 DUP5 SWAP3 PUSH1 0x20 SWAP5 PUSH1 0x40 MSTORE DUP4 CODECOPY DUP2 ADD SUB SLT PUSH1 0x7B JUMPI MLOAD PUSH1 0x1 PUSH1 0x1 PUSH1 0xA0 SHL SUB DUP2 AND DUP2 SUB PUSH1 0x7B JUMPI PUSH1 0x80 MSTORE PUSH1 0x40 MLOAD PUSH2 0xA16 SWAP1 DUP2 PUSH2 0x94 DUP3 CODECOPY PUSH1 0x80 MLOAD DUP2 DUP2 DUP2 PUSH2 0x101 ADD MSTORE DUP2 DUP2 PUSH2 0x56A ADD MSTORE DUP2 DUP2 PUSH2 0x5DF ADD MSTORE PUSH2 0x729 ADD MSTORE RETURN JUMPDEST PUSH0 DUP1 REVERT JUMPDEST PUSH4 0x4E487B71 PUSH1 0xE0 SHL PUSH0 MSTORE PUSH1 0x41 PUSH1 0x4 MSTORE PUSH1 0x24 PUSH0 REVERT INVALID PUSH1 0x80 PUSH1 0x40 SWAP1 DUP1 DUP3 MSTORE PUSH1 0x4 SWAP2 DUP3 CALLDATASIZE LT ISZERO PUSH2 0x16 JUMPI PUSH0 DUP1 REVERT JUMPDEST PUSH1 0xE0 SWAP2 PUSH0 CALLDATALOAD DUP4 SHR SWAP1 DUP2 PUSH4 0x1E99D569 EQ PUSH2 0x85E JUMPI POP DUP1 PUSH4 0x379607F5 EQ PUSH2 0x60E JUMPI DUP1 PUSH4 0x3E413BEE EQ PUSH2 0x5CB JUMPI DUP1 PUSH4 0x50D55AFC EQ PUSH2 0x4CA JUMPI DUP1 PUSH4 0x64D60D91 EQ PUSH2 0x43A JUMPI DUP1 PUSH4 0x894E9A0D EQ PUSH2 0x31C JUMPI PUSH4 0x9755ECD0 EQ PUSH2 0x6F JUMPI PUSH0 DUP1 REVERT JUMPDEST CALLVALUE PUSH2 0x318 JUMPI PUSH1 0x80 CALLDATASIZE PUSH1 0x3 NOT ADD SLT PUSH2 0x318 JUMPI PUSH1 0x1 PUSH1 0x1 PUSH1 0xA0 SHL SUB SWAP3 DUP1 CALLDATALOAD DUP5 DUP2 AND SWAP2 SWAP1 DUP3 SWAP1 SUB PUSH2 0x318 JUMPI PUSH1 0x24 SWAP4 DUP5 CALLDATALOAD SWAP2 PUSH1 0x44 SWAP2 DUP3 CALLDATALOAD SWAP2 PUSH1 0x64 SWAP4 DUP5 CALLDATALOAD SWAP5 DUP8 ISZERO PUSH2 0x2E9 JUMPI DUP7 ISZERO PUSH2 0x2B8 JUMPI DUP5 ISZERO PUSH2 0x283 JUMPI DUP6 ISZERO PUSH2 0x251 JUMPI DUP9 MLOAD SWAP2 PUSH4 0x23B872DD PUSH1 0xE0 SHL PUSH1 0x20 DUP5 ADD MSTORE CALLER DUP12 DUP5 ADD MSTORE ADDRESS SWAP1 DUP4 ADD MSTORE DUP6 DUP2 DUP4 ADD MSTORE DUP2 MSTORE PUSH1 0xA0 DUP2 ADD DUP2 DUP2 LT PUSH8 0xFFFFFFFFFFFFFFFF DUP3 GT OR PUSH2 0x23F JUMPI DUP9 MSTORE PUSH2 0x125 SWAP1 PUSH32 0x0 PUSH2 0x97B JUMP JUMPDEST PUSH0 SLOAD SWAP8 PUSH0 NOT DUP10 EQ PUSH2 0x22D JUMPI POP PUSH1 0x20 SWAP9 DUP9 PUSH1 0x1 SWAP4 DUP10 PUSH1 0x8 SWAP5 DUP7 DUP5 ADD PUSH0 SSTORE DUP2 MLOAD SWAP5 PUSH2 0x14D DUP7 PUSH2 0x8F8 JUMP JUMPDEST CALLER DUP7 MSTORE DUP15 DUP7 ADD DUP13 DUP2 MSTORE DUP4 DUP8 ADD DUP13 DUP2 MSTORE PUSH1 0x60 DUP9 ADD SWAP2 DUP12 DUP4 MSTORE PUSH1 0x80 DUP10 ADD SWAP4 DUP14 DUP6 MSTORE DUP1 PUSH1 0xA0 DUP12 ADD SWAP8 PUSH0 DUP10 MSTORE PUSH1 0xC0 DUP13 ADD SWAP10 TIMESTAMP DUP12 MSTORE DUP13 ADD SWAP11 TIMESTAMP DUP13 MSTORE PUSH2 0x100 DUP14 ADD SWAP15 DUP16 MSTORE PUSH0 MSTORE PUSH1 0x20 PUSH1 0x1 SWAP1 MSTORE PUSH0 KECCAK256 SWAP11 MLOAD AND SWAP1 PUSH12 0xFFFFFFFFFFFFFFFFFFFFFFFF PUSH1 0xA0 SHL SWAP2 DUP3 DUP13 SLOAD AND OR DUP12 SSTORE PUSH1 0x1 DUP12 ADD SWAP3 MLOAD AND SWAP1 DUP3 SLOAD AND OR SWAP1 SSTORE MLOAD PUSH1 0x2 DUP9 ADD SSTORE MLOAD PUSH1 0x3 DUP8 ADD SSTORE MLOAD SWAP1 DUP6 ADD SSTORE MLOAD PUSH1 0x5 DUP5 ADD SSTORE MLOAD PUSH1 0x6 DUP4 ADD SSTORE MLOAD PUSH1 0x7 DUP3 ADD SSTORE ADD SWAP1 MLOAD ISZERO ISZERO PUSH1 0xFF DUP1 NOT DUP4 SLOAD AND SWAP2 AND OR SWAP1 SSTORE DUP5 MLOAD SWAP3 DUP4 MSTORE DUP7 DUP4 ADD MSTORE DUP4 DUP3 ADD MSTORE DUP4 PUSH32 0x8D3A4D9A98C71920C13665FB97F1A612978391E661F9A17FA5390F60E7424D5C PUSH1 0x60 CALLER SWAP4 LOG4 MLOAD SWAP1 DUP2 MSTORE RETURN JUMPDEST PUSH4 0x4E487B71 PUSH1 0xE0 SHL PUSH0 SWAP1 DUP2 MSTORE PUSH1 0x11 DUP4 MSTORE REVERT JUMPDEST DUP10 PUSH1 0x41 DUP5 PUSH4 0x4E487B71 PUSH1 0xE0 SHL PUSH0 MSTORE MSTORE PUSH0 REVERT JUMPDEST DUP9 MLOAD PUSH3 0x461BCD PUSH1 0xE5 SHL DUP2 MSTORE PUSH1 0x20 DUP2 DUP6 ADD MSTORE PUSH1 0x11 DUP2 DUP13 ADD MSTORE PUSH17 0x4D757374206465706F7369742055534443 PUSH1 0x78 SHL DUP2 DUP5 ADD MSTORE REVERT JUMPDEST DUP9 MLOAD PUSH3 0x461BCD PUSH1 0xE5 SHL DUP2 MSTORE PUSH1 0x20 DUP2 DUP6 ADD MSTORE PUSH1 0x14 DUP2 DUP13 ADD MSTORE PUSH20 0x496E74657276616C206D757374206265203E203 PUSH1 0x64 SHL DUP2 DUP5 ADD MSTORE REVERT JUMPDEST DUP9 MLOAD PUSH3 0x461BCD PUSH1 0xE5 SHL DUP2 MSTORE PUSH1 0x20 DUP2 DUP6 ADD MSTORE PUSH1 0x10 DUP2 DUP13 ADD MSTORE PUSH16 0x52617465206D757374206265203E203 PUSH1 0x84 SHL DUP2 DUP5 ADD MSTORE REVERT JUMPDEST DUP9 MLOAD PUSH3 0x461BCD PUSH1 0xE5 SHL DUP2 MSTORE PUSH1 0x20 DUP2 DUP6 ADD MSTORE PUSH1 0xE DUP2 DUP13 ADD MSTORE PUSH14 0x24B73B30B634B2103BB7B935B2B9 PUSH1 0x91 SHL DUP2 DUP5 ADD MSTORE REVERT JUMPDEST PUSH0 DUP1 REVERT JUMPDEST POP SWAP2 SWAP1 CALLVALUE PUSH2 0x318 JUMPI PUSH1 0x20 CALLDATASIZE PUSH1 0x3 NOT ADD SLT PUSH2 0x318 JUMPI DUP3 PUSH2 0x120 SWAP4 MLOAD SWAP2 PUSH2 0x340 DUP4 PUSH2 0x8F8 JUMP JUMPDEST PUSH0 DUP4 MSTORE PUSH0 PUSH1 0x20 DUP5 ADD MSTORE PUSH0 DUP3 DUP5 ADD MSTORE PUSH0 PUSH1 0x60 DUP5 ADD MSTORE PUSH0 PUSH1 0x80 DUP5 ADD MSTORE PUSH0 PUSH1 0xA0 DUP5 ADD MSTORE PUSH0 PUSH1 0xC0 DUP5 ADD MSTORE PUSH0 DUP2 DUP5 ADD MSTORE PUSH0 PUSH2 0x100 DUP1 SWAP5 ADD MSTORE DUP4 CALLDATALOAD PUSH0 MSTORE PUSH1 0x1 PUSH1 0x20 MSTORE DUP2 PUSH0 KECCAK256 SWAP2 DUP1 MLOAD SWAP3 DUP4 SWAP2 PUSH2 0x38E DUP4 PUSH2 0x8F8 JUMP JUMPDEST PUSH1 0x1 DUP1 PUSH1 0xA0 SHL SUB DUP1 DUP4 SLOAD AND SWAP8 DUP9 DUP6 MSTORE DUP2 PUSH1 0x1 DUP6 ADD SLOAD AND SWAP3 PUSH1 0x20 DUP7 ADD SWAP4 DUP5 MSTORE PUSH1 0x2 DUP6 ADD SLOAD DUP2 DUP8 ADD SWAP1 DUP2 MSTORE PUSH1 0x3 DUP7 ADD SLOAD SWAP3 PUSH1 0x60 DUP9 ADD SWAP4 DUP5 MSTORE DUP7 ADD SLOAD SWAP4 PUSH1 0x80 DUP9 ADD SWAP5 DUP6 MSTORE PUSH1 0x5 DUP8 ADD SLOAD SWAP6 PUSH1 0xA0 DUP10 ADD SWAP7 DUP8 MSTORE DUP12 PUSH1 0xFF PUSH1 0x8 PUSH1 0x6 DUP12 ADD SLOAD SWAP11 PUSH1 0xC0 DUP14 ADD SWAP12 DUP13 MSTORE DUP14 PUSH1 0x7 DUP3 ADD SLOAD SWAP14 ADD SWAP13 DUP14 MSTORE ADD SLOAD AND SWAP12 ADD SWAP11 ISZERO ISZERO DUP12 MSTORE DUP4 MLOAD SWAP13 DUP14 MSTORE MLOAD AND PUSH1 0x20 DUP13 ADD MSTORE MLOAD SWAP1 DUP11 ADD MSTORE MLOAD PUSH1 0x60 DUP10 ADD MSTORE MLOAD PUSH1 0x80 DUP9 ADD MSTORE MLOAD PUSH1 0xA0 DUP8 ADD MSTORE MLOAD PUSH1 0xC0 DUP7 ADD MSTORE MLOAD SWAP1 DUP5 ADD MSTORE MLOAD ISZERO ISZERO SWAP1 DUP3 ADD MSTORE RETURN JUMPDEST POP DUP3 CALLVALUE PUSH2 0x318 JUMPI PUSH1 0x20 CALLDATASIZE PUSH1 0x3 NOT ADD SLT PUSH2 0x318 JUMPI PUSH2 0x120 SWAP3 DUP2 CALLDATALOAD PUSH0 MSTORE PUSH1 0x1 PUSH1 0x20 MSTORE DUP3 PUSH0 KECCAK256 SWAP1 PUSH1 0x1 DUP1 PUSH1 0xA0 SHL SUB SWAP4 DUP5 DUP4 SLOAD AND SWAP5 PUSH1 0x1 DUP5 ADD SLOAD AND SWAP4 PUSH1 0x2 DUP5 ADD SLOAD SWAP1 PUSH1 0x3 DUP6 ADD SLOAD SWAP1 DUP6 ADD SLOAD SWAP1 PUSH1 0x5 DUP7 ADD SLOAD SWAP3 PUSH1 0x6 DUP8 ADD SLOAD SWAP5 PUSH1 0xFF PUSH1 0x8 PUSH1 0x7 DUP11 ADD SLOAD SWAP10 ADD SLOAD AND SWAP9 DUP2 MLOAD SWAP11 DUP12 MSTORE PUSH1 0x20 DUP12 ADD MSTORE DUP10 ADD MSTORE PUSH1 0x60 DUP9 ADD MSTORE PUSH1 0x80 DUP8 ADD MSTORE PUSH1 0xA0 DUP7 ADD MSTORE PUSH1 0xC0 DUP6 ADD MSTORE DUP4 ADD MSTORE ISZERO ISZERO PUSH2 0x100 DUP3 ADD MSTORE RETURN JUMPDEST DUP4 DUP3 CALLVALUE PUSH2 0x318 JUMPI PUSH1 0x20 CALLDATASIZE PUSH1 0x3 NOT ADD SLT PUSH2 0x318 JUMPI DUP2 CALLDATALOAD SWAP1 DUP2 PUSH0 MSTORE PUSH1 0x1 PUSH1 0x20 MSTORE DUP1 PUSH0 KECCAK256 PUSH1 0x1 DUP1 PUSH1 0xA0 SHL SUB DUP2 SLOAD AND SWAP1 DUP2 CALLER SUB PUSH2 0x595 JUMPI PUSH2 0x54B PUSH1 0x5 PUSH32 0xAAF3ECB4577772367B3BF3E2B4FB8682F9444CC4EC121A6710F191C485EF6C3C SWAP6 SWAP7 PUSH1 0x8 DUP5 ADD DUP1 SLOAD PUSH2 0x537 PUSH1 0xFF DUP3 AND PUSH2 0x877 JUMP JUMPDEST PUSH1 0xFF NOT AND SWAP1 SSTORE DUP4 ADD SLOAD SWAP3 ADD DUP1 SLOAD SWAP1 SWAP3 PUSH2 0x8D8 JUMP JUMPDEST SWAP2 DUP3 DUP1 PUSH2 0x564 JUMPI JUMPDEST POP POP SLOAD SWAP1 DUP3 MLOAD SWAP2 DUP3 MSTORE PUSH1 0x20 DUP3 ADD MSTORE LOG2 STOP JUMPDEST PUSH2 0x58E SWAP2 PUSH32 0x0 PUSH2 0x929 JUMP JUMPDEST DUP6 DUP3 PUSH2 0x553 JUMP JUMPDEST DUP3 MLOAD PUSH3 0x461BCD PUSH1 0xE5 SHL DUP2 MSTORE PUSH1 0x20 DUP2 DUP8 ADD MSTORE PUSH1 0x10 PUSH1 0x24 DUP3 ADD MSTORE PUSH16 0x2737BA103A34329032B6B83637BCB2B9 PUSH1 0x81 SHL PUSH1 0x44 DUP3 ADD MSTORE PUSH1 0x64 SWAP1 REVERT JUMPDEST POP CALLVALUE PUSH2 0x318 JUMPI PUSH0 CALLDATASIZE PUSH1 0x3 NOT ADD SLT PUSH2 0x318 JUMPI MLOAD PUSH32 0x0 PUSH1 0x1 PUSH1 0x1 PUSH1 0xA0 SHL SUB AND DUP2 MSTORE PUSH1 0x20 SWAP1 RETURN JUMPDEST DUP4 DUP3 CALLVALUE PUSH2 0x318 JUMPI PUSH1 0x20 SWAP1 DUP2 PUSH1 0x3 NOT CALLDATASIZE ADD SLT PUSH2 0x318 JUMPI DUP3 CALLDATALOAD SWAP1 DUP2 PUSH0 MSTORE PUSH1 0x1 DUP4 MSTORE DUP1 PUSH0 KECCAK256 PUSH1 0x8 DUP2 ADD SWAP5 DUP6 SLOAD SWAP6 PUSH2 0x644 PUSH1 0xFF DUP9 AND PUSH2 0x877 JUMP JUMPDEST PUSH1 0x1 DUP4 ADD DUP1 SLOAD PUSH1 0x1 PUSH1 0x1 PUSH1 0xA0 SHL SUB SWAP3 SWAP1 DUP4 AND SWAP1 CALLER DUP3 SWAP1 SUB PUSH2 0x82A JUMPI PUSH1 0x6 DUP7 ADD SWAP6 DUP7 SLOAD SWAP6 PUSH1 0x3 DUP3 ADD SLOAD SWAP8 PUSH2 0x677 DUP10 DUP10 PUSH2 0x8B7 JUMP JUMPDEST TIMESTAMP LT PUSH2 0x7F2 JUMPI PUSH2 0x687 DUP9 TIMESTAMP PUSH2 0x8D8 JUMP JUMPDEST DUP10 ISZERO PUSH2 0x7DF JUMPI DUP10 SWAP1 DIV SWAP8 DUP9 ISZERO PUSH2 0x7A5 JUMPI PUSH2 0x6A5 PUSH1 0x2 DUP6 ADD SLOAD DUP11 PUSH2 0x8E5 JUMP JUMPDEST SWAP10 PUSH1 0x5 DUP5 DUP7 ADD SLOAD SWAP6 ADD SWAP4 DUP5 SLOAD SWAP1 DUP13 PUSH2 0x6BD DUP4 DUP10 PUSH2 0x8D8 JUMP JUMPDEST DUP1 SWAP2 GT PUSH2 0x79D JUMPI JUMPDEST POP DUP13 ISZERO PUSH2 0x768 JUMPI POP SWAP3 PUSH32 0x323B476E3DE85384BA6766FA4DDB4422F28BFD874FD0EA4D9B77FDE0A6B9F75E SWAP14 SWAP15 SWAP16 SWAP4 PUSH2 0x74D SWAP9 SWAP7 SWAP4 PUSH2 0x716 DUP15 SWAP10 SWAP8 SWAP5 DUP15 PUSH2 0x70E DUP13 PUSH2 0x71C SWAP7 PUSH2 0x8B7 JUMP JUMPDEST DUP1 SWAP8 SSTORE PUSH2 0x8E5 JUMP JUMPDEST SWAP1 PUSH2 0x8B7 JUMP JUMPDEST SWAP1 SSTORE LT ISZERO PUSH2 0x75B JUMPI JUMPDEST POP POP PUSH32 0x0 PUSH2 0x929 JUMP JUMPDEST SLOAD AND SWAP6 DUP4 MLOAD SWAP3 DUP4 MSTORE DUP3 ADD MSTORE LOG3 STOP JUMPDEST PUSH1 0xFF NOT AND SWAP1 SSTORE DUP12 DUP1 PUSH2 0x725 JUMP JUMPDEST DUP16 PUSH1 0x64 SWAP3 POP DUP15 MLOAD SWAP2 PUSH3 0x461BCD PUSH1 0xE5 SHL DUP4 MSTORE DUP3 ADD MSTORE PUSH1 0xF PUSH1 0x24 DUP3 ADD MSTORE PUSH15 0x14DD1C99585B4819195C1B195D1959 PUSH1 0x8A SHL PUSH1 0x44 DUP3 ADD MSTORE REVERT JUMPDEST SWAP13 POP PUSH0 PUSH2 0x6C5 JUMP JUMPDEST DUP11 MLOAD PUSH3 0x461BCD PUSH1 0xE5 SHL DUP2 MSTORE DUP1 DUP5 ADD DUP15 SWAP1 MSTORE PUSH1 0x14 PUSH1 0x24 DUP3 ADD MSTORE PUSH20 0x139BC81A5B9D195C9D985B1CC8195B185C1CD959 PUSH1 0x62 SHL PUSH1 0x44 DUP3 ADD MSTORE PUSH1 0x64 SWAP1 REVERT JUMPDEST PUSH1 0x12 DUP4 PUSH4 0x4E487B71 PUSH1 0xE0 SHL PUSH0 MSTORE MSTORE PUSH1 0x24 PUSH0 REVERT JUMPDEST DUP10 MLOAD PUSH3 0x461BCD PUSH1 0xE5 SHL DUP2 MSTORE DUP1 DUP4 ADD DUP14 SWAP1 MSTORE PUSH1 0x12 PUSH1 0x24 DUP3 ADD MSTORE PUSH18 0x546F6F206561726C7920746F20636C61696D PUSH1 0x70 SHL PUSH1 0x44 DUP3 ADD MSTORE PUSH1 0x64 SWAP1 REVERT JUMPDEST DUP7 MLOAD PUSH3 0x461BCD PUSH1 0xE5 SHL DUP2 MSTORE DUP1 DUP7 ADD DUP11 SWAP1 MSTORE PUSH1 0xE PUSH1 0x24 DUP3 ADD MSTORE PUSH14 0x2737BA103A3432903BB7B935B2B9 PUSH1 0x91 SHL PUSH1 0x44 DUP3 ADD MSTORE PUSH1 0x64 SWAP1 REVERT JUMPDEST CALLVALUE PUSH2 0x318 JUMPI PUSH0 CALLDATASIZE PUSH1 0x3 NOT ADD SLT PUSH2 0x318 JUMPI PUSH1 0x20 SWAP1 PUSH0 SLOAD DUP2 MSTORE RETURN JUMPDEST ISZERO PUSH2 0x87E JUMPI JUMP JUMPDEST PUSH1 0x40 MLOAD PUSH3 0x461BCD PUSH1 0xE5 SHL DUP2 MSTORE PUSH1 0x20 PUSH1 0x4 DUP3 ADD MSTORE PUSH1 0x11 PUSH1 0x24 DUP3 ADD MSTORE PUSH17 0x53747265616D206E6F7420616374697665 PUSH1 0x78 SHL PUSH1 0x44 DUP3 ADD MSTORE PUSH1 0x64 SWAP1 REVERT JUMPDEST SWAP2 SWAP1 DUP3 ADD DUP1 SWAP3 GT PUSH2 0x8C4 JUMPI JUMP JUMPDEST PUSH4 0x4E487B71 PUSH1 0xE0 SHL PUSH0 MSTORE PUSH1 0x11 PUSH1 0x4 MSTORE PUSH1 0x24 PUSH0 REVERT JUMPDEST SWAP2 SWAP1 DUP3 SUB SWAP2 DUP3 GT PUSH2 0x8C4 JUMPI JUMP JUMPDEST DUP2 DUP2 MUL SWAP3 SWAP2 DUP2 ISZERO SWAP2 DUP5 DIV EQ OR ISZERO PUSH2 0x8C4 JUMPI JUMP JUMPDEST PUSH2 0x120 DUP2 ADD SWAP1 DUP2 LT PUSH8 0xFFFFFFFFFFFFFFFF DUP3 GT OR PUSH2 0x915 JUMPI PUSH1 0x40 MSTORE JUMP JUMPDEST PUSH4 0x4E487B71 PUSH1 0xE0 SHL PUSH0 MSTORE PUSH1 0x41 PUSH1 0x4 MSTORE PUSH1 0x24 PUSH0 REVERT JUMPDEST PUSH1 0x40 MLOAD PUSH4 0xA9059CBB PUSH1 0xE0 SHL PUSH1 0x20 DUP3 ADD MSTORE PUSH1 0x1 PUSH1 0x1 PUSH1 0xA0 SHL SUB SWAP1 SWAP3 AND PUSH1 0x24 DUP4 ADD MSTORE PUSH1 0x44 DUP1 DUP4 ADD SWAP4 SWAP1 SWAP4 MSTORE SWAP2 DUP2 MSTORE PUSH1 0x80 DUP2 ADD SWAP2 PUSH8 0xFFFFFFFFFFFFFFFF DUP4 GT DUP3 DUP5 LT OR PUSH2 0x915 JUMPI PUSH2 0x979 SWAP3 PUSH1 0x40 MSTORE PUSH2 0x97B JUMP JUMPDEST JUMP JUMPDEST SWAP1 PUSH0 PUSH1 0x20 SWAP2 DUP3 DUP2 MLOAD SWAP2 ADD DUP3 DUP6 GAS CALL ISZERO PUSH2 0x9D5 JUMPI PUSH0 MLOAD RETURNDATASIZE PUSH2 0x9CC JUMPI POP PUSH1 0x1 PUSH1 0x1 PUSH1 0xA0 SHL SUB DUP2 AND EXTCODESIZE ISZERO JUMPDEST PUSH2 0x9AA JUMPI POP JUMP JUMPDEST PUSH1 0x40 MLOAD PUSH4 0x5274AFE7 PUSH1 0xE0 SHL DUP2 MSTORE PUSH1 0x1 PUSH1 0x1 PUSH1 0xA0 SHL SUB SWAP1 SWAP2 AND PUSH1 0x4 DUP3 ADD MSTORE PUSH1 0x24 SWAP1 REVERT JUMPDEST PUSH1 0x1 EQ ISZERO PUSH2 0x9A3 JUMP JUMPDEST PUSH1 0x40 MLOAD RETURNDATASIZE PUSH0 DUP3 RETURNDATACOPY RETURNDATASIZE SWAP1 REVERT INVALID LOG2 PUSH5 0x6970667358 0x22 SLT KECCAK256 DUP11 DUP1 CALLVALUE 0xB7 0xDB INVALID 0xC0 SHL PREVRANDAO PUSH27 0xDC64655E7839F3CEF8E1737EACA4620D934A055ED58764736F6C63 NUMBER STOP ADDMOD NOT STOP CALLER "},"methodIdentifiers":{"claim(uint256)":"379607f5","createStream(address,uint256,uint256,uint256)":"9755ecd0","endStream(uint256)":"50d55afc","getStream(uint256)":"894e9a0d","nextStreamId()":"1e99d569","streams(uint256)":"64d60d91","usdc()":"3e413bee"}}}}}