{"contracts/InstantPayroll.sol":{"InstantPayroll":{"abi":[{"anonymous":false,"inputs":[{"indexed":true,"internalType":"uint256","name":"streamId","type":"uint256"},{"indexed":true,"internalType":"address","name":"worker","type":"address"},{"indexed":false,"internalType":"uint256","name":"amountFLR","type":"uint256"},{"indexed":false,"internalType":"uint256","name":"amountUSD","type":"uint256"},{"indexed":false,"internalType":"uint256","name":"flrUsdPrice","type":"uint256"},{"indexed":false,"internalType":"bool","name":"bonusTriggered","type":"bool"},{"indexed":false,"internalType":"uint256","name":"commitCount","type":"uint256"}],"name":"PaymentClaimed","type":"event"},{"anonymous":false,"inputs":[{"indexed":true,"internalType":"uint256","name":"streamId","type":"uint256"},{"indexed":true,"internalType":"address","name":"employer","type":"address"},{"indexed":true,"internalType":"address","name":"worker","type":"address"},{"indexed":false,"internalType":"uint256","name":"usdRatePerInterval","type":"uint256"},{"indexed":false,"internalType":"uint256","name":"claimInterval","type":"uint256"},{"indexed":false,"internalType":"uint256","name":"totalDeposit","type":"uint256"}],"name":"StreamCreated","type":"event"},{"anonymous":false,"inputs":[{"indexed":true,"internalType":"uint256","name":"streamId","type":"uint256"},{"indexed":false,"internalType":"uint256","name":"totalClaimed","type":"uint256"},{"indexed":false,"internalType":"uint256","name":"refunded","type":"uint256"}],"name":"StreamEnded","type":"event"},{"inputs":[],"name":"BONUS_DIVISOR","outputs":[{"internalType":"uint256","name":"","type":"uint256"}],"stateMutability":"view","type":"function"},{"inputs":[],"name":"BONUS_MULTIPLIER","outputs":[{"internalType":"uint256","name":"","type":"uint256"}],"stateMutability":"view","type":"function"},{"inputs":[],"name":"FLR_USD_FEED_ID","outputs":[{"internalType":"bytes21","name":"","type":"bytes21"}],"stateMutability":"view","type":"function"},{"inputs":[],"name":"checkBonusStatus","outputs":[{"internalType":"uint256","name":"randomNumber","type":"uint256"},{"internalType":"bool","name":"isSecure","type":"bool"},{"internalType":"bool","name":"wouldTrigger","type":"bool"}],"stateMutability":"view","type":"function"},{"inputs":[{"internalType":"uint256","name":"_streamId","type":"uint256"},{"components":[{"internalType":"bytes32[]","name":"merkleProof","type":"bytes32[]"},{"components":[{"internalType":"bytes32","name":"attestationType","type":"bytes32"},{"internalType":"bytes32","name":"sourceId","type":"bytes32"},{"internalType":"uint64","name":"votingRound","type":"uint64"},{"internalType":"uint64","name":"lowestUsedTimestamp","type":"uint64"},{"components":[{"internalType":"string","name":"url","type":"string"},{"internalType":"string","name":"httpMethod","type":"string"},{"internalType":"string","name":"headers","type":"string"},{"internalType":"string","name":"queryParams","type":"string"},{"internalType":"string","name":"body","type":"string"},{"internalType":"string","name":"postProcessJq","type":"string"},{"internalType":"string","name":"abiSignature","type":"string"}],"internalType":"struct IWeb2Json.RequestBody","name":"requestBody","type":"tuple"},{"components":[{"internalType":"bytes","name":"abiEncodedData","type":"bytes"}],"internalType":"struct IWeb2Json.ResponseBody","name":"responseBody","type":"tuple"}],"internalType":"struct IWeb2Json.Response","name":"data","type":"tuple"}],"internalType":"struct IWeb2Json.Proof","name":"_proof","type":"tuple"}],"name":"claim","outputs":[],"stateMutability":"nonpayable","type":"function"},{"inputs":[{"internalType":"uint256","name":"_streamId","type":"uint256"},{"internalType":"uint256","name":"_commitCount","type":"uint256"}],"name":"claimDemo","outputs":[],"stateMutability":"nonpayable","type":"function"},{"inputs":[{"internalType":"address","name":"_worker","type":"address"},{"internalType":"uint256","name":"_usdRatePerInterval","type":"uint256"},{"internalType":"uint256","name":"_claimInterval","type":"uint256"}],"name":"createStream","outputs":[{"internalType":"uint256","name":"streamId","type":"uint256"}],"stateMutability":"payable","type":"function"},{"inputs":[{"internalType":"uint256","name":"_streamId","type":"uint256"}],"name":"endStream","outputs":[],"stateMutability":"nonpayable","type":"function"},{"inputs":[],"name":"getCurrentPrice","outputs":[{"internalType":"uint256","name":"price","type":"uint256"},{"internalType":"int8","name":"decimals","type":"int8"},{"internalType":"uint64","name":"timestamp","type":"uint64"}],"stateMutability":"view","type":"function"},{"inputs":[{"internalType":"uint256","name":"_streamId","type":"uint256"}],"name":"getStream","outputs":[{"components":[{"internalType":"address","name":"employer","type":"address"},{"internalType":"address","name":"worker","type":"address"},{"internalType":"uint256","name":"usdRatePerInterval","type":"uint256"},{"internalType":"uint256","name":"claimInterval","type":"uint256"},{"internalType":"uint256","name":"totalDeposit","type":"uint256"},{"internalType":"uint256","name":"totalClaimed","type":"uint256"},{"internalType":"uint256","name":"lastClaimTime","type":"uint256"},{"internalType":"uint256","name":"createdAt","type":"uint256"},{"internalType":"bool","name":"active","type":"bool"}],"internalType":"struct InstantPayroll.Stream","name":"","type":"tuple"}],"stateMutability":"view","type":"function"},{"inputs":[],"name":"nextStreamId","outputs":[{"internalType":"uint256","name":"","type":"uint256"}],"stateMutability":"view","type":"function"},{"inputs":[{"internalType":"uint256","name":"","type":"uint256"}],"name":"streams","outputs":[{"internalType":"address","name":"employer","type":"address"},{"internalType":"address","name":"worker","type":"address"},{"internalType":"uint256","name":"usdRatePerInterval","type":"uint256"},{"internalType":"uint256","name":"claimInterval","type":"uint256"},{"internalType":"uint256","name":"totalDeposit","type":"uint256"},{"internalType":"uint256","name":"totalClaimed","type":"uint256"},{"internalType":"uint256","name":"lastClaimTime","type":"uint256"},{"internalType":"uint256","name":"createdAt","type":"uint256"},{"internalType":"bool","name":"active","type":"bool"}],"stateMutability":"view","type":"function"}],"evm":{"bytecode":{"linkReferences":{},"object":"608080604052346015576115e1908161001a8239f35b5f80fdfe6080806040526004361015610012575f80fd5b5f3560e01c9081631e99d5691461118f57508063224a64c5146111745780634f489587146110df57806350d55afc14610fb857806364d60d9114610f2657806369f161c414610f01578063894e9a0d14610ddd5780638aa2855014610dc25780638fc49ef8146106d1578063aaad3171146103ad578063cd9e3fe81461016a5763eb91d37e146100a0575f80fd5b34610166575f36600319011261016657602460606001600160a01b036100c461157c565b6040516349f4fc0360e11b8152665193148bd554d160c21b600482015293849290918391165afa90811561015b576060915f905f809161011f575b6001600160401b039293506040519384525f0b6020840152166040820152f35b5050506101496001600160401b0391833d8511610154575b61014181836111f3565b810190611381565b9192508291906100ff565b503d610137565b6040513d5f823e3d90fd5b5f80fd5b6060366003190112610166576001600160a01b036004358181169081900361016657602490813560443582156103785781156103415780156103065734156102cf575f54935f1985146102bc5750836008602096600183015f55604051906101d1826111a8565b3382528882018781526040830187815260608401878152608085019034825260a08601925f845260c087019442865260e088019642885261010089019a60018c525f528f600190528060405f20995116906bffffffffffffffffffffffff60a01b91828b5416178a5560018a0192511690825416179055516002870155516003860155516004850155516005840155516006830155516007820155019051151560ff8019835416911617905560405191825284820152346040820152827f8d3a4d9a98c71920c13665fb97f1a612978391e661f9a17fa5390f60e7424d5c60603393a4604051908152f35b634e487b7160e01b5f9081526011600452fd5b60405162461bcd60e51b8152602060048201526010818601526f26bab9ba103232b837b9b4ba1023262960811b6044820152606490fd5b60405162461bcd60e51b815260206004820152601481860152730496e74657276616c206d757374206265203e20360641b6044820152606490fd5b60405162461bcd60e51b8152602060048201526010818601526f052617465206d757374206265203e20360841b6044820152606490fd5b60405162461bcd60e51b815260206004820152600e818601526d24b73b30b634b2103bb7b935b2b960911b6044820152606490fd5b346101665760403660031901126101665760043560243590805f52600160205260405f209160088301908154906103e660ff8316611243565b6001850180546001600160a01b03908116949192919033861480156106c5575b1561068f57600688019361042b610423865460038c0154906112ce565b4210156112db565b831561065c578161043a61157c565b16926040519687946349f4fc0360e11b8652665193148bd554d160c21b600487015285602460609788935afa9a8b1561015b575f985f9c610636575b506104828915156113b6565b88600282019c8d549060ff16610497906113fb565b6104a09161140c565b906104aa9161141f565b97856104b46114d8565b1687604051809263dbdff2c160e01b8252815a91600492fa90811561015b575f985f92610600575b50505f97816105f4575b506105c1575b6005600483015492019081546105028185611283565b808c116105b9575b508a7fc19610f89e56b6eecf2ea73c5f596ebc3ae5f3d02739aa531cde2fb4dacbbb739d6105a79b9a999897610575975f9788978897610556878a9961055182151561143d565b6112ce565b80925542905510156105ac575b50505af161056f611290565b5061147b565b5416975494604051958695869192608093969594919660a0840197845260208401526040830152151560608201520152565b0390a3005b60ff191690555f80610563565b9a508f61050a565b9550968060011b90808204600214901517156105e057966001956104ec565b634e487b7160e01b5f52601160045260245ffd5b600a915006158e6104e6565b61062493995080919250903d1061062f575b61061c81836111f3565b810190611221565b509690968e806104dc565b503d610612565b909b50610651919850853d87116101545761014181836111f3565b509790979a8c610476565b60405162461bcd60e51b815260206004820152600b60248201526a4e6f20616374697669747960a81b6044820152606490fd5b60405162461bcd60e51b815260206004820152600e60248201526d139bdd08185d5d1a1bdc9a5e995960921b6044820152606490fd5b50808854163314610406565b3461016657600319604036820112610166576001600160401b03602435116101665760409060243536030112610166576004355f52600160205260405f20600881015461072060ff8216611243565b60018201546001600160a01b031633819003610d8c5761074c61042360068501546003860154906112ce565b604051602081019060208252600f60408201526e233231ab32b934b334b1b0ba34b7b760891b606082015260608152610784816111d8565b51902060405190630ac9aa5160e11b8252600482015260208160248173ad67fe66660fb8dfe9d6b1b4240d8650e30f60195afa90811561015b575f91610d5d575b5060405190630aa05fe360e01b8252602060048301526024356004013591602219928360243536030181121561016657602435016024600482013591016001600160401b038211610166578160051b9182360382136101665760406024850152606484018190526001600160fb1b0310610166578190608484013781016024803501359260c21960243536030184121561016657602435840190606084840301604485015260048201356084840152602482013560a48401526001600160401b036108926044840161131c565b1660c48401526001600160401b036108ac6064840161131c565b1660e484015236829003608483013560e219820181121561016657836109c591016004810160c06101048801526109b56108fc6108e98380611330565b60e06101448c01526102248b0191611361565b9160c46109ad61098f6109706109518d61093261091c60248c0189611330565b61014319848d0381016101648601529b91611361565b9061094060448c0189611330565b916101848c82860301910152611361565b8d61095f60648b0188611330565b916101a48b82860301910152611361565b8c61097e60848a0187611330565b916101c48a82860301910152611361565b61099c60a4880185611330565b8d830388016101e48f015290611361565b940190611330565b9188840301610204890152611361565b928760a4820135920182121561016657610a0b869460206109fe8198600489979688970101906101246083198287030191015280611330565b9190928181520191611361565b03916001600160a01b03165afa90811561015b575f91610d23575b5015610cea576024350160a481013590828136030182121561016657016004810135918136030182121561016657019160048301356001600160401b0381116101665760248401938136038513610166576020918101031261016657823515610cae57602460606001600160a01b03610a9d61157c565b6040516349f4fc0360e11b8152665193148bd554d160c21b600482015293849290918391165afa91821561015b575f915f93610c80575b50610b0782610b028195610aeb60049615156113b6565b610afc60028b01549160ff166113fb565b9061140c565b61141f565b9060606001600160a01b03610b1a6114d8565b166040519485809263dbdff2c160e01b82525afa90811561015b5787915f945f91610c5a575b505f9481610c4e575b50610c2e575b94817fc19610f89e56b6eecf2ea73c5f596ebc3ae5f3d02739aa531cde2fb4dacbbb739660046105a795940154600583018054610b8c8184611283565b808811610c24575b50610bcd955f95869586958695610bb28c809761055182151561143d565b8091554260068501551015610c135750505af161056f611290565b600260018060a01b0360018901541697015492604051948594600435983593869192608093969594919660a0840197845260208401526040830152151560608201520152565b60089060ff19169101558d8f610563565b9650610bcd610b94565b9250508060011b90808204600214901517156105e0576001918690610b4f565b600a9150061589610b49565b9050610c7691945060603d60601161062f5761061c81836111f3565b5093909389610b40565b610b02935060049250610ca4610b079160603d6060116101545761014181836111f3565b5094509250610ad4565b60405162461bcd60e51b81526020600482015260146024820152734e6f20766572696669656420616374697669747960601b6044820152606490fd5b60405162461bcd60e51b815260206004820152601160248201527024b73b30b634b21023222190383937b7b360791b6044820152606490fd5b90506020813d602011610d55575b81610d3e602093836111f3565b8101031261016657610d4f90611214565b86610a26565b3d9150610d31565b610d7f915060203d602011610d85575b610d7781836111f3565b8101906114b9565b846107c5565b503d610d6d565b60405162461bcd60e51b815260206004820152600e60248201526d2737ba103a3432903bb7b935b2b960911b6044820152606490fd5b34610166575f36600319011261016657602060405160028152f35b3461016657602036600319011261016657610120604051610dfd816111a8565b5f81525f60208201525f60408201525f60608201525f60808201525f60a08201525f60c08201525f60e08201525f610100809201526004355f52600160205260405f2090604051610e4d816111a8565b60018060a01b039283815416938483528060018301541690602084019182526002830154604085019081526003840154606086019081526004850154916080870192835260058601549360a0880194855260068701549560c089019687528960ff600860078b01549a60e08d019b8c52015416990198151589526040519a8b52511660208a01525160408901525160608801525160808701525160a08601525160c08501525160e084015251151590820152f35b34610166575f36600319011261016657604051665193148bd554d160c21b8152602090f35b34610166576020366003190112610166576004355f52600160205261012060405f2060018060a01b039081815416916001820154169060028101546003820154600483015460058401549160068501549360ff600860078801549701541696604051988952602089015260408801526060870152608086015260a085015260c084015260e08301521515610100820152f35b34610166576020366003190112610166576004355f81815260016020526040902080546001600160a01b031690338290036110a757600881018054610fff60ff8216611243565b60ff1916905561101a60056004830154920191825490611283565b9182611056575b507faaf3ecb4577772367b3bf3e2b4fb8682f9444cc4ec121a6710f191c485ef6c3c91604091549082519182526020820152a2005b5f80808581945af1611066611290565b50156110725783611021565b60405162461bcd60e51b815260206004820152600d60248201526c1499599d5b990819985a5b1959609a1b6044820152606490fd5b60405162461bcd60e51b815260206004820152601060248201526f2737ba103a34329032b6b83637bcb2b960811b6044820152606490fd5b34610166575f36600319011261016657600460606001600160a01b036111036114d8565b166040519283809263dbdff2c160e01b82525afa90811561015b576060915f915f91611154575b508080611148575b6040519283521515602083015215156040820152f35b600a8306159150611132565b905061116d9150823d841161062f5761061c81836111f3565b508361112a565b34610166575f366003190112610166576020604051600a8152f35b34610166575f366003190112610166576020905f548152f35b61012081019081106001600160401b038211176111c457604052565b634e487b7160e01b5f52604160045260245ffd5b608081019081106001600160401b038211176111c457604052565b90601f801991011681019081106001600160401b038211176111c457604052565b5190811515820361016657565b9081606091031261016657805191604061123d60208401611214565b92015190565b1561124a57565b60405162461bcd60e51b815260206004820152601160248201527053747265616d206e6f742061637469766560781b6044820152606490fd5b919082039182116105e057565b3d156112c9573d906001600160401b0382116111c457604051916112be601f8201601f1916602001846111f3565b82523d5f602084013e565b606090565b919082018092116105e057565b156112e257565b60405162461bcd60e51b8152602060048201526012602482015271546f6f206561726c7920746f20636c61696d60701b6044820152606490fd5b35906001600160401b038216820361016657565b9035601e19823603018112156101665701602081359101916001600160401b03821161016657813603831361016657565b908060209392818452848401375f828201840152601f01601f1916010190565b90816060910312610166578051916020820151805f0b8103610166576040909201516001600160401b03811681036101665790565b156113bd57565b60405162461bcd60e51b81526020600482015260166024820152754654534f20707269636520756e617661696c61626c6560501b6044820152606490fd5b60ff16604d81116105e057600a0a90565b818102929181159184041417156105e057565b8115611429570490565b634e487b7160e01b5f52601260045260245ffd5b1561144457565b60405162461bcd60e51b815260206004820152600f60248201526e14dd1c99585b4819195c1b195d1959608a1b6044820152606490fd5b1561148257565b60405162461bcd60e51b815260206004820152600f60248201526e151c985b9cd9995c8819985a5b1959608a1b6044820152606490fd5b9081602091031261016657516001600160a01b03811681036101665790565b604051602081019060208252600e60408201526d2930b73237b6a73ab6b132b92b1960911b60608201526060815261150f816111d8565b51902060405190630ac9aa5160e11b8252600482015260208160248173ad67fe66660fb8dfe9d6b1b4240d8650e30f60195afa90811561015b575f9161155d575b506001600160a01b031690565b611576915060203d602011610d8557610d7781836111f3565b5f611550565b6040516020810190602082526006604082015265233a39b7ab1960d11b60608201526060815261150f816111d856fea2646970667358221220fe22cfa7c84c80173ece37e904e4acb06e24880bf9d0dfdf7e4482d1874a31a064736f6c63430008190033","opcodes":"PUSH1 0x80 DUP1 PUSH1 0x40 MSTORE CALLVALUE PUSH1 0x15 JUMPI PUSH2 0x15E1 SWAP1 DUP2 PUSH2 0x1A DUP3 CODECOPY RETURN JUMPDEST PUSH0 DUP1 REVERT INVALID PUSH1 0x80 DUP1 PUSH1 0x40 MSTORE PUSH1 0x4 CALLDATASIZE LT ISZERO PUSH2 0x12 JUMPI PUSH0 DUP1 REVERT JUMPDEST PUSH0 CALLDATALOAD PUSH1 0xE0 SHR SWAP1 DUP2 PUSH4 0x1E99D569 EQ PUSH2 0x118F JUMPI POP DUP1 PUSH4 0x224A64C5 EQ PUSH2 0x1174 JUMPI DUP1 PUSH4 0x4F489587 EQ PUSH2 0x10DF JUMPI DUP1 PUSH4 0x50D55AFC EQ PUSH2 0xFB8 JUMPI DUP1 PUSH4 0x64D60D91 EQ PUSH2 0xF26 JUMPI DUP1 PUSH4 0x69F161C4 EQ PUSH2 0xF01 JUMPI DUP1 PUSH4 0x894E9A0D EQ PUSH2 0xDDD JUMPI DUP1 PUSH4 0x8AA28550 EQ PUSH2 0xDC2 JUMPI DUP1 PUSH4 0x8FC49EF8 EQ PUSH2 0x6D1 JUMPI DUP1 PUSH4 0xAAAD3171 EQ PUSH2 0x3AD JUMPI DUP1 PUSH4 0xCD9E3FE8 EQ PUSH2 0x16A JUMPI PUSH4 0xEB91D37E EQ PUSH2 0xA0 JUMPI PUSH0 DUP1 REVERT JUMPDEST CALLVALUE PUSH2 0x166 JUMPI PUSH0 CALLDATASIZE PUSH1 0x3 NOT ADD SLT PUSH2 0x166 JUMPI PUSH1 0x24 PUSH1 0x60 PUSH1 0x1 PUSH1 0x1 PUSH1 0xA0 SHL SUB PUSH2 0xC4 PUSH2 0x157C JUMP JUMPDEST PUSH1 0x40 MLOAD PUSH4 0x49F4FC03 PUSH1 0xE1 SHL DUP2 MSTORE PUSH7 0x5193148BD554D1 PUSH1 0xC2 SHL PUSH1 0x4 DUP3 ADD MSTORE SWAP4 DUP5 SWAP3 SWAP1 SWAP2 DUP4 SWAP2 AND GAS STATICCALL SWAP1 DUP2 ISZERO PUSH2 0x15B JUMPI PUSH1 0x60 SWAP2 PUSH0 SWAP1 PUSH0 DUP1 SWAP2 PUSH2 0x11F JUMPI JUMPDEST PUSH1 0x1 PUSH1 0x1 PUSH1 0x40 SHL SUB SWAP3 SWAP4 POP PUSH1 0x40 MLOAD SWAP4 DUP5 MSTORE PUSH0 SIGNEXTEND PUSH1 0x20 DUP5 ADD MSTORE AND PUSH1 0x40 DUP3 ADD MSTORE RETURN JUMPDEST POP POP POP PUSH2 0x149 PUSH1 0x1 PUSH1 0x1 PUSH1 0x40 SHL SUB SWAP2 DUP4 RETURNDATASIZE DUP6 GT PUSH2 0x154 JUMPI JUMPDEST PUSH2 0x141 DUP2 DUP4 PUSH2 0x11F3 JUMP JUMPDEST DUP2 ADD SWAP1 PUSH2 0x1381 JUMP JUMPDEST SWAP2 SWAP3 POP DUP3 SWAP2 SWAP1 PUSH2 0xFF JUMP JUMPDEST POP RETURNDATASIZE PUSH2 0x137 JUMP JUMPDEST PUSH1 0x40 MLOAD RETURNDATASIZE PUSH0 DUP3 RETURNDATACOPY RETURNDATASIZE SWAP1 REVERT JUMPDEST PUSH0 DUP1 REVERT JUMPDEST PUSH1 0x60 CALLDATASIZE PUSH1 0x3 NOT ADD SLT PUSH2 0x166 JUMPI PUSH1 0x1 PUSH1 0x1 PUSH1 0xA0 SHL SUB PUSH1 0x4 CALLDATALOAD DUP2 DUP2 AND SWAP1 DUP2 SWAP1 SUB PUSH2 0x166 JUMPI PUSH1 0x24 SWAP1 DUP2 CALLDATALOAD PUSH1 0x44 CALLDATALOAD DUP3 ISZERO PUSH2 0x378 JUMPI DUP2 ISZERO PUSH2 0x341 JUMPI DUP1 ISZERO PUSH2 0x306 JUMPI CALLVALUE ISZERO PUSH2 0x2CF JUMPI PUSH0 SLOAD SWAP4 PUSH0 NOT DUP6 EQ PUSH2 0x2BC JUMPI POP DUP4 PUSH1 0x8 PUSH1 0x20 SWAP7 PUSH1 0x1 DUP4 ADD PUSH0 SSTORE PUSH1 0x40 MLOAD SWAP1 PUSH2 0x1D1 DUP3 PUSH2 0x11A8 JUMP JUMPDEST CALLER DUP3 MSTORE DUP9 DUP3 ADD DUP8 DUP2 MSTORE PUSH1 0x40 DUP4 ADD DUP8 DUP2 MSTORE PUSH1 0x60 DUP5 ADD DUP8 DUP2 MSTORE PUSH1 0x80 DUP6 ADD SWAP1 CALLVALUE DUP3 MSTORE PUSH1 0xA0 DUP7 ADD SWAP3 PUSH0 DUP5 MSTORE PUSH1 0xC0 DUP8 ADD SWAP5 TIMESTAMP DUP7 MSTORE PUSH1 0xE0 DUP9 ADD SWAP7 TIMESTAMP DUP9 MSTORE PUSH2 0x100 DUP10 ADD SWAP11 PUSH1 0x1 DUP13 MSTORE PUSH0 MSTORE DUP16 PUSH1 0x1 SWAP1 MSTORE DUP1 PUSH1 0x40 PUSH0 KECCAK256 SWAP10 MLOAD AND SWAP1 PUSH12 0xFFFFFFFFFFFFFFFFFFFFFFFF PUSH1 0xA0 SHL SWAP2 DUP3 DUP12 SLOAD AND OR DUP11 SSTORE PUSH1 0x1 DUP11 ADD SWAP3 MLOAD AND SWAP1 DUP3 SLOAD AND OR SWAP1 SSTORE MLOAD PUSH1 0x2 DUP8 ADD SSTORE MLOAD PUSH1 0x3 DUP7 ADD SSTORE MLOAD PUSH1 0x4 DUP6 ADD SSTORE MLOAD PUSH1 0x5 DUP5 ADD SSTORE MLOAD PUSH1 0x6 DUP4 ADD SSTORE MLOAD PUSH1 0x7 DUP3 ADD SSTORE ADD SWAP1 MLOAD ISZERO ISZERO PUSH1 0xFF DUP1 NOT DUP4 SLOAD AND SWAP2 AND OR SWAP1 SSTORE PUSH1 0x40 MLOAD SWAP2 DUP3 MSTORE DUP5 DUP3 ADD MSTORE CALLVALUE PUSH1 0x40 DUP3 ADD MSTORE DUP3 PUSH32 0x8D3A4D9A98C71920C13665FB97F1A612978391E661F9A17FA5390F60E7424D5C PUSH1 0x60 CALLER SWAP4 LOG4 PUSH1 0x40 MLOAD SWAP1 DUP2 MSTORE RETURN JUMPDEST PUSH4 0x4E487B71 PUSH1 0xE0 SHL PUSH0 SWAP1 DUP2 MSTORE PUSH1 0x11 PUSH1 0x4 MSTORE REVERT JUMPDEST PUSH1 0x40 MLOAD PUSH3 0x461BCD PUSH1 0xE5 SHL DUP2 MSTORE PUSH1 0x20 PUSH1 0x4 DUP3 ADD MSTORE PUSH1 0x10 DUP2 DUP7 ADD MSTORE PUSH16 0x26BAB9BA103232B837B9B4BA10232629 PUSH1 0x81 SHL PUSH1 0x44 DUP3 ADD MSTORE PUSH1 0x64 SWAP1 REVERT JUMPDEST PUSH1 0x40 MLOAD PUSH3 0x461BCD PUSH1 0xE5 SHL DUP2 MSTORE PUSH1 0x20 PUSH1 0x4 DUP3 ADD MSTORE PUSH1 0x14 DUP2 DUP7 ADD MSTORE PUSH20 0x496E74657276616C206D757374206265203E203 PUSH1 0x64 SHL PUSH1 0x44 DUP3 ADD MSTORE PUSH1 0x64 SWAP1 REVERT JUMPDEST PUSH1 0x40 MLOAD PUSH3 0x461BCD PUSH1 0xE5 SHL DUP2 MSTORE PUSH1 0x20 PUSH1 0x4 DUP3 ADD MSTORE PUSH1 0x10 DUP2 DUP7 ADD MSTORE PUSH16 0x52617465206D757374206265203E203 PUSH1 0x84 SHL PUSH1 0x44 DUP3 ADD MSTORE PUSH1 0x64 SWAP1 REVERT JUMPDEST PUSH1 0x40 MLOAD PUSH3 0x461BCD PUSH1 0xE5 SHL DUP2 MSTORE PUSH1 0x20 PUSH1 0x4 DUP3 ADD MSTORE PUSH1 0xE DUP2 DUP7 ADD MSTORE PUSH14 0x24B73B30B634B2103BB7B935B2B9 PUSH1 0x91 SHL PUSH1 0x44 DUP3 ADD MSTORE PUSH1 0x64 SWAP1 REVERT JUMPDEST CALLVALUE PUSH2 0x166 JUMPI PUSH1 0x40 CALLDATASIZE PUSH1 0x3 NOT ADD SLT PUSH2 0x166 JUMPI PUSH1 0x4 CALLDATALOAD PUSH1 0x24 CALLDATALOAD SWAP1 DUP1 PUSH0 MSTORE PUSH1 0x1 PUSH1 0x20 MSTORE PUSH1 0x40 PUSH0 KECCAK256 SWAP2 PUSH1 0x8 DUP4 ADD SWAP1 DUP2 SLOAD SWAP1 PUSH2 0x3E6 PUSH1 0xFF DUP4 AND PUSH2 0x1243 JUMP JUMPDEST PUSH1 0x1 DUP6 ADD DUP1 SLOAD PUSH1 0x1 PUSH1 0x1 PUSH1 0xA0 SHL SUB SWAP1 DUP2 AND SWAP5 SWAP2 SWAP3 SWAP2 SWAP1 CALLER DUP7 EQ DUP1 ISZERO PUSH2 0x6C5 JUMPI JUMPDEST ISZERO PUSH2 0x68F JUMPI PUSH1 0x6 DUP9 ADD SWAP4 PUSH2 0x42B PUSH2 0x423 DUP7 SLOAD PUSH1 0x3 DUP13 ADD SLOAD SWAP1 PUSH2 0x12CE JUMP JUMPDEST TIMESTAMP LT ISZERO PUSH2 0x12DB JUMP JUMPDEST DUP4 ISZERO PUSH2 0x65C JUMPI DUP2 PUSH2 0x43A PUSH2 0x157C JUMP JUMPDEST AND SWAP3 PUSH1 0x40 MLOAD SWAP7 DUP8 SWAP5 PUSH4 0x49F4FC03 PUSH1 0xE1 SHL DUP7 MSTORE PUSH7 0x5193148BD554D1 PUSH1 0xC2 SHL PUSH1 0x4 DUP8 ADD MSTORE DUP6 PUSH1 0x24 PUSH1 0x60 SWAP8 DUP9 SWAP4 GAS STATICCALL SWAP11 DUP12 ISZERO PUSH2 0x15B JUMPI PUSH0 SWAP9 PUSH0 SWAP13 PUSH2 0x636 JUMPI JUMPDEST POP PUSH2 0x482 DUP10 ISZERO ISZERO PUSH2 0x13B6 JUMP JUMPDEST DUP9 PUSH1 0x2 DUP3 ADD SWAP13 DUP14 SLOAD SWAP1 PUSH1 0xFF AND PUSH2 0x497 SWAP1 PUSH2 0x13FB JUMP JUMPDEST PUSH2 0x4A0 SWAP2 PUSH2 0x140C JUMP JUMPDEST SWAP1 PUSH2 0x4AA SWAP2 PUSH2 0x141F JUMP JUMPDEST SWAP8 DUP6 PUSH2 0x4B4 PUSH2 0x14D8 JUMP JUMPDEST AND DUP8 PUSH1 0x40 MLOAD DUP1 SWAP3 PUSH4 0xDBDFF2C1 PUSH1 0xE0 SHL DUP3 MSTORE DUP2 GAS SWAP2 PUSH1 0x4 SWAP3 STATICCALL SWAP1 DUP2 ISZERO PUSH2 0x15B JUMPI PUSH0 SWAP9 PUSH0 SWAP3 PUSH2 0x600 JUMPI JUMPDEST POP POP PUSH0 SWAP8 DUP2 PUSH2 0x5F4 JUMPI JUMPDEST POP PUSH2 0x5C1 JUMPI JUMPDEST PUSH1 0x5 PUSH1 0x4 DUP4 ADD SLOAD SWAP3 ADD SWAP1 DUP2 SLOAD PUSH2 0x502 DUP2 DUP6 PUSH2 0x1283 JUMP JUMPDEST DUP1 DUP13 GT PUSH2 0x5B9 JUMPI JUMPDEST POP DUP11 PUSH32 0xC19610F89E56B6EECF2EA73C5F596EBC3AE5F3D02739AA531CDE2FB4DACBBB73 SWAP14 PUSH2 0x5A7 SWAP12 SWAP11 SWAP10 SWAP9 SWAP8 PUSH2 0x575 SWAP8 PUSH0 SWAP8 DUP9 SWAP8 DUP9 SWAP8 PUSH2 0x556 DUP8 DUP11 SWAP10 PUSH2 0x551 DUP3 ISZERO ISZERO PUSH2 0x143D JUMP JUMPDEST PUSH2 0x12CE JUMP JUMPDEST DUP1 SWAP3 SSTORE TIMESTAMP SWAP1 SSTORE LT ISZERO PUSH2 0x5AC JUMPI JUMPDEST POP POP GAS CALL PUSH2 0x56F PUSH2 0x1290 JUMP JUMPDEST POP PUSH2 0x147B JUMP JUMPDEST SLOAD AND SWAP8 SLOAD SWAP5 PUSH1 0x40 MLOAD SWAP6 DUP7 SWAP6 DUP7 SWAP2 SWAP3 PUSH1 0x80 SWAP4 SWAP7 SWAP6 SWAP5 SWAP2 SWAP7 PUSH1 0xA0 DUP5 ADD SWAP8 DUP5 MSTORE PUSH1 0x20 DUP5 ADD MSTORE PUSH1 0x40 DUP4 ADD MSTORE ISZERO ISZERO PUSH1 0x60 DUP3 ADD MSTORE ADD MSTORE JUMP JUMPDEST SUB SWAP1 LOG3 STOP JUMPDEST PUSH1 0xFF NOT AND SWAP1 SSTORE PUSH0 DUP1 PUSH2 0x563 JUMP JUMPDEST SWAP11 POP DUP16 PUSH2 0x50A JUMP JUMPDEST SWAP6 POP SWAP7 DUP1 PUSH1 0x1 SHL SWAP1 DUP1 DUP3 DIV PUSH1 0x2 EQ SWAP1 ISZERO OR ISZERO PUSH2 0x5E0 JUMPI SWAP7 PUSH1 0x1 SWAP6 PUSH2 0x4EC JUMP JUMPDEST PUSH4 0x4E487B71 PUSH1 0xE0 SHL PUSH0 MSTORE PUSH1 0x11 PUSH1 0x4 MSTORE PUSH1 0x24 PUSH0 REVERT JUMPDEST PUSH1 0xA SWAP2 POP MOD ISZERO DUP15 PUSH2 0x4E6 JUMP JUMPDEST PUSH2 0x624 SWAP4 SWAP10 POP DUP1 SWAP2 SWAP3 POP SWAP1 RETURNDATASIZE LT PUSH2 0x62F JUMPI JUMPDEST PUSH2 0x61C DUP2 DUP4 PUSH2 0x11F3 JUMP JUMPDEST DUP2 ADD SWAP1 PUSH2 0x1221 JUMP JUMPDEST POP SWAP7 SWAP1 SWAP7 DUP15 DUP1 PUSH2 0x4DC JUMP JUMPDEST POP RETURNDATASIZE PUSH2 0x612 JUMP JUMPDEST SWAP1 SWAP12 POP PUSH2 0x651 SWAP2 SWAP9 POP DUP6 RETURNDATASIZE DUP8 GT PUSH2 0x154 JUMPI PUSH2 0x141 DUP2 DUP4 PUSH2 0x11F3 JUMP JUMPDEST POP SWAP8 SWAP1 SWAP8 SWAP11 DUP13 PUSH2 0x476 JUMP JUMPDEST PUSH1 0x40 MLOAD PUSH3 0x461BCD PUSH1 0xE5 SHL DUP2 MSTORE PUSH1 0x20 PUSH1 0x4 DUP3 ADD MSTORE PUSH1 0xB PUSH1 0x24 DUP3 ADD MSTORE PUSH11 0x4E6F206163746976697479 PUSH1 0xA8 SHL PUSH1 0x44 DUP3 ADD MSTORE PUSH1 0x64 SWAP1 REVERT JUMPDEST PUSH1 0x40 MLOAD PUSH3 0x461BCD PUSH1 0xE5 SHL DUP2 MSTORE PUSH1 0x20 PUSH1 0x4 DUP3 ADD MSTORE PUSH1 0xE PUSH1 0x24 DUP3 ADD MSTORE PUSH14 0x139BDD08185D5D1A1BDC9A5E9959 PUSH1 0x92 SHL PUSH1 0x44 DUP3 ADD MSTORE PUSH1 0x64 SWAP1 REVERT JUMPDEST POP DUP1 DUP9 SLOAD AND CALLER EQ PUSH2 0x406 JUMP JUMPDEST CALLVALUE PUSH2 0x166 JUMPI PUSH1 0x3 NOT PUSH1 0x40 CALLDATASIZE DUP3 ADD SLT PUSH2 0x166 JUMPI PUSH1 0x1 PUSH1 0x1 PUSH1 0x40 SHL SUB PUSH1 0x24 CALLDATALOAD GT PUSH2 0x166 JUMPI PUSH1 0x40 SWAP1 PUSH1 0x24 CALLDATALOAD CALLDATASIZE SUB ADD SLT PUSH2 0x166 JUMPI PUSH1 0x4 CALLDATALOAD PUSH0 MSTORE PUSH1 0x1 PUSH1 0x20 MSTORE PUSH1 0x40 PUSH0 KECCAK256 PUSH1 0x8 DUP2 ADD SLOAD PUSH2 0x720 PUSH1 0xFF DUP3 AND PUSH2 0x1243 JUMP JUMPDEST PUSH1 0x1 DUP3 ADD SLOAD PUSH1 0x1 PUSH1 0x1 PUSH1 0xA0 SHL SUB AND CALLER DUP2 SWAP1 SUB PUSH2 0xD8C JUMPI PUSH2 0x74C PUSH2 0x423 PUSH1 0x6 DUP6 ADD SLOAD PUSH1 0x3 DUP7 ADD SLOAD SWAP1 PUSH2 0x12CE JUMP JUMPDEST PUSH1 0x40 MLOAD PUSH1 0x20 DUP2 ADD SWAP1 PUSH1 0x20 DUP3 MSTORE PUSH1 0xF PUSH1 0x40 DUP3 ADD MSTORE PUSH15 0x233231AB32B934B334B1B0BA34B7B7 PUSH1 0x89 SHL PUSH1 0x60 DUP3 ADD MSTORE PUSH1 0x60 DUP2 MSTORE PUSH2 0x784 DUP2 PUSH2 0x11D8 JUMP JUMPDEST MLOAD SWAP1 KECCAK256 PUSH1 0x40 MLOAD SWAP1 PUSH4 0xAC9AA51 PUSH1 0xE1 SHL DUP3 MSTORE PUSH1 0x4 DUP3 ADD MSTORE PUSH1 0x20 DUP2 PUSH1 0x24 DUP2 PUSH20 0xAD67FE66660FB8DFE9D6B1B4240D8650E30F6019 GAS STATICCALL SWAP1 DUP2 ISZERO PUSH2 0x15B JUMPI PUSH0 SWAP2 PUSH2 0xD5D JUMPI JUMPDEST POP PUSH1 0x40 MLOAD SWAP1 PUSH4 0xAA05FE3 PUSH1 0xE0 SHL DUP3 MSTORE PUSH1 0x20 PUSH1 0x4 DUP4 ADD MSTORE PUSH1 0x24 CALLDATALOAD PUSH1 0x4 ADD CALLDATALOAD SWAP2 PUSH1 0x22 NOT SWAP3 DUP4 PUSH1 0x24 CALLDATALOAD CALLDATASIZE SUB ADD DUP2 SLT ISZERO PUSH2 0x166 JUMPI PUSH1 0x24 CALLDATALOAD ADD PUSH1 0x24 PUSH1 0x4 DUP3 ADD CALLDATALOAD SWAP2 ADD PUSH1 0x1 PUSH1 0x1 PUSH1 0x40 SHL SUB DUP3 GT PUSH2 0x166 JUMPI DUP2 PUSH1 0x5 SHL SWAP2 DUP3 CALLDATASIZE SUB DUP3 SGT PUSH2 0x166 JUMPI PUSH1 0x40 PUSH1 0x24 DUP6 ADD MSTORE PUSH1 0x64 DUP5 ADD DUP2 SWAP1 MSTORE PUSH1 0x1 PUSH1 0x1 PUSH1 0xFB SHL SUB LT PUSH2 0x166 JUMPI DUP2 SWAP1 PUSH1 0x84 DUP5 ADD CALLDATACOPY DUP2 ADD PUSH1 0x24 DUP1 CALLDATALOAD ADD CALLDATALOAD SWAP3 PUSH1 0xC2 NOT PUSH1 0x24 CALLDATALOAD CALLDATASIZE SUB ADD DUP5 SLT ISZERO PUSH2 0x166 JUMPI PUSH1 0x24 CALLDATALOAD DUP5 ADD SWAP1 PUSH1 0x60 DUP5 DUP5 SUB ADD PUSH1 0x44 DUP6 ADD MSTORE PUSH1 0x4 DUP3 ADD CALLDATALOAD PUSH1 0x84 DUP5 ADD MSTORE PUSH1 0x24 DUP3 ADD CALLDATALOAD PUSH1 0xA4 DUP5 ADD MSTORE PUSH1 0x1 PUSH1 0x1 PUSH1 0x40 SHL SUB PUSH2 0x892 PUSH1 0x44 DUP5 ADD PUSH2 0x131C JUMP JUMPDEST AND PUSH1 0xC4 DUP5 ADD MSTORE PUSH1 0x1 PUSH1 0x1 PUSH1 0x40 SHL SUB PUSH2 0x8AC PUSH1 0x64 DUP5 ADD PUSH2 0x131C JUMP JUMPDEST AND PUSH1 0xE4 DUP5 ADD MSTORE CALLDATASIZE DUP3 SWAP1 SUB PUSH1 0x84 DUP4 ADD CALLDATALOAD PUSH1 0xE2 NOT DUP3 ADD DUP2 SLT ISZERO PUSH2 0x166 JUMPI DUP4 PUSH2 0x9C5 SWAP2 ADD PUSH1 0x4 DUP2 ADD PUSH1 0xC0 PUSH2 0x104 DUP9 ADD MSTORE PUSH2 0x9B5 PUSH2 0x8FC PUSH2 0x8E9 DUP4 DUP1 PUSH2 0x1330 JUMP JUMPDEST PUSH1 0xE0 PUSH2 0x144 DUP13 ADD MSTORE PUSH2 0x224 DUP12 ADD SWAP2 PUSH2 0x1361 JUMP JUMPDEST SWAP2 PUSH1 0xC4 PUSH2 0x9AD PUSH2 0x98F PUSH2 0x970 PUSH2 0x951 DUP14 PUSH2 0x932 PUSH2 0x91C PUSH1 0x24 DUP13 ADD DUP10 PUSH2 0x1330 JUMP JUMPDEST PUSH2 0x143 NOT DUP5 DUP14 SUB DUP2 ADD PUSH2 0x164 DUP7 ADD MSTORE SWAP12 SWAP2 PUSH2 0x1361 JUMP JUMPDEST SWAP1 PUSH2 0x940 PUSH1 0x44 DUP13 ADD DUP10 PUSH2 0x1330 JUMP JUMPDEST SWAP2 PUSH2 0x184 DUP13 DUP3 DUP7 SUB ADD SWAP2 ADD MSTORE PUSH2 0x1361 JUMP JUMPDEST DUP14 PUSH2 0x95F PUSH1 0x64 DUP12 ADD DUP9 PUSH2 0x1330 JUMP JUMPDEST SWAP2 PUSH2 0x1A4 DUP12 DUP3 DUP7 SUB ADD SWAP2 ADD MSTORE PUSH2 0x1361 JUMP JUMPDEST DUP13 PUSH2 0x97E PUSH1 0x84 DUP11 ADD DUP8 PUSH2 0x1330 JUMP JUMPDEST SWAP2 PUSH2 0x1C4 DUP11 DUP3 DUP7 SUB ADD SWAP2 ADD MSTORE PUSH2 0x1361 JUMP JUMPDEST PUSH2 0x99C PUSH1 0xA4 DUP9 ADD DUP6 PUSH2 0x1330 JUMP JUMPDEST DUP14 DUP4 SUB DUP9 ADD PUSH2 0x1E4 DUP16 ADD MSTORE SWAP1 PUSH2 0x1361 JUMP JUMPDEST SWAP5 ADD SWAP1 PUSH2 0x1330 JUMP JUMPDEST SWAP2 DUP9 DUP5 SUB ADD PUSH2 0x204 DUP10 ADD MSTORE PUSH2 0x1361 JUMP JUMPDEST SWAP3 DUP8 PUSH1 0xA4 DUP3 ADD CALLDATALOAD SWAP3 ADD DUP3 SLT ISZERO PUSH2 0x166 JUMPI PUSH2 0xA0B DUP7 SWAP5 PUSH1 0x20 PUSH2 0x9FE DUP2 SWAP9 PUSH1 0x4 DUP10 SWAP8 SWAP7 DUP9 SWAP8 ADD ADD SWAP1 PUSH2 0x124 PUSH1 0x83 NOT DUP3 DUP8 SUB ADD SWAP2 ADD MSTORE DUP1 PUSH2 0x1330 JUMP JUMPDEST SWAP2 SWAP1 SWAP3 DUP2 DUP2 MSTORE ADD SWAP2 PUSH2 0x1361 JUMP JUMPDEST SUB SWAP2 PUSH1 0x1 PUSH1 0x1 PUSH1 0xA0 SHL SUB AND GAS STATICCALL SWAP1 DUP2 ISZERO PUSH2 0x15B JUMPI PUSH0 SWAP2 PUSH2 0xD23 JUMPI JUMPDEST POP ISZERO PUSH2 0xCEA JUMPI PUSH1 0x24 CALLDATALOAD ADD PUSH1 0xA4 DUP2 ADD CALLDATALOAD SWAP1 DUP3 DUP2 CALLDATASIZE SUB ADD DUP3 SLT ISZERO PUSH2 0x166 JUMPI ADD PUSH1 0x4 DUP2 ADD CALLDATALOAD SWAP2 DUP2 CALLDATASIZE SUB ADD DUP3 SLT ISZERO PUSH2 0x166 JUMPI ADD SWAP2 PUSH1 0x4 DUP4 ADD CALLDATALOAD PUSH1 0x1 PUSH1 0x1 PUSH1 0x40 SHL SUB DUP2 GT PUSH2 0x166 JUMPI PUSH1 0x24 DUP5 ADD SWAP4 DUP2 CALLDATASIZE SUB DUP6 SGT PUSH2 0x166 JUMPI PUSH1 0x20 SWAP2 DUP2 ADD SUB SLT PUSH2 0x166 JUMPI DUP3 CALLDATALOAD ISZERO PUSH2 0xCAE JUMPI PUSH1 0x24 PUSH1 0x60 PUSH1 0x1 PUSH1 0x1 PUSH1 0xA0 SHL SUB PUSH2 0xA9D PUSH2 0x157C JUMP JUMPDEST PUSH1 0x40 MLOAD PUSH4 0x49F4FC03 PUSH1 0xE1 SHL DUP2 MSTORE PUSH7 0x5193148BD554D1 PUSH1 0xC2 SHL PUSH1 0x4 DUP3 ADD MSTORE SWAP4 DUP5 SWAP3 SWAP1 SWAP2 DUP4 SWAP2 AND GAS STATICCALL SWAP2 DUP3 ISZERO PUSH2 0x15B JUMPI PUSH0 SWAP2 PUSH0 SWAP4 PUSH2 0xC80 JUMPI JUMPDEST POP PUSH2 0xB07 DUP3 PUSH2 0xB02 DUP2 SWAP6 PUSH2 0xAEB PUSH1 0x4 SWAP7 ISZERO ISZERO PUSH2 0x13B6 JUMP JUMPDEST PUSH2 0xAFC PUSH1 0x2 DUP12 ADD SLOAD SWAP2 PUSH1 0xFF AND PUSH2 0x13FB JUMP JUMPDEST SWAP1 PUSH2 0x140C JUMP JUMPDEST PUSH2 0x141F JUMP JUMPDEST SWAP1 PUSH1 0x60 PUSH1 0x1 PUSH1 0x1 PUSH1 0xA0 SHL SUB PUSH2 0xB1A PUSH2 0x14D8 JUMP JUMPDEST AND PUSH1 0x40 MLOAD SWAP5 DUP6 DUP1 SWAP3 PUSH4 0xDBDFF2C1 PUSH1 0xE0 SHL DUP3 MSTORE GAS STATICCALL SWAP1 DUP2 ISZERO PUSH2 0x15B JUMPI DUP8 SWAP2 PUSH0 SWAP5 PUSH0 SWAP2 PUSH2 0xC5A JUMPI JUMPDEST POP PUSH0 SWAP5 DUP2 PUSH2 0xC4E JUMPI JUMPDEST POP PUSH2 0xC2E JUMPI JUMPDEST SWAP5 DUP2 PUSH32 0xC19610F89E56B6EECF2EA73C5F596EBC3AE5F3D02739AA531CDE2FB4DACBBB73 SWAP7 PUSH1 0x4 PUSH2 0x5A7 SWAP6 SWAP5 ADD SLOAD PUSH1 0x5 DUP4 ADD DUP1 SLOAD PUSH2 0xB8C DUP2 DUP5 PUSH2 0x1283 JUMP JUMPDEST DUP1 DUP9 GT PUSH2 0xC24 JUMPI JUMPDEST POP PUSH2 0xBCD SWAP6 PUSH0 SWAP6 DUP7 SWAP6 DUP7 SWAP6 DUP7 SWAP6 PUSH2 0xBB2 DUP13 DUP1 SWAP8 PUSH2 0x551 DUP3 ISZERO ISZERO PUSH2 0x143D JUMP JUMPDEST DUP1 SWAP2 SSTORE TIMESTAMP PUSH1 0x6 DUP6 ADD SSTORE LT ISZERO PUSH2 0xC13 JUMPI POP POP GAS CALL PUSH2 0x56F PUSH2 0x1290 JUMP JUMPDEST PUSH1 0x2 PUSH1 0x1 DUP1 PUSH1 0xA0 SHL SUB PUSH1 0x1 DUP10 ADD SLOAD AND SWAP8 ADD SLOAD SWAP3 PUSH1 0x40 MLOAD SWAP5 DUP6 SWAP5 PUSH1 0x4 CALLDATALOAD SWAP9 CALLDATALOAD SWAP4 DUP7 SWAP2 SWAP3 PUSH1 0x80 SWAP4 SWAP7 SWAP6 SWAP5 SWAP2 SWAP7 PUSH1 0xA0 DUP5 ADD SWAP8 DUP5 MSTORE PUSH1 0x20 DUP5 ADD MSTORE PUSH1 0x40 DUP4 ADD MSTORE ISZERO ISZERO PUSH1 0x60 DUP3 ADD MSTORE ADD MSTORE JUMP JUMPDEST PUSH1 0x8 SWAP1 PUSH1 0xFF NOT AND SWAP2 ADD SSTORE DUP14 DUP16 PUSH2 0x563 JUMP JUMPDEST SWAP7 POP PUSH2 0xBCD PUSH2 0xB94 JUMP JUMPDEST SWAP3 POP POP DUP1 PUSH1 0x1 SHL SWAP1 DUP1 DUP3 DIV PUSH1 0x2 EQ SWAP1 ISZERO OR ISZERO PUSH2 0x5E0 JUMPI PUSH1 0x1 SWAP2 DUP7 SWAP1 PUSH2 0xB4F JUMP JUMPDEST PUSH1 0xA SWAP2 POP MOD ISZERO DUP10 PUSH2 0xB49 JUMP JUMPDEST SWAP1 POP PUSH2 0xC76 SWAP2 SWAP5 POP PUSH1 0x60 RETURNDATASIZE PUSH1 0x60 GT PUSH2 0x62F JUMPI PUSH2 0x61C DUP2 DUP4 PUSH2 0x11F3 JUMP JUMPDEST POP SWAP4 SWAP1 SWAP4 DUP10 PUSH2 0xB40 JUMP JUMPDEST PUSH2 0xB02 SWAP4 POP PUSH1 0x4 SWAP3 POP PUSH2 0xCA4 PUSH2 0xB07 SWAP2 PUSH1 0x60 RETURNDATASIZE PUSH1 0x60 GT PUSH2 0x154 JUMPI PUSH2 0x141 DUP2 DUP4 PUSH2 0x11F3 JUMP JUMPDEST POP SWAP5 POP SWAP3 POP PUSH2 0xAD4 JUMP JUMPDEST PUSH1 0x40 MLOAD PUSH3 0x461BCD PUSH1 0xE5 SHL DUP2 MSTORE PUSH1 0x20 PUSH1 0x4 DUP3 ADD MSTORE PUSH1 0x14 PUSH1 0x24 DUP3 ADD MSTORE PUSH20 0x4E6F207665726966696564206163746976697479 PUSH1 0x60 SHL PUSH1 0x44 DUP3 ADD MSTORE PUSH1 0x64 SWAP1 REVERT JUMPDEST PUSH1 0x40 MLOAD PUSH3 0x461BCD PUSH1 0xE5 SHL DUP2 MSTORE PUSH1 0x20 PUSH1 0x4 DUP3 ADD MSTORE PUSH1 0x11 PUSH1 0x24 DUP3 ADD MSTORE PUSH17 0x24B73B30B634B21023222190383937B7B3 PUSH1 0x79 SHL PUSH1 0x44 DUP3 ADD MSTORE PUSH1 0x64 SWAP1 REVERT JUMPDEST SWAP1 POP PUSH1 0x20 DUP2 RETURNDATASIZE PUSH1 0x20 GT PUSH2 0xD55 JUMPI JUMPDEST DUP2 PUSH2 0xD3E PUSH1 0x20 SWAP4 DUP4 PUSH2 0x11F3 JUMP JUMPDEST DUP2 ADD SUB SLT PUSH2 0x166 JUMPI PUSH2 0xD4F SWAP1 PUSH2 0x1214 JUMP JUMPDEST DUP7 PUSH2 0xA26 JUMP JUMPDEST RETURNDATASIZE SWAP2 POP PUSH2 0xD31 JUMP JUMPDEST PUSH2 0xD7F SWAP2 POP PUSH1 0x20 RETURNDATASIZE PUSH1 0x20 GT PUSH2 0xD85 JUMPI JUMPDEST PUSH2 0xD77 DUP2 DUP4 PUSH2 0x11F3 JUMP JUMPDEST DUP2 ADD SWAP1 PUSH2 0x14B9 JUMP JUMPDEST DUP5 PUSH2 0x7C5 JUMP JUMPDEST POP RETURNDATASIZE PUSH2 0xD6D JUMP JUMPDEST PUSH1 0x40 MLOAD PUSH3 0x461BCD PUSH1 0xE5 SHL DUP2 MSTORE PUSH1 0x20 PUSH1 0x4 DUP3 ADD MSTORE PUSH1 0xE PUSH1 0x24 DUP3 ADD MSTORE PUSH14 0x2737BA103A3432903BB7B935B2B9 PUSH1 0x91 SHL PUSH1 0x44 DUP3 ADD MSTORE PUSH1 0x64 SWAP1 REVERT JUMPDEST CALLVALUE PUSH2 0x166 JUMPI PUSH0 CALLDATASIZE PUSH1 0x3 NOT ADD SLT PUSH2 0x166 JUMPI PUSH1 0x20 PUSH1 0x40 MLOAD PUSH1 0x2 DUP2 MSTORE RETURN JUMPDEST CALLVALUE PUSH2 0x166 JUMPI PUSH1 0x20 CALLDATASIZE PUSH1 0x3 NOT ADD SLT PUSH2 0x166 JUMPI PUSH2 0x120 PUSH1 0x40 MLOAD PUSH2 0xDFD DUP2 PUSH2 0x11A8 JUMP JUMPDEST PUSH0 DUP2 MSTORE PUSH0 PUSH1 0x20 DUP3 ADD MSTORE PUSH0 PUSH1 0x40 DUP3 ADD MSTORE PUSH0 PUSH1 0x60 DUP3 ADD MSTORE PUSH0 PUSH1 0x80 DUP3 ADD MSTORE PUSH0 PUSH1 0xA0 DUP3 ADD MSTORE PUSH0 PUSH1 0xC0 DUP3 ADD MSTORE PUSH0 PUSH1 0xE0 DUP3 ADD MSTORE PUSH0 PUSH2 0x100 DUP1 SWAP3 ADD MSTORE PUSH1 0x4 CALLDATALOAD PUSH0 MSTORE PUSH1 0x1 PUSH1 0x20 MSTORE PUSH1 0x40 PUSH0 KECCAK256 SWAP1 PUSH1 0x40 MLOAD PUSH2 0xE4D DUP2 PUSH2 0x11A8 JUMP JUMPDEST PUSH1 0x1 DUP1 PUSH1 0xA0 SHL SUB SWAP3 DUP4 DUP2 SLOAD AND SWAP4 DUP5 DUP4 MSTORE DUP1 PUSH1 0x1 DUP4 ADD SLOAD AND SWAP1 PUSH1 0x20 DUP5 ADD SWAP2 DUP3 MSTORE PUSH1 0x2 DUP4 ADD SLOAD PUSH1 0x40 DUP6 ADD SWAP1 DUP2 MSTORE PUSH1 0x3 DUP5 ADD SLOAD PUSH1 0x60 DUP7 ADD SWAP1 DUP2 MSTORE PUSH1 0x4 DUP6 ADD SLOAD SWAP2 PUSH1 0x80 DUP8 ADD SWAP3 DUP4 MSTORE PUSH1 0x5 DUP7 ADD SLOAD SWAP4 PUSH1 0xA0 DUP9 ADD SWAP5 DUP6 MSTORE PUSH1 0x6 DUP8 ADD SLOAD SWAP6 PUSH1 0xC0 DUP10 ADD SWAP7 DUP8 MSTORE DUP10 PUSH1 0xFF PUSH1 0x8 PUSH1 0x7 DUP12 ADD SLOAD SWAP11 PUSH1 0xE0 DUP14 ADD SWAP12 DUP13 MSTORE ADD SLOAD AND SWAP10 ADD SWAP9 ISZERO ISZERO DUP10 MSTORE PUSH1 0x40 MLOAD SWAP11 DUP12 MSTORE MLOAD AND PUSH1 0x20 DUP11 ADD MSTORE MLOAD PUSH1 0x40 DUP10 ADD MSTORE MLOAD PUSH1 0x60 DUP9 ADD MSTORE MLOAD PUSH1 0x80 DUP8 ADD MSTORE MLOAD PUSH1 0xA0 DUP7 ADD MSTORE MLOAD PUSH1 0xC0 DUP6 ADD MSTORE MLOAD PUSH1 0xE0 DUP5 ADD MSTORE MLOAD ISZERO ISZERO SWAP1 DUP3 ADD MSTORE RETURN JUMPDEST CALLVALUE PUSH2 0x166 JUMPI PUSH0 CALLDATASIZE PUSH1 0x3 NOT ADD SLT PUSH2 0x166 JUMPI PUSH1 0x40 MLOAD PUSH7 0x5193148BD554D1 PUSH1 0xC2 SHL DUP2 MSTORE PUSH1 0x20 SWAP1 RETURN JUMPDEST CALLVALUE PUSH2 0x166 JUMPI PUSH1 0x20 CALLDATASIZE PUSH1 0x3 NOT ADD SLT PUSH2 0x166 JUMPI PUSH1 0x4 CALLDATALOAD PUSH0 MSTORE PUSH1 0x1 PUSH1 0x20 MSTORE PUSH2 0x120 PUSH1 0x40 PUSH0 KECCAK256 PUSH1 0x1 DUP1 PUSH1 0xA0 SHL SUB SWAP1 DUP2 DUP2 SLOAD AND SWAP2 PUSH1 0x1 DUP3 ADD SLOAD AND SWAP1 PUSH1 0x2 DUP2 ADD SLOAD PUSH1 0x3 DUP3 ADD SLOAD PUSH1 0x4 DUP4 ADD SLOAD PUSH1 0x5 DUP5 ADD SLOAD SWAP2 PUSH1 0x6 DUP6 ADD SLOAD SWAP4 PUSH1 0xFF PUSH1 0x8 PUSH1 0x7 DUP9 ADD SLOAD SWAP8 ADD SLOAD AND SWAP7 PUSH1 0x40 MLOAD SWAP9 DUP10 MSTORE PUSH1 0x20 DUP10 ADD MSTORE PUSH1 0x40 DUP9 ADD MSTORE PUSH1 0x60 DUP8 ADD MSTORE PUSH1 0x80 DUP7 ADD MSTORE PUSH1 0xA0 DUP6 ADD MSTORE PUSH1 0xC0 DUP5 ADD MSTORE PUSH1 0xE0 DUP4 ADD MSTORE ISZERO ISZERO PUSH2 0x100 DUP3 ADD MSTORE RETURN JUMPDEST CALLVALUE PUSH2 0x166 JUMPI PUSH1 0x20 CALLDATASIZE PUSH1 0x3 NOT ADD SLT PUSH2 0x166 JUMPI PUSH1 0x4 CALLDATALOAD PUSH0 DUP2 DUP2 MSTORE PUSH1 0x1 PUSH1 0x20 MSTORE PUSH1 0x40 SWAP1 KECCAK256 DUP1 SLOAD PUSH1 0x1 PUSH1 0x1 PUSH1 0xA0 SHL SUB AND SWAP1 CALLER DUP3 SWAP1 SUB PUSH2 0x10A7 JUMPI PUSH1 0x8 DUP2 ADD DUP1 SLOAD PUSH2 0xFFF PUSH1 0xFF DUP3 AND PUSH2 0x1243 JUMP JUMPDEST PUSH1 0xFF NOT AND SWAP1 SSTORE PUSH2 0x101A PUSH1 0x5 PUSH1 0x4 DUP4 ADD SLOAD SWAP3 ADD SWAP2 DUP3 SLOAD SWAP1 PUSH2 0x1283 JUMP JUMPDEST SWAP2 DUP3 PUSH2 0x1056 JUMPI JUMPDEST POP PUSH32 0xAAF3ECB4577772367B3BF3E2B4FB8682F9444CC4EC121A6710F191C485EF6C3C SWAP2 PUSH1 0x40 SWAP2 SLOAD SWAP1 DUP3 MLOAD SWAP2 DUP3 MSTORE PUSH1 0x20 DUP3 ADD MSTORE LOG2 STOP JUMPDEST PUSH0 DUP1 DUP1 DUP6 DUP2 SWAP5 GAS CALL PUSH2 0x1066 PUSH2 0x1290 JUMP JUMPDEST POP ISZERO PUSH2 0x1072 JUMPI DUP4 PUSH2 0x1021 JUMP JUMPDEST PUSH1 0x40 MLOAD PUSH3 0x461BCD PUSH1 0xE5 SHL DUP2 MSTORE PUSH1 0x20 PUSH1 0x4 DUP3 ADD MSTORE PUSH1 0xD PUSH1 0x24 DUP3 ADD MSTORE PUSH13 0x1499599D5B990819985A5B1959 PUSH1 0x9A SHL PUSH1 0x44 DUP3 ADD MSTORE PUSH1 0x64 SWAP1 REVERT JUMPDEST PUSH1 0x40 MLOAD PUSH3 0x461BCD PUSH1 0xE5 SHL DUP2 MSTORE PUSH1 0x20 PUSH1 0x4 DUP3 ADD MSTORE PUSH1 0x10 PUSH1 0x24 DUP3 ADD MSTORE PUSH16 0x2737BA103A34329032B6B83637BCB2B9 PUSH1 0x81 SHL PUSH1 0x44 DUP3 ADD MSTORE PUSH1 0x64 SWAP1 REVERT JUMPDEST CALLVALUE PUSH2 0x166 JUMPI PUSH0 CALLDATASIZE PUSH1 0x3 NOT ADD SLT PUSH2 0x166 JUMPI PUSH1 0x4 PUSH1 0x60 PUSH1 0x1 PUSH1 0x1 PUSH1 0xA0 SHL SUB PUSH2 0x1103 PUSH2 0x14D8 JUMP JUMPDEST AND PUSH1 0x40 MLOAD SWAP3 DUP4 DUP1 SWAP3 PUSH4 0xDBDFF2C1 PUSH1 0xE0 SHL DUP3 MSTORE GAS STATICCALL SWAP1 DUP2 ISZERO PUSH2 0x15B JUMPI PUSH1 0x60 SWAP2 PUSH0 SWAP2 PUSH0 SWAP2 PUSH2 0x1154 JUMPI JUMPDEST POP DUP1 DUP1 PUSH2 0x1148 JUMPI JUMPDEST PUSH1 0x40 MLOAD SWAP3 DUP4 MSTORE ISZERO ISZERO PUSH1 0x20 DUP4 ADD MSTORE ISZERO ISZERO PUSH1 0x40 DUP3 ADD MSTORE RETURN JUMPDEST PUSH1 0xA DUP4 MOD ISZERO SWAP2 POP PUSH2 0x1132 JUMP JUMPDEST SWAP1 POP PUSH2 0x116D SWAP2 POP DUP3 RETURNDATASIZE DUP5 GT PUSH2 0x62F JUMPI PUSH2 0x61C DUP2 DUP4 PUSH2 0x11F3 JUMP JUMPDEST POP DUP4 PUSH2 0x112A JUMP JUMPDEST CALLVALUE PUSH2 0x166 JUMPI PUSH0 CALLDATASIZE PUSH1 0x3 NOT ADD SLT PUSH2 0x166 JUMPI PUSH1 0x20 PUSH1 0x40 MLOAD PUSH1 0xA DUP2 MSTORE RETURN JUMPDEST CALLVALUE PUSH2 0x166 JUMPI PUSH0 CALLDATASIZE PUSH1 0x3 NOT ADD SLT PUSH2 0x166 JUMPI PUSH1 0x20 SWAP1 PUSH0 SLOAD DUP2 MSTORE RETURN JUMPDEST PUSH2 0x120 DUP2 ADD SWAP1 DUP2 LT PUSH1 0x1 PUSH1 0x1 PUSH1 0x40 SHL SUB DUP3 GT OR PUSH2 0x11C4 JUMPI PUSH1 0x40 MSTORE JUMP JUMPDEST PUSH4 0x4E487B71 PUSH1 0xE0 SHL PUSH0 MSTORE PUSH1 0x41 PUSH1 0x4 MSTORE PUSH1 0x24 PUSH0 REVERT JUMPDEST PUSH1 0x80 DUP2 ADD SWAP1 DUP2 LT PUSH1 0x1 PUSH1 0x1 PUSH1 0x40 SHL SUB DUP3 GT OR PUSH2 0x11C4 JUMPI PUSH1 0x40 MSTORE JUMP JUMPDEST SWAP1 PUSH1 0x1F DUP1 NOT SWAP2 ADD AND DUP2 ADD SWAP1 DUP2 LT PUSH1 0x1 PUSH1 0x1 PUSH1 0x40 SHL SUB DUP3 GT OR PUSH2 0x11C4 JUMPI PUSH1 0x40 MSTORE JUMP JUMPDEST MLOAD SWAP1 DUP2 ISZERO ISZERO DUP3 SUB PUSH2 0x166 JUMPI JUMP JUMPDEST SWAP1 DUP2 PUSH1 0x60 SWAP2 SUB SLT PUSH2 0x166 JUMPI DUP1 MLOAD SWAP2 PUSH1 0x40 PUSH2 0x123D PUSH1 0x20 DUP5 ADD PUSH2 0x1214 JUMP JUMPDEST SWAP3 ADD MLOAD SWAP1 JUMP JUMPDEST ISZERO PUSH2 0x124A JUMPI JUMP JUMPDEST PUSH1 0x40 MLOAD PUSH3 0x461BCD PUSH1 0xE5 SHL DUP2 MSTORE PUSH1 0x20 PUSH1 0x4 DUP3 ADD MSTORE PUSH1 0x11 PUSH1 0x24 DUP3 ADD MSTORE PUSH17 0x53747265616D206E6F7420616374697665 PUSH1 0x78 SHL PUSH1 0x44 DUP3 ADD MSTORE PUSH1 0x64 SWAP1 REVERT JUMPDEST SWAP2 SWAP1 DUP3 SUB SWAP2 DUP3 GT PUSH2 0x5E0 JUMPI JUMP JUMPDEST RETURNDATASIZE ISZERO PUSH2 0x12C9 JUMPI RETURNDATASIZE SWAP1 PUSH1 0x1 PUSH1 0x1 PUSH1 0x40 SHL SUB DUP3 GT PUSH2 0x11C4 JUMPI PUSH1 0x40 MLOAD SWAP2 PUSH2 0x12BE PUSH1 0x1F DUP3 ADD PUSH1 0x1F NOT AND PUSH1 0x20 ADD DUP5 PUSH2 0x11F3 JUMP JUMPDEST DUP3 MSTORE RETURNDATASIZE PUSH0 PUSH1 0x20 DUP5 ADD RETURNDATACOPY JUMP JUMPDEST PUSH1 0x60 SWAP1 JUMP JUMPDEST SWAP2 SWAP1 DUP3 ADD DUP1 SWAP3 GT PUSH2 0x5E0 JUMPI JUMP JUMPDEST ISZERO PUSH2 0x12E2 JUMPI JUMP JUMPDEST PUSH1 0x40 MLOAD PUSH3 0x461BCD PUSH1 0xE5 SHL DUP2 MSTORE PUSH1 0x20 PUSH1 0x4 DUP3 ADD MSTORE PUSH1 0x12 PUSH1 0x24 DUP3 ADD MSTORE PUSH18 0x546F6F206561726C7920746F20636C61696D PUSH1 0x70 SHL PUSH1 0x44 DUP3 ADD MSTORE PUSH1 0x64 SWAP1 REVERT JUMPDEST CALLDATALOAD SWAP1 PUSH1 0x1 PUSH1 0x1 PUSH1 0x40 SHL SUB DUP3 AND DUP3 SUB PUSH2 0x166 JUMPI JUMP JUMPDEST SWAP1 CALLDATALOAD PUSH1 0x1E NOT DUP3 CALLDATASIZE SUB ADD DUP2 SLT ISZERO PUSH2 0x166 JUMPI ADD PUSH1 0x20 DUP2 CALLDATALOAD SWAP2 ADD SWAP2 PUSH1 0x1 PUSH1 0x1 PUSH1 0x40 SHL SUB DUP3 GT PUSH2 0x166 JUMPI DUP2 CALLDATASIZE SUB DUP4 SGT PUSH2 0x166 JUMPI JUMP JUMPDEST SWAP1 DUP1 PUSH1 0x20 SWAP4 SWAP3 DUP2 DUP5 MSTORE DUP5 DUP5 ADD CALLDATACOPY PUSH0 DUP3 DUP3 ADD DUP5 ADD MSTORE PUSH1 0x1F ADD PUSH1 0x1F NOT AND ADD ADD SWAP1 JUMP JUMPDEST SWAP1 DUP2 PUSH1 0x60 SWAP2 SUB SLT PUSH2 0x166 JUMPI DUP1 MLOAD SWAP2 PUSH1 0x20 DUP3 ADD MLOAD DUP1 PUSH0 SIGNEXTEND DUP2 SUB PUSH2 0x166 JUMPI PUSH1 0x40 SWAP1 SWAP3 ADD MLOAD PUSH1 0x1 PUSH1 0x1 PUSH1 0x40 SHL SUB DUP2 AND DUP2 SUB PUSH2 0x166 JUMPI SWAP1 JUMP JUMPDEST ISZERO PUSH2 0x13BD JUMPI JUMP JUMPDEST PUSH1 0x40 MLOAD PUSH3 0x461BCD PUSH1 0xE5 SHL DUP2 MSTORE PUSH1 0x20 PUSH1 0x4 DUP3 ADD MSTORE PUSH1 0x16 PUSH1 0x24 DUP3 ADD MSTORE PUSH22 0x4654534F20707269636520756E617661696C61626C65 PUSH1 0x50 SHL PUSH1 0x44 DUP3 ADD MSTORE PUSH1 0x64 SWAP1 REVERT JUMPDEST PUSH1 0xFF AND PUSH1 0x4D DUP2 GT PUSH2 0x5E0 JUMPI PUSH1 0xA EXP SWAP1 JUMP JUMPDEST DUP2 DUP2 MUL SWAP3 SWAP2 DUP2 ISZERO SWAP2 DUP5 DIV EQ OR ISZERO PUSH2 0x5E0 JUMPI JUMP JUMPDEST DUP2 ISZERO PUSH2 0x1429 JUMPI DIV SWAP1 JUMP JUMPDEST PUSH4 0x4E487B71 PUSH1 0xE0 SHL PUSH0 MSTORE PUSH1 0x12 PUSH1 0x4 MSTORE PUSH1 0x24 PUSH0 REVERT JUMPDEST ISZERO PUSH2 0x1444 JUMPI JUMP JUMPDEST PUSH1 0x40 MLOAD PUSH3 0x461BCD PUSH1 0xE5 SHL DUP2 MSTORE PUSH1 0x20 PUSH1 0x4 DUP3 ADD MSTORE PUSH1 0xF PUSH1 0x24 DUP3 ADD MSTORE PUSH15 0x14DD1C99585B4819195C1B195D1959 PUSH1 0x8A SHL PUSH1 0x44 DUP3 ADD MSTORE PUSH1 0x64 SWAP1 REVERT JUMPDEST ISZERO PUSH2 0x1482 JUMPI JUMP JUMPDEST PUSH1 0x40 MLOAD PUSH3 0x461BCD PUSH1 0xE5 SHL DUP2 MSTORE PUSH1 0x20 PUSH1 0x4 DUP3 ADD MSTORE PUSH1 0xF PUSH1 0x24 DUP3 ADD MSTORE PUSH15 0x151C985B9CD9995C8819985A5B1959 PUSH1 0x8A SHL PUSH1 0x44 DUP3 ADD MSTORE PUSH1 0x64 SWAP1 REVERT JUMPDEST SWAP1 DUP2 PUSH1 0x20 SWAP2 SUB SLT PUSH2 0x166 JUMPI MLOAD PUSH1 0x1 PUSH1 0x1 PUSH1 0xA0 SHL SUB DUP2 AND DUP2 SUB PUSH2 0x166 JUMPI SWAP1 JUMP JUMPDEST PUSH1 0x40 MLOAD PUSH1 0x20 DUP2 ADD SWAP1 PUSH1 0x20 DUP3 MSTORE PUSH1 0xE PUSH1 0x40 DUP3 ADD MSTORE PUSH14 0x2930B73237B6A73AB6B132B92B19 PUSH1 0x91 SHL PUSH1 0x60 DUP3 ADD MSTORE PUSH1 0x60 DUP2 MSTORE PUSH2 0x150F DUP2 PUSH2 0x11D8 JUMP JUMPDEST MLOAD SWAP1 KECCAK256 PUSH1 0x40 MLOAD SWAP1 PUSH4 0xAC9AA51 PUSH1 0xE1 SHL DUP3 MSTORE PUSH1 0x4 DUP3 ADD MSTORE PUSH1 0x20 DUP2 PUSH1 0x24 DUP2 PUSH20 0xAD67FE66660FB8DFE9D6B1B4240D8650E30F6019 GAS STATICCALL SWAP1 DUP2 ISZERO PUSH2 0x15B JUMPI PUSH0 SWAP2 PUSH2 0x155D JUMPI JUMPDEST POP PUSH1 0x1 PUSH1 0x1 PUSH1 0xA0 SHL SUB AND SWAP1 JUMP JUMPDEST PUSH2 0x1576 SWAP2 POP PUSH1 0x20 RETURNDATASIZE PUSH1 0x20 GT PUSH2 0xD85 JUMPI PUSH2 0xD77 DUP2 DUP4 PUSH2 0x11F3 JUMP JUMPDEST PUSH0 PUSH2 0x1550 JUMP JUMPDEST PUSH1 0x40 MLOAD PUSH1 0x20 DUP2 ADD SWAP1 PUSH1 0x20 DUP3 MSTORE PUSH1 0x6 PUSH1 0x40 DUP3 ADD MSTORE PUSH6 0x233A39B7AB19 PUSH1 0xD1 SHL PUSH1 0x60 DUP3 ADD MSTORE PUSH1 0x60 DUP2 MSTORE PUSH2 0x150F DUP2 PUSH2 0x11D8 JUMP INVALID LOG2 PUSH5 0x6970667358 0x22 SLT KECCAK256 INVALID 0x22 0xCF 0xA7 0xC8 0x4C DUP1 OR RETURNDATACOPY 0xCE CALLDATACOPY 0xE9 DIV 0xE4 0xAC 0xB0 PUSH15 0x24880BF9D0DFDF7E4482D1874A31A0 PUSH5 0x736F6C6343 STOP ADDMOD NOT STOP CALLER "},"methodIdentifiers":{"BONUS_DIVISOR()":"224a64c5","BONUS_MULTIPLIER()":"8aa28550","FLR_USD_FEED_ID()":"69f161c4","checkBonusStatus()":"4f489587","claim(uint256,(bytes32[],(bytes32,bytes32,uint64,uint64,(string,string,string,string,string,string,string),(bytes))))":"8fc49ef8","claimDemo(uint256,uint256)":"aaad3171","createStream(address,uint256,uint256)":"cd9e3fe8","endStream(uint256)":"50d55afc","getCurrentPrice()":"eb91d37e","getStream(uint256)":"894e9a0d","nextStreamId()":"1e99d569","streams(uint256)":"64d60d91"}}}}}