{"contracts/InstantPayroll.sol":{"InstantPayroll":{"abi":[{"anonymous":false,"inputs":[{"indexed":true,"internalType":"uint256","name":"streamId","type":"uint256"},{"indexed":true,"internalType":"address","name":"worker","type":"address"},{"indexed":false,"internalType":"uint256","name":"amountFLR","type":"uint256"},{"indexed":false,"internalType":"uint256","name":"amountUSD","type":"uint256"},{"indexed":false,"internalType":"uint256","name":"flrUsdPrice","type":"uint256"},{"indexed":false,"internalType":"bool","name":"bonusTriggered","type":"bool"},{"indexed":false,"internalType":"uint256","name":"commitCount","type":"uint256"}],"name":"PaymentClaimed","type":"event"},{"anonymous":false,"inputs":[{"indexed":true,"internalType":"uint256","name":"streamId","type":"uint256"},{"indexed":true,"internalType":"address","name":"employer","type":"address"},{"indexed":true,"internalType":"address","name":"worker","type":"address"},{"indexed":false,"internalType":"uint256","name":"usdRatePerInterval","type":"uint256"},{"indexed":false,"internalType":"uint256","name":"claimInterval","type":"uint256"},{"indexed":false,"internalType":"uint256","name":"totalDeposit","type":"uint256"}],"name":"StreamCreated","type":"event"},{"anonymous":false,"inputs":[{"indexed":true,"internalType":"uint256","name":"streamId","type":"uint256"},{"indexed":false,"internalType":"uint256","name":"totalClaimed","type":"uint256"},{"indexed":false,"internalType":"uint256","name":"refunded","type":"uint256"}],"name":"StreamEnded","type":"event"},{"inputs":[],"name":"BONUS_DIVISOR","outputs":[{"internalType":"uint256","name":"","type":"uint256"}],"stateMutability":"view","type":"function"},{"inputs":[],"name":"BONUS_MULTIPLIER","outputs":[{"internalType":"uint256","name":"","type":"uint256"}],"stateMutability":"view","type":"function"},{"inputs":[],"name":"FLR_USD_FEED_ID","outputs":[{"internalType":"bytes21","name":"","type":"bytes21"}],"stateMutability":"view","type":"function"},{"inputs":[],"name":"checkBonusStatus","outputs":[{"internalType":"uint256","name":"randomNumber","type":"uint256"},{"internalType":"bool","name":"isSecure","type":"bool"},{"internalType":"bool","name":"wouldTrigger","type":"bool"}],"stateMutability":"view","type":"function"},{"inputs":[{"internalType":"uint256","name":"_streamId","type":"uint256"},{"components":[{"internalType":"bytes32[]","name":"merkleProof","type":"bytes32[]"},{"components":[{"internalType":"bytes32","name":"attestationType","type":"bytes32"},{"internalType":"bytes32","name":"sourceId","type":"bytes32"},{"internalType":"uint64","name":"votingRound","type":"uint64"},{"internalType":"uint64","name":"lowestUsedTimestamp","type":"uint64"},{"components":[{"internalType":"string","name":"url","type":"string"},{"internalType":"string","name":"httpMethod","type":"string"},{"internalType":"string","name":"headers","type":"string"},{"internalType":"string","name":"queryParams","type":"string"},{"internalType":"string","name":"body","type":"string"},{"internalType":"string","name":"postProcessJq","type":"string"},{"internalType":"string","name":"abiSignature","type":"string"}],"internalType":"struct IWeb2Json.RequestBody","name":"requestBody","type":"tuple"},{"components":[{"internalType":"bytes","name":"abiEncodedData","type":"bytes"}],"internalType":"struct IWeb2Json.ResponseBody","name":"responseBody","type":"tuple"}],"internalType":"struct IWeb2Json.Response","name":"data","type":"tuple"}],"internalType":"struct IWeb2Json.Proof","name":"_proof","type":"tuple"}],"name":"claim","outputs":[],"stateMutability":"nonpayable","type":"function"},{"inputs":[{"internalType":"uint256","name":"_streamId","type":"uint256"},{"internalType":"uint256","name":"_commitCount","type":"uint256"}],"name":"claimDemo","outputs":[],"stateMutability":"nonpayable","type":"function"},{"inputs":[{"internalType":"address","name":"_worker","type":"address"},{"internalType":"uint256","name":"_usdRatePerInterval","type":"uint256"},{"internalType":"uint256","name":"_claimInterval","type":"uint256"}],"name":"createStream","outputs":[{"internalType":"uint256","name":"streamId","type":"uint256"}],"stateMutability":"payable","type":"function"},{"inputs":[{"internalType":"uint256","name":"_streamId","type":"uint256"}],"name":"endStream","outputs":[],"stateMutability":"nonpayable","type":"function"},{"inputs":[],"name":"getCurrentPrice","outputs":[{"internalType":"uint256","name":"price","type":"uint256"},{"internalType":"int8","name":"decimals","type":"int8"},{"internalType":"uint64","name":"timestamp","type":"uint64"}],"stateMutability":"view","type":"function"},{"inputs":[{"internalType":"uint256","name":"_streamId","type":"uint256"}],"name":"getStream","outputs":[{"components":[{"internalType":"address","name":"employer","type":"address"},{"internalType":"address","name":"worker","type":"address"},{"internalType":"uint256","name":"usdRatePerInterval","type":"uint256"},{"internalType":"uint256","name":"claimInterval","type":"uint256"},{"internalType":"uint256","name":"totalDeposit","type":"uint256"},{"internalType":"uint256","name":"totalClaimed","type":"uint256"},{"internalType":"uint256","name":"lastClaimTime","type":"uint256"},{"internalType":"uint256","name":"createdAt","type":"uint256"},{"internalType":"bool","name":"active","type":"bool"}],"internalType":"struct InstantPayroll.Stream","name":"","type":"tuple"}],"stateMutability":"view","type":"function"},{"inputs":[],"name":"nextStreamId","outputs":[{"internalType":"uint256","name":"","type":"uint256"}],"stateMutability":"view","type":"function"},{"inputs":[{"internalType":"uint256","name":"","type":"uint256"}],"name":"streams","outputs":[{"internalType":"address","name":"employer","type":"address"},{"internalType":"address","name":"worker","type":"address"},{"internalType":"uint256","name":"usdRatePerInterval","type":"uint256"},{"internalType":"uint256","name":"claimInterval","type":"uint256"},{"internalType":"uint256","name":"totalDeposit","type":"uint256"},{"internalType":"uint256","name":"totalClaimed","type":"uint256"},{"internalType":"uint256","name":"lastClaimTime","type":"uint256"},{"internalType":"uint256","name":"createdAt","type":"uint256"},{"internalType":"bool","name":"active","type":"bool"}],"stateMutability":"view","type":"function"},{"stateMutability":"payable","type":"receive"}],"evm":{"bytecode":{"linkReferences":{},"object":"608080604052346015576116b6908161001a8239f35b5f80fdfe608080604052600436101561001c575b50361561001a575f80fd5b005b5f3560e01c9081631e99d5691461126457508063224a64c5146112495780634f489587146111b457806350d55afc1461108d57806364d60d9114610ffb57806369f161c414610fd6578063894e9a0d14610eb25780638aa2855014610e975780638fc49ef81461073b578063aaad3171146103b9578063cd9e3fe8146101765763eb91d37e146100ac575f61000f565b34610172575f36600319011261017257602460606001600160a01b036100d0611651565b6040516349f4fc0360e11b8152665193148bd554d160c21b600482015293849290918391165afa908115610167576060915f905f809161012b575b6001600160401b039293506040519384525f0b6020840152166040820152f35b5050506101556001600160401b0391833d8511610160575b61014d81836112c8565b810190611456565b91925082919061010b565b503d610143565b6040513d5f823e3d90fd5b5f80fd5b6060366003190112610172576001600160a01b0360043581811690819003610172576024908135604435821561038457811561034d5780156103125734156102db575f54935f1985146102c85750836008602096600183015f55604051906101dd8261127d565b3382528882018781526040830187815260608401878152608085019034825260a08601925f845260c087019442865260e088019642885261010089019a60018c525f528f600190528060405f20995116906bffffffffffffffffffffffff60a01b91828b5416178a5560018a0192511690825416179055516002870155516003860155516004850155516005840155516006830155516007820155019051151560ff8019835416911617905560405191825284820152346040820152827f8d3a4d9a98c71920c13665fb97f1a612978391e661f9a17fa5390f60e7424d5c60603393a4604051908152f35b634e487b7160e01b5f9081526011600452fd5b60405162461bcd60e51b8152602060048201526010818601526f26bab9ba103232b837b9b4ba1023262960811b6044820152606490fd5b60405162461bcd60e51b815260206004820152601481860152730496e74657276616c206d757374206265203e20360641b6044820152606490fd5b60405162461bcd60e51b8152602060048201526010818601526f052617465206d757374206265203e20360841b6044820152606490fd5b60405162461bcd60e51b815260206004820152600e818601526d24b73b30b634b2103bb7b935b2b960911b6044820152606490fd5b3461017257604036600319011261017257600435602490813590805f526020916001835260405f209260088401936103f460ff865416611318565b600181019260018060a01b0392838554163314801561072f575b156106fb57600683019361043361042b86546003870154906113a3565b4210156113b0565b82156106c95780610442611651565b604051620f574160e41b8152665193148bd554d160c21b6004820181905298929091169084818d81855afa948515610167575f95610699575b5050604051976349f4fc0360e11b89526004890152878b8160609687945af1988915610167576104d2995f985f9161066d575b50886104d86104dd926104c283151561148b565b60028a019d8e549160ff166114d0565b906114e1565b6114f4565b95600485856104ea6115ad565b166040519283809263dbdff2c160e01b82525afa908115610167575f965f92610637575b50505f958161062b575b506105f4575b7fc19610f89e56b6eecf2ea73c5f596ebc3ae5f3d02739aa531cde2fb4dacbbb73999a9b506005600482015491018054986105598a84611358565b808a116105ea575b5061057b89809b6105766105d79c1515611512565b6113a3565b80925542905510156105dc575b506105a55f8080808a878754165af161059f611365565b50611550565b5416975494604051958695869192608093969594919660a0840197845260208401526040830152151560608201520152565b0390a3005b805460ff191690558a610588565b985061057b610561565b9350948060011b90808204600214901517156106185798995089989460019361051e565b8a634e487b7160e01b5f5260116004525ffd5b600a915006158d610518565b61065b93975080919250903d10610666575b61065381836112c8565b8101906112f6565b509490948d8061050e565b503d610649565b6104d899506104dd915061068d90863d88116101605761014d81836112c8565b509099509050886104ae565b9080929550813d83116106c2575b6106b181836112c8565b810103126101725751928b8061047b565b503d6106a7565b60405162461bcd60e51b815260048101839052600b818b01526a4e6f20616374697669747960a81b6044820152606490fd5b606490600e896040519262461bcd60e51b845260048401528201526d139bdd08185d5d1a1bdc9a5e995960921b6044820152fd5b5083835416331461040e565b3461017257600319604036820112610172576001600160401b03602435116101725760409060243536030112610172576004355f52600160205260405f2061078960ff600883015416611318565b60018101546001600160a01b03163303610e6157600681016107b461042b82546003850154906113a3565b604051602081019060208252600f60408201526e233231ab32b934b334b1b0ba34b7b760891b6060820152606081526107ec816112ad565b51902060405190630ac9aa5160e11b8252600482015260208160248173ad67fe66660fb8dfe9d6b1b4240d8650e30f60195afa908115610167575f91610e32575b50604051630aa05fe360e01b815260206004820152602435600401356022196024353603018112156101725760243501602481016001600160401b0360048301351161017257600482013560051b918236038213610172576040602485015260040135606484018190526001600160fb1b0310610172578190608484013781016024803501359260c21960243536030184121561017257602435840190606084840301604485015260048201356084840152602482013560a48401526001600160401b036108fd604484016113f1565b1660c48401526001600160401b03610917606484016113f1565b1660e484015236829003608483013560e21982018112156101725783610a3091016004810160c0610104880152610a206109676109548380611405565b60e06101448c01526102248b0191611436565b9160c4610a186109fa6109db6109bc8d61099d61098760248c0189611405565b61014319848d0381016101648601529b91611436565b906109ab60448c0189611405565b916101848c82860301910152611436565b8d6109ca60648b0188611405565b916101a48b82860301910152611436565b8c6109e960848a0187611405565b916101c48a82860301910152611436565b610a0760a4880185611405565b8d830388016101e48f015290611436565b940190611405565b9188840301610204890152611436565b9260a4810135916022190182121561017257610a7886946020610a6b8198600489979688970101906101246083198287030191015280611405565b9190928181520191611436565b03916001600160a01b03165afa908115610167575f91610df8575b5015610dbf576024350160a48101359060221981360301821215610172570160048101359060221981360301821215610172570160048101356001600160401b038111610172576024820191813603831361017257602091810103126101725735918215610d83576001600160a01b03610b0b611651565b604051620f574160e41b8152665193148bd554d160c21b6004820181905292909116602082602481845afa918215610167575f92610d4e575b5060246060929360405194859384926349f4fc0360e11b845260048401525af1938415610167575f915f95610d27575b50600490610b8383151561148b565b610b9d836104d860028701986104d28a549160ff166114d0565b9360606001600160a01b03610bb06115ad565b166040519485809263dbdff2c160e01b82525afa8015610167575f935f91610d01575b505f9381610cf5575b50610cc2575b600481015460058201805497610bf88984611358565b808911610cb8575b50906105d794939291610c3b89809b6105767fc19610f89e56b6eecf2ea73c5f596ebc3ae5f3d02739aa531cde2fb4dacbbb739c1515611512565b8092554290551015610ca7575b610c675f8080808b60018060a01b036001880154165af161059f611365565b6001808060a01b039101541696549260405194859460043598869192608093969594919660a0840197845260208401526040830152151560608201520152565b60088101805460ff19169055610c48565b97506105d7610c00565b9150928060011b9080820460021490151715610ce15792600191610be2565b634e487b7160e01b5f52601160045260245ffd5b600a9150061588610bdc565b9050610d1d91935060603d6060116106665761065381836112c8565b5092909288610bd3565b610d459195506004925060603d6060116101605761014d81836112c8565b50949091610b74565b91506020823d602011610d7b575b81610d69602093836112c8565b81010312610172579051906024610b44565b3d9150610d5c565b60405162461bcd60e51b81526020600482015260146024820152734e6f20766572696669656420616374697669747960601b6044820152606490fd5b60405162461bcd60e51b815260206004820152601160248201527024b73b30b634b21023222190383937b7b360791b6044820152606490fd5b90506020813d602011610e2a575b81610e13602093836112c8565b8101031261017257610e24906112e9565b84610a93565b3d9150610e06565b610e54915060203d602011610e5a575b610e4c81836112c8565b81019061158e565b8361082d565b503d610e42565b60405162461bcd60e51b815260206004820152600e60248201526d2737ba103a3432903bb7b935b2b960911b6044820152606490fd5b34610172575f36600319011261017257602060405160028152f35b3461017257602036600319011261017257610120604051610ed28161127d565b5f81525f60208201525f60408201525f60608201525f60808201525f60a08201525f60c08201525f60e08201525f610100809201526004355f52600160205260405f2090604051610f228161127d565b60018060a01b039283815416938483528060018301541690602084019182526002830154604085019081526003840154606086019081526004850154916080870192835260058601549360a0880194855260068701549560c089019687528960ff600860078b01549a60e08d019b8c52015416990198151589526040519a8b52511660208a01525160408901525160608801525160808701525160a08601525160c08501525160e084015251151590820152f35b34610172575f36600319011261017257604051665193148bd554d160c21b8152602090f35b34610172576020366003190112610172576004355f52600160205261012060405f2060018060a01b039081815416916001820154169060028101546003820154600483015460058401549160068501549360ff600860078801549701541696604051988952602089015260408801526060870152608086015260a085015260c084015260e08301521515610100820152f35b34610172576020366003190112610172576004355f81815260016020526040902080546001600160a01b0316903382900361117c576008810180546110d460ff8216611318565b60ff191690556110ef60056004830154920191825490611358565b918261112b575b507faaf3ecb4577772367b3bf3e2b4fb8682f9444cc4ec121a6710f191c485ef6c3c91604091549082519182526020820152a2005b5f80808581945af161113b611365565b501561114757836110f6565b60405162461bcd60e51b815260206004820152600d60248201526c1499599d5b990819985a5b1959609a1b6044820152606490fd5b60405162461bcd60e51b815260206004820152601060248201526f2737ba103a34329032b6b83637bcb2b960811b6044820152606490fd5b34610172575f36600319011261017257600460606001600160a01b036111d86115ad565b166040519283809263dbdff2c160e01b82525afa908115610167576060915f915f91611229575b50808061121d575b6040519283521515602083015215156040820152f35b600a8306159150611207565b90506112429150823d84116106665761065381836112c8565b50836111ff565b34610172575f366003190112610172576020604051600a8152f35b34610172575f366003190112610172576020905f548152f35b61012081019081106001600160401b0382111761129957604052565b634e487b7160e01b5f52604160045260245ffd5b608081019081106001600160401b0382111761129957604052565b90601f801991011681019081106001600160401b0382111761129957604052565b5190811515820361017257565b90816060910312610172578051916040611312602084016112e9565b92015190565b1561131f57565b60405162461bcd60e51b815260206004820152601160248201527053747265616d206e6f742061637469766560781b6044820152606490fd5b91908203918211610ce157565b3d1561139e573d906001600160401b0382116112995760405191611393601f8201601f1916602001846112c8565b82523d5f602084013e565b606090565b91908201809211610ce157565b156113b757565b60405162461bcd60e51b8152602060048201526012602482015271546f6f206561726c7920746f20636c61696d60701b6044820152606490fd5b35906001600160401b038216820361017257565b9035601e19823603018112156101725701602081359101916001600160401b03821161017257813603831361017257565b908060209392818452848401375f828201840152601f01601f1916010190565b90816060910312610172578051916020820151805f0b8103610172576040909201516001600160401b03811681036101725790565b1561149257565b60405162461bcd60e51b81526020600482015260166024820152754654534f20707269636520756e617661696c61626c6560501b6044820152606490fd5b60ff16604d8111610ce157600a0a90565b81810292918115918404141715610ce157565b81156114fe570490565b634e487b7160e01b5f52601260045260245ffd5b1561151957565b60405162461bcd60e51b815260206004820152600f60248201526e14dd1c99585b4819195c1b195d1959608a1b6044820152606490fd5b1561155757565b60405162461bcd60e51b815260206004820152600f60248201526e151c985b9cd9995c8819985a5b1959608a1b6044820152606490fd5b9081602091031261017257516001600160a01b03811681036101725790565b604051602081019060208252600e60408201526d2930b73237b6a73ab6b132b92b1960911b6060820152606081526115e4816112ad565b51902060405190630ac9aa5160e11b8252600482015260208160248173ad67fe66660fb8dfe9d6b1b4240d8650e30f60195afa908115610167575f91611632575b506001600160a01b031690565b61164b915060203d602011610e5a57610e4c81836112c8565b5f611625565b6040516020810190602082526006604082015265233a39b7ab1960d11b6060820152606081526115e4816112ad56fea2646970667358221220eb9d8f93df96ab4e260d499f6e9672e19017520e0806cf1a38fa8c5c20b1d7de64736f6c63430008190033","opcodes":"PUSH1 0x80 DUP1 PUSH1 0x40 MSTORE CALLVALUE PUSH1 0x15 JUMPI PUSH2 0x16B6 SWAP1 DUP2 PUSH2 0x1A DUP3 CODECOPY RETURN JUMPDEST PUSH0 DUP1 REVERT INVALID PUSH1 0x80 DUP1 PUSH1 0x40 MSTORE PUSH1 0x4 CALLDATASIZE LT ISZERO PUSH2 0x1C JUMPI JUMPDEST POP CALLDATASIZE ISZERO PUSH2 0x1A JUMPI PUSH0 DUP1 REVERT JUMPDEST STOP JUMPDEST PUSH0 CALLDATALOAD PUSH1 0xE0 SHR SWAP1 DUP2 PUSH4 0x1E99D569 EQ PUSH2 0x1264 JUMPI POP DUP1 PUSH4 0x224A64C5 EQ PUSH2 0x1249 JUMPI DUP1 PUSH4 0x4F489587 EQ PUSH2 0x11B4 JUMPI DUP1 PUSH4 0x50D55AFC EQ PUSH2 0x108D JUMPI DUP1 PUSH4 0x64D60D91 EQ PUSH2 0xFFB JUMPI DUP1 PUSH4 0x69F161C4 EQ PUSH2 0xFD6 JUMPI DUP1 PUSH4 0x894E9A0D EQ PUSH2 0xEB2 JUMPI DUP1 PUSH4 0x8AA28550 EQ PUSH2 0xE97 JUMPI DUP1 PUSH4 0x8FC49EF8 EQ PUSH2 0x73B JUMPI DUP1 PUSH4 0xAAAD3171 EQ PUSH2 0x3B9 JUMPI DUP1 PUSH4 0xCD9E3FE8 EQ PUSH2 0x176 JUMPI PUSH4 0xEB91D37E EQ PUSH2 0xAC JUMPI PUSH0 PUSH2 0xF JUMP JUMPDEST CALLVALUE PUSH2 0x172 JUMPI PUSH0 CALLDATASIZE PUSH1 0x3 NOT ADD SLT PUSH2 0x172 JUMPI PUSH1 0x24 PUSH1 0x60 PUSH1 0x1 PUSH1 0x1 PUSH1 0xA0 SHL SUB PUSH2 0xD0 PUSH2 0x1651 JUMP JUMPDEST PUSH1 0x40 MLOAD PUSH4 0x49F4FC03 PUSH1 0xE1 SHL DUP2 MSTORE PUSH7 0x5193148BD554D1 PUSH1 0xC2 SHL PUSH1 0x4 DUP3 ADD MSTORE SWAP4 DUP5 SWAP3 SWAP1 SWAP2 DUP4 SWAP2 AND GAS STATICCALL SWAP1 DUP2 ISZERO PUSH2 0x167 JUMPI PUSH1 0x60 SWAP2 PUSH0 SWAP1 PUSH0 DUP1 SWAP2 PUSH2 0x12B JUMPI JUMPDEST PUSH1 0x1 PUSH1 0x1 PUSH1 0x40 SHL SUB SWAP3 SWAP4 POP PUSH1 0x40 MLOAD SWAP4 DUP5 MSTORE PUSH0 SIGNEXTEND PUSH1 0x20 DUP5 ADD MSTORE AND PUSH1 0x40 DUP3 ADD MSTORE RETURN JUMPDEST POP POP POP PUSH2 0x155 PUSH1 0x1 PUSH1 0x1 PUSH1 0x40 SHL SUB SWAP2 DUP4 RETURNDATASIZE DUP6 GT PUSH2 0x160 JUMPI JUMPDEST PUSH2 0x14D DUP2 DUP4 PUSH2 0x12C8 JUMP JUMPDEST DUP2 ADD SWAP1 PUSH2 0x1456 JUMP JUMPDEST SWAP2 SWAP3 POP DUP3 SWAP2 SWAP1 PUSH2 0x10B JUMP JUMPDEST POP RETURNDATASIZE PUSH2 0x143 JUMP JUMPDEST PUSH1 0x40 MLOAD RETURNDATASIZE PUSH0 DUP3 RETURNDATACOPY RETURNDATASIZE SWAP1 REVERT JUMPDEST PUSH0 DUP1 REVERT JUMPDEST PUSH1 0x60 CALLDATASIZE PUSH1 0x3 NOT ADD SLT PUSH2 0x172 JUMPI PUSH1 0x1 PUSH1 0x1 PUSH1 0xA0 SHL SUB PUSH1 0x4 CALLDATALOAD DUP2 DUP2 AND SWAP1 DUP2 SWAP1 SUB PUSH2 0x172 JUMPI PUSH1 0x24 SWAP1 DUP2 CALLDATALOAD PUSH1 0x44 CALLDATALOAD DUP3 ISZERO PUSH2 0x384 JUMPI DUP2 ISZERO PUSH2 0x34D JUMPI DUP1 ISZERO PUSH2 0x312 JUMPI CALLVALUE ISZERO PUSH2 0x2DB JUMPI PUSH0 SLOAD SWAP4 PUSH0 NOT DUP6 EQ PUSH2 0x2C8 JUMPI POP DUP4 PUSH1 0x8 PUSH1 0x20 SWAP7 PUSH1 0x1 DUP4 ADD PUSH0 SSTORE PUSH1 0x40 MLOAD SWAP1 PUSH2 0x1DD DUP3 PUSH2 0x127D JUMP JUMPDEST CALLER DUP3 MSTORE DUP9 DUP3 ADD DUP8 DUP2 MSTORE PUSH1 0x40 DUP4 ADD DUP8 DUP2 MSTORE PUSH1 0x60 DUP5 ADD DUP8 DUP2 MSTORE PUSH1 0x80 DUP6 ADD SWAP1 CALLVALUE DUP3 MSTORE PUSH1 0xA0 DUP7 ADD SWAP3 PUSH0 DUP5 MSTORE PUSH1 0xC0 DUP8 ADD SWAP5 TIMESTAMP DUP7 MSTORE PUSH1 0xE0 DUP9 ADD SWAP7 TIMESTAMP DUP9 MSTORE PUSH2 0x100 DUP10 ADD SWAP11 PUSH1 0x1 DUP13 MSTORE PUSH0 MSTORE DUP16 PUSH1 0x1 SWAP1 MSTORE DUP1 PUSH1 0x40 PUSH0 KECCAK256 SWAP10 MLOAD AND SWAP1 PUSH12 0xFFFFFFFFFFFFFFFFFFFFFFFF PUSH1 0xA0 SHL SWAP2 DUP3 DUP12 SLOAD AND OR DUP11 SSTORE PUSH1 0x1 DUP11 ADD SWAP3 MLOAD AND SWAP1 DUP3 SLOAD AND OR SWAP1 SSTORE MLOAD PUSH1 0x2 DUP8 ADD SSTORE MLOAD PUSH1 0x3 DUP7 ADD SSTORE MLOAD PUSH1 0x4 DUP6 ADD SSTORE MLOAD PUSH1 0x5 DUP5 ADD SSTORE MLOAD PUSH1 0x6 DUP4 ADD SSTORE MLOAD PUSH1 0x7 DUP3 ADD SSTORE ADD SWAP1 MLOAD ISZERO ISZERO PUSH1 0xFF DUP1 NOT DUP4 SLOAD AND SWAP2 AND OR SWAP1 SSTORE PUSH1 0x40 MLOAD SWAP2 DUP3 MSTORE DUP5 DUP3 ADD MSTORE CALLVALUE PUSH1 0x40 DUP3 ADD MSTORE DUP3 PUSH32 0x8D3A4D9A98C71920C13665FB97F1A612978391E661F9A17FA5390F60E7424D5C PUSH1 0x60 CALLER SWAP4 LOG4 PUSH1 0x40 MLOAD SWAP1 DUP2 MSTORE RETURN JUMPDEST PUSH4 0x4E487B71 PUSH1 0xE0 SHL PUSH0 SWAP1 DUP2 MSTORE PUSH1 0x11 PUSH1 0x4 MSTORE REVERT JUMPDEST PUSH1 0x40 MLOAD PUSH3 0x461BCD PUSH1 0xE5 SHL DUP2 MSTORE PUSH1 0x20 PUSH1 0x4 DUP3 ADD MSTORE PUSH1 0x10 DUP2 DUP7 ADD MSTORE PUSH16 0x26BAB9BA103232B837B9B4BA10232629 PUSH1 0x81 SHL PUSH1 0x44 DUP3 ADD MSTORE PUSH1 0x64 SWAP1 REVERT JUMPDEST PUSH1 0x40 MLOAD PUSH3 0x461BCD PUSH1 0xE5 SHL DUP2 MSTORE PUSH1 0x20 PUSH1 0x4 DUP3 ADD MSTORE PUSH1 0x14 DUP2 DUP7 ADD MSTORE PUSH20 0x496E74657276616C206D757374206265203E203 PUSH1 0x64 SHL PUSH1 0x44 DUP3 ADD MSTORE PUSH1 0x64 SWAP1 REVERT JUMPDEST PUSH1 0x40 MLOAD PUSH3 0x461BCD PUSH1 0xE5 SHL DUP2 MSTORE PUSH1 0x20 PUSH1 0x4 DUP3 ADD MSTORE PUSH1 0x10 DUP2 DUP7 ADD MSTORE PUSH16 0x52617465206D757374206265203E203 PUSH1 0x84 SHL PUSH1 0x44 DUP3 ADD MSTORE PUSH1 0x64 SWAP1 REVERT JUMPDEST PUSH1 0x40 MLOAD PUSH3 0x461BCD PUSH1 0xE5 SHL DUP2 MSTORE PUSH1 0x20 PUSH1 0x4 DUP3 ADD MSTORE PUSH1 0xE DUP2 DUP7 ADD MSTORE PUSH14 0x24B73B30B634B2103BB7B935B2B9 PUSH1 0x91 SHL PUSH1 0x44 DUP3 ADD MSTORE PUSH1 0x64 SWAP1 REVERT JUMPDEST CALLVALUE PUSH2 0x172 JUMPI PUSH1 0x40 CALLDATASIZE PUSH1 0x3 NOT ADD SLT PUSH2 0x172 JUMPI PUSH1 0x4 CALLDATALOAD PUSH1 0x24 SWAP1 DUP2 CALLDATALOAD SWAP1 DUP1 PUSH0 MSTORE PUSH1 0x20 SWAP2 PUSH1 0x1 DUP4 MSTORE PUSH1 0x40 PUSH0 KECCAK256 SWAP3 PUSH1 0x8 DUP5 ADD SWAP4 PUSH2 0x3F4 PUSH1 0xFF DUP7 SLOAD AND PUSH2 0x1318 JUMP JUMPDEST PUSH1 0x1 DUP2 ADD SWAP3 PUSH1 0x1 DUP1 PUSH1 0xA0 SHL SUB SWAP3 DUP4 DUP6 SLOAD AND CALLER EQ DUP1 ISZERO PUSH2 0x72F JUMPI JUMPDEST ISZERO PUSH2 0x6FB JUMPI PUSH1 0x6 DUP4 ADD SWAP4 PUSH2 0x433 PUSH2 0x42B DUP7 SLOAD PUSH1 0x3 DUP8 ADD SLOAD SWAP1 PUSH2 0x13A3 JUMP JUMPDEST TIMESTAMP LT ISZERO PUSH2 0x13B0 JUMP JUMPDEST DUP3 ISZERO PUSH2 0x6C9 JUMPI DUP1 PUSH2 0x442 PUSH2 0x1651 JUMP JUMPDEST PUSH1 0x40 MLOAD PUSH3 0xF5741 PUSH1 0xE4 SHL DUP2 MSTORE PUSH7 0x5193148BD554D1 PUSH1 0xC2 SHL PUSH1 0x4 DUP3 ADD DUP2 SWAP1 MSTORE SWAP9 SWAP3 SWAP1 SWAP2 AND SWAP1 DUP5 DUP2 DUP14 DUP2 DUP6 GAS STATICCALL SWAP5 DUP6 ISZERO PUSH2 0x167 JUMPI PUSH0 SWAP6 PUSH2 0x699 JUMPI JUMPDEST POP POP PUSH1 0x40 MLOAD SWAP8 PUSH4 0x49F4FC03 PUSH1 0xE1 SHL DUP10 MSTORE PUSH1 0x4 DUP10 ADD MSTORE DUP8 DUP12 DUP2 PUSH1 0x60 SWAP7 DUP8 SWAP5 GAS CALL SWAP9 DUP10 ISZERO PUSH2 0x167 JUMPI PUSH2 0x4D2 SWAP10 PUSH0 SWAP9 PUSH0 SWAP2 PUSH2 0x66D JUMPI JUMPDEST POP DUP9 PUSH2 0x4D8 PUSH2 0x4DD SWAP3 PUSH2 0x4C2 DUP4 ISZERO ISZERO PUSH2 0x148B JUMP JUMPDEST PUSH1 0x2 DUP11 ADD SWAP14 DUP15 SLOAD SWAP2 PUSH1 0xFF AND PUSH2 0x14D0 JUMP JUMPDEST SWAP1 PUSH2 0x14E1 JUMP JUMPDEST PUSH2 0x14F4 JUMP JUMPDEST SWAP6 PUSH1 0x4 DUP6 DUP6 PUSH2 0x4EA PUSH2 0x15AD JUMP JUMPDEST AND PUSH1 0x40 MLOAD SWAP3 DUP4 DUP1 SWAP3 PUSH4 0xDBDFF2C1 PUSH1 0xE0 SHL DUP3 MSTORE GAS STATICCALL SWAP1 DUP2 ISZERO PUSH2 0x167 JUMPI PUSH0 SWAP7 PUSH0 SWAP3 PUSH2 0x637 JUMPI JUMPDEST POP POP PUSH0 SWAP6 DUP2 PUSH2 0x62B JUMPI JUMPDEST POP PUSH2 0x5F4 JUMPI JUMPDEST PUSH32 0xC19610F89E56B6EECF2EA73C5F596EBC3AE5F3D02739AA531CDE2FB4DACBBB73 SWAP10 SWAP11 SWAP12 POP PUSH1 0x5 PUSH1 0x4 DUP3 ADD SLOAD SWAP2 ADD DUP1 SLOAD SWAP9 PUSH2 0x559 DUP11 DUP5 PUSH2 0x1358 JUMP JUMPDEST DUP1 DUP11 GT PUSH2 0x5EA JUMPI JUMPDEST POP PUSH2 0x57B DUP10 DUP1 SWAP12 PUSH2 0x576 PUSH2 0x5D7 SWAP13 ISZERO ISZERO PUSH2 0x1512 JUMP JUMPDEST PUSH2 0x13A3 JUMP JUMPDEST DUP1 SWAP3 SSTORE TIMESTAMP SWAP1 SSTORE LT ISZERO PUSH2 0x5DC JUMPI JUMPDEST POP PUSH2 0x5A5 PUSH0 DUP1 DUP1 DUP1 DUP11 DUP8 DUP8 SLOAD AND GAS CALL PUSH2 0x59F PUSH2 0x1365 JUMP JUMPDEST POP PUSH2 0x1550 JUMP JUMPDEST SLOAD AND SWAP8 SLOAD SWAP5 PUSH1 0x40 MLOAD SWAP6 DUP7 SWAP6 DUP7 SWAP2 SWAP3 PUSH1 0x80 SWAP4 SWAP7 SWAP6 SWAP5 SWAP2 SWAP7 PUSH1 0xA0 DUP5 ADD SWAP8 DUP5 MSTORE PUSH1 0x20 DUP5 ADD MSTORE PUSH1 0x40 DUP4 ADD MSTORE ISZERO ISZERO PUSH1 0x60 DUP3 ADD MSTORE ADD MSTORE JUMP JUMPDEST SUB SWAP1 LOG3 STOP JUMPDEST DUP1 SLOAD PUSH1 0xFF NOT AND SWAP1 SSTORE DUP11 PUSH2 0x588 JUMP JUMPDEST SWAP9 POP PUSH2 0x57B PUSH2 0x561 JUMP JUMPDEST SWAP4 POP SWAP5 DUP1 PUSH1 0x1 SHL SWAP1 DUP1 DUP3 DIV PUSH1 0x2 EQ SWAP1 ISZERO OR ISZERO PUSH2 0x618 JUMPI SWAP9 SWAP10 POP DUP10 SWAP9 SWAP5 PUSH1 0x1 SWAP4 PUSH2 0x51E JUMP JUMPDEST DUP11 PUSH4 0x4E487B71 PUSH1 0xE0 SHL PUSH0 MSTORE PUSH1 0x11 PUSH1 0x4 MSTORE PUSH0 REVERT JUMPDEST PUSH1 0xA SWAP2 POP MOD ISZERO DUP14 PUSH2 0x518 JUMP JUMPDEST PUSH2 0x65B SWAP4 SWAP8 POP DUP1 SWAP2 SWAP3 POP SWAP1 RETURNDATASIZE LT PUSH2 0x666 JUMPI JUMPDEST PUSH2 0x653 DUP2 DUP4 PUSH2 0x12C8 JUMP JUMPDEST DUP2 ADD SWAP1 PUSH2 0x12F6 JUMP JUMPDEST POP SWAP5 SWAP1 SWAP5 DUP14 DUP1 PUSH2 0x50E JUMP JUMPDEST POP RETURNDATASIZE PUSH2 0x649 JUMP JUMPDEST PUSH2 0x4D8 SWAP10 POP PUSH2 0x4DD SWAP2 POP PUSH2 0x68D SWAP1 DUP7 RETURNDATASIZE DUP9 GT PUSH2 0x160 JUMPI PUSH2 0x14D DUP2 DUP4 PUSH2 0x12C8 JUMP JUMPDEST POP SWAP1 SWAP10 POP SWAP1 POP DUP9 PUSH2 0x4AE JUMP JUMPDEST SWAP1 DUP1 SWAP3 SWAP6 POP DUP2 RETURNDATASIZE DUP4 GT PUSH2 0x6C2 JUMPI JUMPDEST PUSH2 0x6B1 DUP2 DUP4 PUSH2 0x12C8 JUMP JUMPDEST DUP2 ADD SUB SLT PUSH2 0x172 JUMPI MLOAD SWAP3 DUP12 DUP1 PUSH2 0x47B JUMP JUMPDEST POP RETURNDATASIZE PUSH2 0x6A7 JUMP JUMPDEST PUSH1 0x40 MLOAD PUSH3 0x461BCD PUSH1 0xE5 SHL DUP2 MSTORE PUSH1 0x4 DUP2 ADD DUP4 SWAP1 MSTORE PUSH1 0xB DUP2 DUP12 ADD MSTORE PUSH11 0x4E6F206163746976697479 PUSH1 0xA8 SHL PUSH1 0x44 DUP3 ADD MSTORE PUSH1 0x64 SWAP1 REVERT JUMPDEST PUSH1 0x64 SWAP1 PUSH1 0xE DUP10 PUSH1 0x40 MLOAD SWAP3 PUSH3 0x461BCD PUSH1 0xE5 SHL DUP5 MSTORE PUSH1 0x4 DUP5 ADD MSTORE DUP3 ADD MSTORE PUSH14 0x139BDD08185D5D1A1BDC9A5E9959 PUSH1 0x92 SHL PUSH1 0x44 DUP3 ADD MSTORE REVERT JUMPDEST POP DUP4 DUP4 SLOAD AND CALLER EQ PUSH2 0x40E JUMP JUMPDEST CALLVALUE PUSH2 0x172 JUMPI PUSH1 0x3 NOT PUSH1 0x40 CALLDATASIZE DUP3 ADD SLT PUSH2 0x172 JUMPI PUSH1 0x1 PUSH1 0x1 PUSH1 0x40 SHL SUB PUSH1 0x24 CALLDATALOAD GT PUSH2 0x172 JUMPI PUSH1 0x40 SWAP1 PUSH1 0x24 CALLDATALOAD CALLDATASIZE SUB ADD SLT PUSH2 0x172 JUMPI PUSH1 0x4 CALLDATALOAD PUSH0 MSTORE PUSH1 0x1 PUSH1 0x20 MSTORE PUSH1 0x40 PUSH0 KECCAK256 PUSH2 0x789 PUSH1 0xFF PUSH1 0x8 DUP4 ADD SLOAD AND PUSH2 0x1318 JUMP JUMPDEST PUSH1 0x1 DUP2 ADD SLOAD PUSH1 0x1 PUSH1 0x1 PUSH1 0xA0 SHL SUB AND CALLER SUB PUSH2 0xE61 JUMPI PUSH1 0x6 DUP2 ADD PUSH2 0x7B4 PUSH2 0x42B DUP3 SLOAD PUSH1 0x3 DUP6 ADD SLOAD SWAP1 PUSH2 0x13A3 JUMP JUMPDEST PUSH1 0x40 MLOAD PUSH1 0x20 DUP2 ADD SWAP1 PUSH1 0x20 DUP3 MSTORE PUSH1 0xF PUSH1 0x40 DUP3 ADD MSTORE PUSH15 0x233231AB32B934B334B1B0BA34B7B7 PUSH1 0x89 SHL PUSH1 0x60 DUP3 ADD MSTORE PUSH1 0x60 DUP2 MSTORE PUSH2 0x7EC DUP2 PUSH2 0x12AD JUMP JUMPDEST MLOAD SWAP1 KECCAK256 PUSH1 0x40 MLOAD SWAP1 PUSH4 0xAC9AA51 PUSH1 0xE1 SHL DUP3 MSTORE PUSH1 0x4 DUP3 ADD MSTORE PUSH1 0x20 DUP2 PUSH1 0x24 DUP2 PUSH20 0xAD67FE66660FB8DFE9D6B1B4240D8650E30F6019 GAS STATICCALL SWAP1 DUP2 ISZERO PUSH2 0x167 JUMPI PUSH0 SWAP2 PUSH2 0xE32 JUMPI JUMPDEST POP PUSH1 0x40 MLOAD PUSH4 0xAA05FE3 PUSH1 0xE0 SHL DUP2 MSTORE PUSH1 0x20 PUSH1 0x4 DUP3 ADD MSTORE PUSH1 0x24 CALLDATALOAD PUSH1 0x4 ADD CALLDATALOAD PUSH1 0x22 NOT PUSH1 0x24 CALLDATALOAD CALLDATASIZE SUB ADD DUP2 SLT ISZERO PUSH2 0x172 JUMPI PUSH1 0x24 CALLDATALOAD ADD PUSH1 0x24 DUP2 ADD PUSH1 0x1 PUSH1 0x1 PUSH1 0x40 SHL SUB PUSH1 0x4 DUP4 ADD CALLDATALOAD GT PUSH2 0x172 JUMPI PUSH1 0x4 DUP3 ADD CALLDATALOAD PUSH1 0x5 SHL SWAP2 DUP3 CALLDATASIZE SUB DUP3 SGT PUSH2 0x172 JUMPI PUSH1 0x40 PUSH1 0x24 DUP6 ADD MSTORE PUSH1 0x4 ADD CALLDATALOAD PUSH1 0x64 DUP5 ADD DUP2 SWAP1 MSTORE PUSH1 0x1 PUSH1 0x1 PUSH1 0xFB SHL SUB LT PUSH2 0x172 JUMPI DUP2 SWAP1 PUSH1 0x84 DUP5 ADD CALLDATACOPY DUP2 ADD PUSH1 0x24 DUP1 CALLDATALOAD ADD CALLDATALOAD SWAP3 PUSH1 0xC2 NOT PUSH1 0x24 CALLDATALOAD CALLDATASIZE SUB ADD DUP5 SLT ISZERO PUSH2 0x172 JUMPI PUSH1 0x24 CALLDATALOAD DUP5 ADD SWAP1 PUSH1 0x60 DUP5 DUP5 SUB ADD PUSH1 0x44 DUP6 ADD MSTORE PUSH1 0x4 DUP3 ADD CALLDATALOAD PUSH1 0x84 DUP5 ADD MSTORE PUSH1 0x24 DUP3 ADD CALLDATALOAD PUSH1 0xA4 DUP5 ADD MSTORE PUSH1 0x1 PUSH1 0x1 PUSH1 0x40 SHL SUB PUSH2 0x8FD PUSH1 0x44 DUP5 ADD PUSH2 0x13F1 JUMP JUMPDEST AND PUSH1 0xC4 DUP5 ADD MSTORE PUSH1 0x1 PUSH1 0x1 PUSH1 0x40 SHL SUB PUSH2 0x917 PUSH1 0x64 DUP5 ADD PUSH2 0x13F1 JUMP JUMPDEST AND PUSH1 0xE4 DUP5 ADD MSTORE CALLDATASIZE DUP3 SWAP1 SUB PUSH1 0x84 DUP4 ADD CALLDATALOAD PUSH1 0xE2 NOT DUP3 ADD DUP2 SLT ISZERO PUSH2 0x172 JUMPI DUP4 PUSH2 0xA30 SWAP2 ADD PUSH1 0x4 DUP2 ADD PUSH1 0xC0 PUSH2 0x104 DUP9 ADD MSTORE PUSH2 0xA20 PUSH2 0x967 PUSH2 0x954 DUP4 DUP1 PUSH2 0x1405 JUMP JUMPDEST PUSH1 0xE0 PUSH2 0x144 DUP13 ADD MSTORE PUSH2 0x224 DUP12 ADD SWAP2 PUSH2 0x1436 JUMP JUMPDEST SWAP2 PUSH1 0xC4 PUSH2 0xA18 PUSH2 0x9FA PUSH2 0x9DB PUSH2 0x9BC DUP14 PUSH2 0x99D PUSH2 0x987 PUSH1 0x24 DUP13 ADD DUP10 PUSH2 0x1405 JUMP JUMPDEST PUSH2 0x143 NOT DUP5 DUP14 SUB DUP2 ADD PUSH2 0x164 DUP7 ADD MSTORE SWAP12 SWAP2 PUSH2 0x1436 JUMP JUMPDEST SWAP1 PUSH2 0x9AB PUSH1 0x44 DUP13 ADD DUP10 PUSH2 0x1405 JUMP JUMPDEST SWAP2 PUSH2 0x184 DUP13 DUP3 DUP7 SUB ADD SWAP2 ADD MSTORE PUSH2 0x1436 JUMP JUMPDEST DUP14 PUSH2 0x9CA PUSH1 0x64 DUP12 ADD DUP9 PUSH2 0x1405 JUMP JUMPDEST SWAP2 PUSH2 0x1A4 DUP12 DUP3 DUP7 SUB ADD SWAP2 ADD MSTORE PUSH2 0x1436 JUMP JUMPDEST DUP13 PUSH2 0x9E9 PUSH1 0x84 DUP11 ADD DUP8 PUSH2 0x1405 JUMP JUMPDEST SWAP2 PUSH2 0x1C4 DUP11 DUP3 DUP7 SUB ADD SWAP2 ADD MSTORE PUSH2 0x1436 JUMP JUMPDEST PUSH2 0xA07 PUSH1 0xA4 DUP9 ADD DUP6 PUSH2 0x1405 JUMP JUMPDEST DUP14 DUP4 SUB DUP9 ADD PUSH2 0x1E4 DUP16 ADD MSTORE SWAP1 PUSH2 0x1436 JUMP JUMPDEST SWAP5 ADD SWAP1 PUSH2 0x1405 JUMP JUMPDEST SWAP2 DUP9 DUP5 SUB ADD PUSH2 0x204 DUP10 ADD MSTORE PUSH2 0x1436 JUMP JUMPDEST SWAP3 PUSH1 0xA4 DUP2 ADD CALLDATALOAD SWAP2 PUSH1 0x22 NOT ADD DUP3 SLT ISZERO PUSH2 0x172 JUMPI PUSH2 0xA78 DUP7 SWAP5 PUSH1 0x20 PUSH2 0xA6B DUP2 SWAP9 PUSH1 0x4 DUP10 SWAP8 SWAP7 DUP9 SWAP8 ADD ADD SWAP1 PUSH2 0x124 PUSH1 0x83 NOT DUP3 DUP8 SUB ADD SWAP2 ADD MSTORE DUP1 PUSH2 0x1405 JUMP JUMPDEST SWAP2 SWAP1 SWAP3 DUP2 DUP2 MSTORE ADD SWAP2 PUSH2 0x1436 JUMP JUMPDEST SUB SWAP2 PUSH1 0x1 PUSH1 0x1 PUSH1 0xA0 SHL SUB AND GAS STATICCALL SWAP1 DUP2 ISZERO PUSH2 0x167 JUMPI PUSH0 SWAP2 PUSH2 0xDF8 JUMPI JUMPDEST POP ISZERO PUSH2 0xDBF JUMPI PUSH1 0x24 CALLDATALOAD ADD PUSH1 0xA4 DUP2 ADD CALLDATALOAD SWAP1 PUSH1 0x22 NOT DUP2 CALLDATASIZE SUB ADD DUP3 SLT ISZERO PUSH2 0x172 JUMPI ADD PUSH1 0x4 DUP2 ADD CALLDATALOAD SWAP1 PUSH1 0x22 NOT DUP2 CALLDATASIZE SUB ADD DUP3 SLT ISZERO PUSH2 0x172 JUMPI ADD PUSH1 0x4 DUP2 ADD CALLDATALOAD PUSH1 0x1 PUSH1 0x1 PUSH1 0x40 SHL SUB DUP2 GT PUSH2 0x172 JUMPI PUSH1 0x24 DUP3 ADD SWAP2 DUP2 CALLDATASIZE SUB DUP4 SGT PUSH2 0x172 JUMPI PUSH1 0x20 SWAP2 DUP2 ADD SUB SLT PUSH2 0x172 JUMPI CALLDATALOAD SWAP2 DUP3 ISZERO PUSH2 0xD83 JUMPI PUSH1 0x1 PUSH1 0x1 PUSH1 0xA0 SHL SUB PUSH2 0xB0B PUSH2 0x1651 JUMP JUMPDEST PUSH1 0x40 MLOAD PUSH3 0xF5741 PUSH1 0xE4 SHL DUP2 MSTORE PUSH7 0x5193148BD554D1 PUSH1 0xC2 SHL PUSH1 0x4 DUP3 ADD DUP2 SWAP1 MSTORE SWAP3 SWAP1 SWAP2 AND PUSH1 0x20 DUP3 PUSH1 0x24 DUP2 DUP5 GAS STATICCALL SWAP2 DUP3 ISZERO PUSH2 0x167 JUMPI PUSH0 SWAP3 PUSH2 0xD4E JUMPI JUMPDEST POP PUSH1 0x24 PUSH1 0x60 SWAP3 SWAP4 PUSH1 0x40 MLOAD SWAP5 DUP6 SWAP4 DUP5 SWAP3 PUSH4 0x49F4FC03 PUSH1 0xE1 SHL DUP5 MSTORE PUSH1 0x4 DUP5 ADD MSTORE GAS CALL SWAP4 DUP5 ISZERO PUSH2 0x167 JUMPI PUSH0 SWAP2 PUSH0 SWAP6 PUSH2 0xD27 JUMPI JUMPDEST POP PUSH1 0x4 SWAP1 PUSH2 0xB83 DUP4 ISZERO ISZERO PUSH2 0x148B JUMP JUMPDEST PUSH2 0xB9D DUP4 PUSH2 0x4D8 PUSH1 0x2 DUP8 ADD SWAP9 PUSH2 0x4D2 DUP11 SLOAD SWAP2 PUSH1 0xFF AND PUSH2 0x14D0 JUMP JUMPDEST SWAP4 PUSH1 0x60 PUSH1 0x1 PUSH1 0x1 PUSH1 0xA0 SHL SUB PUSH2 0xBB0 PUSH2 0x15AD JUMP JUMPDEST AND PUSH1 0x40 MLOAD SWAP5 DUP6 DUP1 SWAP3 PUSH4 0xDBDFF2C1 PUSH1 0xE0 SHL DUP3 MSTORE GAS STATICCALL DUP1 ISZERO PUSH2 0x167 JUMPI PUSH0 SWAP4 PUSH0 SWAP2 PUSH2 0xD01 JUMPI JUMPDEST POP PUSH0 SWAP4 DUP2 PUSH2 0xCF5 JUMPI JUMPDEST POP PUSH2 0xCC2 JUMPI JUMPDEST PUSH1 0x4 DUP2 ADD SLOAD PUSH1 0x5 DUP3 ADD DUP1 SLOAD SWAP8 PUSH2 0xBF8 DUP10 DUP5 PUSH2 0x1358 JUMP JUMPDEST DUP1 DUP10 GT PUSH2 0xCB8 JUMPI JUMPDEST POP SWAP1 PUSH2 0x5D7 SWAP5 SWAP4 SWAP3 SWAP2 PUSH2 0xC3B DUP10 DUP1 SWAP12 PUSH2 0x576 PUSH32 0xC19610F89E56B6EECF2EA73C5F596EBC3AE5F3D02739AA531CDE2FB4DACBBB73 SWAP13 ISZERO ISZERO PUSH2 0x1512 JUMP JUMPDEST DUP1 SWAP3 SSTORE TIMESTAMP SWAP1 SSTORE LT ISZERO PUSH2 0xCA7 JUMPI JUMPDEST PUSH2 0xC67 PUSH0 DUP1 DUP1 DUP1 DUP12 PUSH1 0x1 DUP1 PUSH1 0xA0 SHL SUB PUSH1 0x1 DUP9 ADD SLOAD AND GAS CALL PUSH2 0x59F PUSH2 0x1365 JUMP JUMPDEST PUSH1 0x1 DUP1 DUP1 PUSH1 0xA0 SHL SUB SWAP2 ADD SLOAD AND SWAP7 SLOAD SWAP3 PUSH1 0x40 MLOAD SWAP5 DUP6 SWAP5 PUSH1 0x4 CALLDATALOAD SWAP9 DUP7 SWAP2 SWAP3 PUSH1 0x80 SWAP4 SWAP7 SWAP6 SWAP5 SWAP2 SWAP7 PUSH1 0xA0 DUP5 ADD SWAP8 DUP5 MSTORE PUSH1 0x20 DUP5 ADD MSTORE PUSH1 0x40 DUP4 ADD MSTORE ISZERO ISZERO PUSH1 0x60 DUP3 ADD MSTORE ADD MSTORE JUMP JUMPDEST PUSH1 0x8 DUP2 ADD DUP1 SLOAD PUSH1 0xFF NOT AND SWAP1 SSTORE PUSH2 0xC48 JUMP JUMPDEST SWAP8 POP PUSH2 0x5D7 PUSH2 0xC00 JUMP JUMPDEST SWAP2 POP SWAP3 DUP1 PUSH1 0x1 SHL SWAP1 DUP1 DUP3 DIV PUSH1 0x2 EQ SWAP1 ISZERO OR ISZERO PUSH2 0xCE1 JUMPI SWAP3 PUSH1 0x1 SWAP2 PUSH2 0xBE2 JUMP JUMPDEST PUSH4 0x4E487B71 PUSH1 0xE0 SHL PUSH0 MSTORE PUSH1 0x11 PUSH1 0x4 MSTORE PUSH1 0x24 PUSH0 REVERT JUMPDEST PUSH1 0xA SWAP2 POP MOD ISZERO DUP9 PUSH2 0xBDC JUMP JUMPDEST SWAP1 POP PUSH2 0xD1D SWAP2 SWAP4 POP PUSH1 0x60 RETURNDATASIZE PUSH1 0x60 GT PUSH2 0x666 JUMPI PUSH2 0x653 DUP2 DUP4 PUSH2 0x12C8 JUMP JUMPDEST POP SWAP3 SWAP1 SWAP3 DUP9 PUSH2 0xBD3 JUMP JUMPDEST PUSH2 0xD45 SWAP2 SWAP6 POP PUSH1 0x4 SWAP3 POP PUSH1 0x60 RETURNDATASIZE PUSH1 0x60 GT PUSH2 0x160 JUMPI PUSH2 0x14D DUP2 DUP4 PUSH2 0x12C8 JUMP JUMPDEST POP SWAP5 SWAP1 SWAP2 PUSH2 0xB74 JUMP JUMPDEST SWAP2 POP PUSH1 0x20 DUP3 RETURNDATASIZE PUSH1 0x20 GT PUSH2 0xD7B JUMPI JUMPDEST DUP2 PUSH2 0xD69 PUSH1 0x20 SWAP4 DUP4 PUSH2 0x12C8 JUMP JUMPDEST DUP2 ADD SUB SLT PUSH2 0x172 JUMPI SWAP1 MLOAD SWAP1 PUSH1 0x24 PUSH2 0xB44 JUMP JUMPDEST RETURNDATASIZE SWAP2 POP PUSH2 0xD5C JUMP JUMPDEST PUSH1 0x40 MLOAD PUSH3 0x461BCD PUSH1 0xE5 SHL DUP2 MSTORE PUSH1 0x20 PUSH1 0x4 DUP3 ADD MSTORE PUSH1 0x14 PUSH1 0x24 DUP3 ADD MSTORE PUSH20 0x4E6F207665726966696564206163746976697479 PUSH1 0x60 SHL PUSH1 0x44 DUP3 ADD MSTORE PUSH1 0x64 SWAP1 REVERT JUMPDEST PUSH1 0x40 MLOAD PUSH3 0x461BCD PUSH1 0xE5 SHL DUP2 MSTORE PUSH1 0x20 PUSH1 0x4 DUP3 ADD MSTORE PUSH1 0x11 PUSH1 0x24 DUP3 ADD MSTORE PUSH17 0x24B73B30B634B21023222190383937B7B3 PUSH1 0x79 SHL PUSH1 0x44 DUP3 ADD MSTORE PUSH1 0x64 SWAP1 REVERT JUMPDEST SWAP1 POP PUSH1 0x20 DUP2 RETURNDATASIZE PUSH1 0x20 GT PUSH2 0xE2A JUMPI JUMPDEST DUP2 PUSH2 0xE13 PUSH1 0x20 SWAP4 DUP4 PUSH2 0x12C8 JUMP JUMPDEST DUP2 ADD SUB SLT PUSH2 0x172 JUMPI PUSH2 0xE24 SWAP1 PUSH2 0x12E9 JUMP JUMPDEST DUP5 PUSH2 0xA93 JUMP JUMPDEST RETURNDATASIZE SWAP2 POP PUSH2 0xE06 JUMP JUMPDEST PUSH2 0xE54 SWAP2 POP PUSH1 0x20 RETURNDATASIZE PUSH1 0x20 GT PUSH2 0xE5A JUMPI JUMPDEST PUSH2 0xE4C DUP2 DUP4 PUSH2 0x12C8 JUMP JUMPDEST DUP2 ADD SWAP1 PUSH2 0x158E JUMP JUMPDEST DUP4 PUSH2 0x82D JUMP JUMPDEST POP RETURNDATASIZE PUSH2 0xE42 JUMP JUMPDEST PUSH1 0x40 MLOAD PUSH3 0x461BCD PUSH1 0xE5 SHL DUP2 MSTORE PUSH1 0x20 PUSH1 0x4 DUP3 ADD MSTORE PUSH1 0xE PUSH1 0x24 DUP3 ADD MSTORE PUSH14 0x2737BA103A3432903BB7B935B2B9 PUSH1 0x91 SHL PUSH1 0x44 DUP3 ADD MSTORE PUSH1 0x64 SWAP1 REVERT JUMPDEST CALLVALUE PUSH2 0x172 JUMPI PUSH0 CALLDATASIZE PUSH1 0x3 NOT ADD SLT PUSH2 0x172 JUMPI PUSH1 0x20 PUSH1 0x40 MLOAD PUSH1 0x2 DUP2 MSTORE RETURN JUMPDEST CALLVALUE PUSH2 0x172 JUMPI PUSH1 0x20 CALLDATASIZE PUSH1 0x3 NOT ADD SLT PUSH2 0x172 JUMPI PUSH2 0x120 PUSH1 0x40 MLOAD PUSH2 0xED2 DUP2 PUSH2 0x127D JUMP JUMPDEST PUSH0 DUP2 MSTORE PUSH0 PUSH1 0x20 DUP3 ADD MSTORE PUSH0 PUSH1 0x40 DUP3 ADD MSTORE PUSH0 PUSH1 0x60 DUP3 ADD MSTORE PUSH0 PUSH1 0x80 DUP3 ADD MSTORE PUSH0 PUSH1 0xA0 DUP3 ADD MSTORE PUSH0 PUSH1 0xC0 DUP3 ADD MSTORE PUSH0 PUSH1 0xE0 DUP3 ADD MSTORE PUSH0 PUSH2 0x100 DUP1 SWAP3 ADD MSTORE PUSH1 0x4 CALLDATALOAD PUSH0 MSTORE PUSH1 0x1 PUSH1 0x20 MSTORE PUSH1 0x40 PUSH0 KECCAK256 SWAP1 PUSH1 0x40 MLOAD PUSH2 0xF22 DUP2 PUSH2 0x127D JUMP JUMPDEST PUSH1 0x1 DUP1 PUSH1 0xA0 SHL SUB SWAP3 DUP4 DUP2 SLOAD AND SWAP4 DUP5 DUP4 MSTORE DUP1 PUSH1 0x1 DUP4 ADD SLOAD AND SWAP1 PUSH1 0x20 DUP5 ADD SWAP2 DUP3 MSTORE PUSH1 0x2 DUP4 ADD SLOAD PUSH1 0x40 DUP6 ADD SWAP1 DUP2 MSTORE PUSH1 0x3 DUP5 ADD SLOAD PUSH1 0x60 DUP7 ADD SWAP1 DUP2 MSTORE PUSH1 0x4 DUP6 ADD SLOAD SWAP2 PUSH1 0x80 DUP8 ADD SWAP3 DUP4 MSTORE PUSH1 0x5 DUP7 ADD SLOAD SWAP4 PUSH1 0xA0 DUP9 ADD SWAP5 DUP6 MSTORE PUSH1 0x6 DUP8 ADD SLOAD SWAP6 PUSH1 0xC0 DUP10 ADD SWAP7 DUP8 MSTORE DUP10 PUSH1 0xFF PUSH1 0x8 PUSH1 0x7 DUP12 ADD SLOAD SWAP11 PUSH1 0xE0 DUP14 ADD SWAP12 DUP13 MSTORE ADD SLOAD AND SWAP10 ADD SWAP9 ISZERO ISZERO DUP10 MSTORE PUSH1 0x40 MLOAD SWAP11 DUP12 MSTORE MLOAD AND PUSH1 0x20 DUP11 ADD MSTORE MLOAD PUSH1 0x40 DUP10 ADD MSTORE MLOAD PUSH1 0x60 DUP9 ADD MSTORE MLOAD PUSH1 0x80 DUP8 ADD MSTORE MLOAD PUSH1 0xA0 DUP7 ADD MSTORE MLOAD PUSH1 0xC0 DUP6 ADD MSTORE MLOAD PUSH1 0xE0 DUP5 ADD MSTORE MLOAD ISZERO ISZERO SWAP1 DUP3 ADD MSTORE RETURN JUMPDEST CALLVALUE PUSH2 0x172 JUMPI PUSH0 CALLDATASIZE PUSH1 0x3 NOT ADD SLT PUSH2 0x172 JUMPI PUSH1 0x40 MLOAD PUSH7 0x5193148BD554D1 PUSH1 0xC2 SHL DUP2 MSTORE PUSH1 0x20 SWAP1 RETURN JUMPDEST CALLVALUE PUSH2 0x172 JUMPI PUSH1 0x20 CALLDATASIZE PUSH1 0x3 NOT ADD SLT PUSH2 0x172 JUMPI PUSH1 0x4 CALLDATALOAD PUSH0 MSTORE PUSH1 0x1 PUSH1 0x20 MSTORE PUSH2 0x120 PUSH1 0x40 PUSH0 KECCAK256 PUSH1 0x1 DUP1 PUSH1 0xA0 SHL SUB SWAP1 DUP2 DUP2 SLOAD AND SWAP2 PUSH1 0x1 DUP3 ADD SLOAD AND SWAP1 PUSH1 0x2 DUP2 ADD SLOAD PUSH1 0x3 DUP3 ADD SLOAD PUSH1 0x4 DUP4 ADD SLOAD PUSH1 0x5 DUP5 ADD SLOAD SWAP2 PUSH1 0x6 DUP6 ADD SLOAD SWAP4 PUSH1 0xFF PUSH1 0x8 PUSH1 0x7 DUP9 ADD SLOAD SWAP8 ADD SLOAD AND SWAP7 PUSH1 0x40 MLOAD SWAP9 DUP10 MSTORE PUSH1 0x20 DUP10 ADD MSTORE PUSH1 0x40 DUP9 ADD MSTORE PUSH1 0x60 DUP8 ADD MSTORE PUSH1 0x80 DUP7 ADD MSTORE PUSH1 0xA0 DUP6 ADD MSTORE PUSH1 0xC0 DUP5 ADD MSTORE PUSH1 0xE0 DUP4 ADD MSTORE ISZERO ISZERO PUSH2 0x100 DUP3 ADD MSTORE RETURN JUMPDEST CALLVALUE PUSH2 0x172 JUMPI PUSH1 0x20 CALLDATASIZE PUSH1 0x3 NOT ADD SLT PUSH2 0x172 JUMPI PUSH1 0x4 CALLDATALOAD PUSH0 DUP2 DUP2 MSTORE PUSH1 0x1 PUSH1 0x20 MSTORE PUSH1 0x40 SWAP1 KECCAK256 DUP1 SLOAD PUSH1 0x1 PUSH1 0x1 PUSH1 0xA0 SHL SUB AND SWAP1 CALLER DUP3 SWAP1 SUB PUSH2 0x117C JUMPI PUSH1 0x8 DUP2 ADD DUP1 SLOAD PUSH2 0x10D4 PUSH1 0xFF DUP3 AND PUSH2 0x1318 JUMP JUMPDEST PUSH1 0xFF NOT AND SWAP1 SSTORE PUSH2 0x10EF PUSH1 0x5 PUSH1 0x4 DUP4 ADD SLOAD SWAP3 ADD SWAP2 DUP3 SLOAD SWAP1 PUSH2 0x1358 JUMP JUMPDEST SWAP2 DUP3 PUSH2 0x112B JUMPI JUMPDEST POP PUSH32 0xAAF3ECB4577772367B3BF3E2B4FB8682F9444CC4EC121A6710F191C485EF6C3C SWAP2 PUSH1 0x40 SWAP2 SLOAD SWAP1 DUP3 MLOAD SWAP2 DUP3 MSTORE PUSH1 0x20 DUP3 ADD MSTORE LOG2 STOP JUMPDEST PUSH0 DUP1 DUP1 DUP6 DUP2 SWAP5 GAS CALL PUSH2 0x113B PUSH2 0x1365 JUMP JUMPDEST POP ISZERO PUSH2 0x1147 JUMPI DUP4 PUSH2 0x10F6 JUMP JUMPDEST PUSH1 0x40 MLOAD PUSH3 0x461BCD PUSH1 0xE5 SHL DUP2 MSTORE PUSH1 0x20 PUSH1 0x4 DUP3 ADD MSTORE PUSH1 0xD PUSH1 0x24 DUP3 ADD MSTORE PUSH13 0x1499599D5B990819985A5B1959 PUSH1 0x9A SHL PUSH1 0x44 DUP3 ADD MSTORE PUSH1 0x64 SWAP1 REVERT JUMPDEST PUSH1 0x40 MLOAD PUSH3 0x461BCD PUSH1 0xE5 SHL DUP2 MSTORE PUSH1 0x20 PUSH1 0x4 DUP3 ADD MSTORE PUSH1 0x10 PUSH1 0x24 DUP3 ADD MSTORE PUSH16 0x2737BA103A34329032B6B83637BCB2B9 PUSH1 0x81 SHL PUSH1 0x44 DUP3 ADD MSTORE PUSH1 0x64 SWAP1 REVERT JUMPDEST CALLVALUE PUSH2 0x172 JUMPI PUSH0 CALLDATASIZE PUSH1 0x3 NOT ADD SLT PUSH2 0x172 JUMPI PUSH1 0x4 PUSH1 0x60 PUSH1 0x1 PUSH1 0x1 PUSH1 0xA0 SHL SUB PUSH2 0x11D8 PUSH2 0x15AD JUMP JUMPDEST AND PUSH1 0x40 MLOAD SWAP3 DUP4 DUP1 SWAP3 PUSH4 0xDBDFF2C1 PUSH1 0xE0 SHL DUP3 MSTORE GAS STATICCALL SWAP1 DUP2 ISZERO PUSH2 0x167 JUMPI PUSH1 0x60 SWAP2 PUSH0 SWAP2 PUSH0 SWAP2 PUSH2 0x1229 JUMPI JUMPDEST POP DUP1 DUP1 PUSH2 0x121D JUMPI JUMPDEST PUSH1 0x40 MLOAD SWAP3 DUP4 MSTORE ISZERO ISZERO PUSH1 0x20 DUP4 ADD MSTORE ISZERO ISZERO PUSH1 0x40 DUP3 ADD MSTORE RETURN JUMPDEST PUSH1 0xA DUP4 MOD ISZERO SWAP2 POP PUSH2 0x1207 JUMP JUMPDEST SWAP1 POP PUSH2 0x1242 SWAP2 POP DUP3 RETURNDATASIZE DUP5 GT PUSH2 0x666 JUMPI PUSH2 0x653 DUP2 DUP4 PUSH2 0x12C8 JUMP JUMPDEST POP DUP4 PUSH2 0x11FF JUMP JUMPDEST CALLVALUE PUSH2 0x172 JUMPI PUSH0 CALLDATASIZE PUSH1 0x3 NOT ADD SLT PUSH2 0x172 JUMPI PUSH1 0x20 PUSH1 0x40 MLOAD PUSH1 0xA DUP2 MSTORE RETURN JUMPDEST CALLVALUE PUSH2 0x172 JUMPI PUSH0 CALLDATASIZE PUSH1 0x3 NOT ADD SLT PUSH2 0x172 JUMPI PUSH1 0x20 SWAP1 PUSH0 SLOAD DUP2 MSTORE RETURN JUMPDEST PUSH2 0x120 DUP2 ADD SWAP1 DUP2 LT PUSH1 0x1 PUSH1 0x1 PUSH1 0x40 SHL SUB DUP3 GT OR PUSH2 0x1299 JUMPI PUSH1 0x40 MSTORE JUMP JUMPDEST PUSH4 0x4E487B71 PUSH1 0xE0 SHL PUSH0 MSTORE PUSH1 0x41 PUSH1 0x4 MSTORE PUSH1 0x24 PUSH0 REVERT JUMPDEST PUSH1 0x80 DUP2 ADD SWAP1 DUP2 LT PUSH1 0x1 PUSH1 0x1 PUSH1 0x40 SHL SUB DUP3 GT OR PUSH2 0x1299 JUMPI PUSH1 0x40 MSTORE JUMP JUMPDEST SWAP1 PUSH1 0x1F DUP1 NOT SWAP2 ADD AND DUP2 ADD SWAP1 DUP2 LT PUSH1 0x1 PUSH1 0x1 PUSH1 0x40 SHL SUB DUP3 GT OR PUSH2 0x1299 JUMPI PUSH1 0x40 MSTORE JUMP JUMPDEST MLOAD SWAP1 DUP2 ISZERO ISZERO DUP3 SUB PUSH2 0x172 JUMPI JUMP JUMPDEST SWAP1 DUP2 PUSH1 0x60 SWAP2 SUB SLT PUSH2 0x172 JUMPI DUP1 MLOAD SWAP2 PUSH1 0x40 PUSH2 0x1312 PUSH1 0x20 DUP5 ADD PUSH2 0x12E9 JUMP JUMPDEST SWAP3 ADD MLOAD SWAP1 JUMP JUMPDEST ISZERO PUSH2 0x131F JUMPI JUMP JUMPDEST PUSH1 0x40 MLOAD PUSH3 0x461BCD PUSH1 0xE5 SHL DUP2 MSTORE PUSH1 0x20 PUSH1 0x4 DUP3 ADD MSTORE PUSH1 0x11 PUSH1 0x24 DUP3 ADD MSTORE PUSH17 0x53747265616D206E6F7420616374697665 PUSH1 0x78 SHL PUSH1 0x44 DUP3 ADD MSTORE PUSH1 0x64 SWAP1 REVERT JUMPDEST SWAP2 SWAP1 DUP3 SUB SWAP2 DUP3 GT PUSH2 0xCE1 JUMPI JUMP JUMPDEST RETURNDATASIZE ISZERO PUSH2 0x139E JUMPI RETURNDATASIZE SWAP1 PUSH1 0x1 PUSH1 0x1 PUSH1 0x40 SHL SUB DUP3 GT PUSH2 0x1299 JUMPI PUSH1 0x40 MLOAD SWAP2 PUSH2 0x1393 PUSH1 0x1F DUP3 ADD PUSH1 0x1F NOT AND PUSH1 0x20 ADD DUP5 PUSH2 0x12C8 JUMP JUMPDEST DUP3 MSTORE RETURNDATASIZE PUSH0 PUSH1 0x20 DUP5 ADD RETURNDATACOPY JUMP JUMPDEST PUSH1 0x60 SWAP1 JUMP JUMPDEST SWAP2 SWAP1 DUP3 ADD DUP1 SWAP3 GT PUSH2 0xCE1 JUMPI JUMP JUMPDEST ISZERO PUSH2 0x13B7 JUMPI JUMP JUMPDEST PUSH1 0x40 MLOAD PUSH3 0x461BCD PUSH1 0xE5 SHL DUP2 MSTORE PUSH1 0x20 PUSH1 0x4 DUP3 ADD MSTORE PUSH1 0x12 PUSH1 0x24 DUP3 ADD MSTORE PUSH18 0x546F6F206561726C7920746F20636C61696D PUSH1 0x70 SHL PUSH1 0x44 DUP3 ADD MSTORE PUSH1 0x64 SWAP1 REVERT JUMPDEST CALLDATALOAD SWAP1 PUSH1 0x1 PUSH1 0x1 PUSH1 0x40 SHL SUB DUP3 AND DUP3 SUB PUSH2 0x172 JUMPI JUMP JUMPDEST SWAP1 CALLDATALOAD PUSH1 0x1E NOT DUP3 CALLDATASIZE SUB ADD DUP2 SLT ISZERO PUSH2 0x172 JUMPI ADD PUSH1 0x20 DUP2 CALLDATALOAD SWAP2 ADD SWAP2 PUSH1 0x1 PUSH1 0x1 PUSH1 0x40 SHL SUB DUP3 GT PUSH2 0x172 JUMPI DUP2 CALLDATASIZE SUB DUP4 SGT PUSH2 0x172 JUMPI JUMP JUMPDEST SWAP1 DUP1 PUSH1 0x20 SWAP4 SWAP3 DUP2 DUP5 MSTORE DUP5 DUP5 ADD CALLDATACOPY PUSH0 DUP3 DUP3 ADD DUP5 ADD MSTORE PUSH1 0x1F ADD PUSH1 0x1F NOT AND ADD ADD SWAP1 JUMP JUMPDEST SWAP1 DUP2 PUSH1 0x60 SWAP2 SUB SLT PUSH2 0x172 JUMPI DUP1 MLOAD SWAP2 PUSH1 0x20 DUP3 ADD MLOAD DUP1 PUSH0 SIGNEXTEND DUP2 SUB PUSH2 0x172 JUMPI PUSH1 0x40 SWAP1 SWAP3 ADD MLOAD PUSH1 0x1 PUSH1 0x1 PUSH1 0x40 SHL SUB DUP2 AND DUP2 SUB PUSH2 0x172 JUMPI SWAP1 JUMP JUMPDEST ISZERO PUSH2 0x1492 JUMPI JUMP JUMPDEST PUSH1 0x40 MLOAD PUSH3 0x461BCD PUSH1 0xE5 SHL DUP2 MSTORE PUSH1 0x20 PUSH1 0x4 DUP3 ADD MSTORE PUSH1 0x16 PUSH1 0x24 DUP3 ADD MSTORE PUSH22 0x4654534F20707269636520756E617661696C61626C65 PUSH1 0x50 SHL PUSH1 0x44 DUP3 ADD MSTORE PUSH1 0x64 SWAP1 REVERT JUMPDEST PUSH1 0xFF AND PUSH1 0x4D DUP2 GT PUSH2 0xCE1 JUMPI PUSH1 0xA EXP SWAP1 JUMP JUMPDEST DUP2 DUP2 MUL SWAP3 SWAP2 DUP2 ISZERO SWAP2 DUP5 DIV EQ OR ISZERO PUSH2 0xCE1 JUMPI JUMP JUMPDEST DUP2 ISZERO PUSH2 0x14FE JUMPI DIV SWAP1 JUMP JUMPDEST PUSH4 0x4E487B71 PUSH1 0xE0 SHL PUSH0 MSTORE PUSH1 0x12 PUSH1 0x4 MSTORE PUSH1 0x24 PUSH0 REVERT JUMPDEST ISZERO PUSH2 0x1519 JUMPI JUMP JUMPDEST PUSH1 0x40 MLOAD PUSH3 0x461BCD PUSH1 0xE5 SHL DUP2 MSTORE PUSH1 0x20 PUSH1 0x4 DUP3 ADD MSTORE PUSH1 0xF PUSH1 0x24 DUP3 ADD MSTORE PUSH15 0x14DD1C99585B4819195C1B195D1959 PUSH1 0x8A SHL PUSH1 0x44 DUP3 ADD MSTORE PUSH1 0x64 SWAP1 REVERT JUMPDEST ISZERO PUSH2 0x1557 JUMPI JUMP JUMPDEST PUSH1 0x40 MLOAD PUSH3 0x461BCD PUSH1 0xE5 SHL DUP2 MSTORE PUSH1 0x20 PUSH1 0x4 DUP3 ADD MSTORE PUSH1 0xF PUSH1 0x24 DUP3 ADD MSTORE PUSH15 0x151C985B9CD9995C8819985A5B1959 PUSH1 0x8A SHL PUSH1 0x44 DUP3 ADD MSTORE PUSH1 0x64 SWAP1 REVERT JUMPDEST SWAP1 DUP2 PUSH1 0x20 SWAP2 SUB SLT PUSH2 0x172 JUMPI MLOAD PUSH1 0x1 PUSH1 0x1 PUSH1 0xA0 SHL SUB DUP2 AND DUP2 SUB PUSH2 0x172 JUMPI SWAP1 JUMP JUMPDEST PUSH1 0x40 MLOAD PUSH1 0x20 DUP2 ADD SWAP1 PUSH1 0x20 DUP3 MSTORE PUSH1 0xE PUSH1 0x40 DUP3 ADD MSTORE PUSH14 0x2930B73237B6A73AB6B132B92B19 PUSH1 0x91 SHL PUSH1 0x60 DUP3 ADD MSTORE PUSH1 0x60 DUP2 MSTORE PUSH2 0x15E4 DUP2 PUSH2 0x12AD JUMP JUMPDEST MLOAD SWAP1 KECCAK256 PUSH1 0x40 MLOAD SWAP1 PUSH4 0xAC9AA51 PUSH1 0xE1 SHL DUP3 MSTORE PUSH1 0x4 DUP3 ADD MSTORE PUSH1 0x20 DUP2 PUSH1 0x24 DUP2 PUSH20 0xAD67FE66660FB8DFE9D6B1B4240D8650E30F6019 GAS STATICCALL SWAP1 DUP2 ISZERO PUSH2 0x167 JUMPI PUSH0 SWAP2 PUSH2 0x1632 JUMPI JUMPDEST POP PUSH1 0x1 PUSH1 0x1 PUSH1 0xA0 SHL SUB AND SWAP1 JUMP JUMPDEST PUSH2 0x164B SWAP2 POP PUSH1 0x20 RETURNDATASIZE PUSH1 0x20 GT PUSH2 0xE5A JUMPI PUSH2 0xE4C DUP2 DUP4 PUSH2 0x12C8 JUMP JUMPDEST PUSH0 PUSH2 0x1625 JUMP JUMPDEST PUSH1 0x40 MLOAD PUSH1 0x20 DUP2 ADD SWAP1 PUSH1 0x20 DUP3 MSTORE PUSH1 0x6 PUSH1 0x40 DUP3 ADD MSTORE PUSH6 0x233A39B7AB19 PUSH1 0xD1 SHL PUSH1 0x60 DUP3 ADD MSTORE PUSH1 0x60 DUP2 MSTORE PUSH2 0x15E4 DUP2 PUSH2 0x12AD JUMP INVALID LOG2 PUSH5 0x6970667358 0x22 SLT KECCAK256 0xEB SWAP14 DUP16 SWAP4 0xDF SWAP7 0xAB 0x4E 0x26 0xD BLOBHASH SWAP16 PUSH15 0x9672E19017520E0806CF1A38FA8C5C KECCAK256 0xB1 0xD7 0xDE PUSH5 0x736F6C6343 STOP ADDMOD NOT STOP CALLER "},"methodIdentifiers":{"BONUS_DIVISOR()":"224a64c5","BONUS_MULTIPLIER()":"8aa28550","FLR_USD_FEED_ID()":"69f161c4","checkBonusStatus()":"4f489587","claim(uint256,(bytes32[],(bytes32,bytes32,uint64,uint64,(string,string,string,string,string,string,string),(bytes))))":"8fc49ef8","claimDemo(uint256,uint256)":"aaad3171","createStream(address,uint256,uint256)":"cd9e3fe8","endStream(uint256)":"50d55afc","getCurrentPrice()":"eb91d37e","getStream(uint256)":"894e9a0d","nextStreamId()":"1e99d569","streams(uint256)":"64d60d91"}}}}}