{
  "_format": "hh-sol-artifact-1",
  "contractName": "InstantPayroll",
  "sourceName": "contracts/InstantPayroll.sol",
  "abi": [
    {
      "anonymous": false,
      "inputs": [
        {
          "indexed": true,
          "internalType": "uint256",
          "name": "streamId",
          "type": "uint256"
        },
        {
          "indexed": true,
          "internalType": "address",
          "name": "worker",
          "type": "address"
        },
        {
          "indexed": false,
          "internalType": "uint256",
          "name": "amountFLR",
          "type": "uint256"
        },
        {
          "indexed": false,
          "internalType": "uint256",
          "name": "amountUSD",
          "type": "uint256"
        },
        {
          "indexed": false,
          "internalType": "uint256",
          "name": "flrUsdPrice",
          "type": "uint256"
        },
        {
          "indexed": false,
          "internalType": "bool",
          "name": "bonusTriggered",
          "type": "bool"
        },
        {
          "indexed": false,
          "internalType": "uint256",
          "name": "commitCount",
          "type": "uint256"
        }
      ],
      "name": "PaymentClaimed",
      "type": "event"
    },
    {
      "anonymous": false,
      "inputs": [
        {
          "indexed": true,
          "internalType": "uint256",
          "name": "streamId",
          "type": "uint256"
        },
        {
          "indexed": true,
          "internalType": "address",
          "name": "employer",
          "type": "address"
        },
        {
          "indexed": true,
          "internalType": "address",
          "name": "worker",
          "type": "address"
        },
        {
          "indexed": false,
          "internalType": "uint256",
          "name": "usdRatePerInterval",
          "type": "uint256"
        },
        {
          "indexed": false,
          "internalType": "uint256",
          "name": "claimInterval",
          "type": "uint256"
        },
        {
          "indexed": false,
          "internalType": "uint256",
          "name": "totalDeposit",
          "type": "uint256"
        }
      ],
      "name": "StreamCreated",
      "type": "event"
    },
    {
      "anonymous": false,
      "inputs": [
        {
          "indexed": true,
          "internalType": "uint256",
          "name": "streamId",
          "type": "uint256"
        },
        {
          "indexed": false,
          "internalType": "uint256",
          "name": "totalClaimed",
          "type": "uint256"
        },
        {
          "indexed": false,
          "internalType": "uint256",
          "name": "refunded",
          "type": "uint256"
        }
      ],
      "name": "StreamEnded",
      "type": "event"
    },
    {
      "inputs": [],
      "name": "BONUS_DIVISOR",
      "outputs": [
        {
          "internalType": "uint256",
          "name": "",
          "type": "uint256"
        }
      ],
      "stateMutability": "view",
      "type": "function"
    },
    {
      "inputs": [],
      "name": "BONUS_MULTIPLIER",
      "outputs": [
        {
          "internalType": "uint256",
          "name": "",
          "type": "uint256"
        }
      ],
      "stateMutability": "view",
      "type": "function"
    },
    {
      "inputs": [],
      "name": "FLR_USD_FEED_ID",
      "outputs": [
        {
          "internalType": "bytes21",
          "name": "",
          "type": "bytes21"
        }
      ],
      "stateMutability": "view",
      "type": "function"
    },
    {
      "inputs": [],
      "name": "checkBonusStatus",
      "outputs": [
        {
          "internalType": "uint256",
          "name": "randomNumber",
          "type": "uint256"
        },
        {
          "internalType": "bool",
          "name": "isSecure",
          "type": "bool"
        },
        {
          "internalType": "bool",
          "name": "wouldTrigger",
          "type": "bool"
        }
      ],
      "stateMutability": "view",
      "type": "function"
    },
    {
      "inputs": [
        {
          "internalType": "uint256",
          "name": "_streamId",
          "type": "uint256"
        },
        {
          "components": [
            {
              "internalType": "bytes32[]",
              "name": "merkleProof",
              "type": "bytes32[]"
            },
            {
              "components": [
                {
                  "internalType": "bytes32",
                  "name": "attestationType",
                  "type": "bytes32"
                },
                {
                  "internalType": "bytes32",
                  "name": "sourceId",
                  "type": "bytes32"
                },
                {
                  "internalType": "uint64",
                  "name": "votingRound",
                  "type": "uint64"
                },
                {
                  "internalType": "uint64",
                  "name": "lowestUsedTimestamp",
                  "type": "uint64"
                },
                {
                  "components": [
                    {
                      "internalType": "string",
                      "name": "url",
                      "type": "string"
                    },
                    {
                      "internalType": "string",
                      "name": "httpMethod",
                      "type": "string"
                    },
                    {
                      "internalType": "string",
                      "name": "headers",
                      "type": "string"
                    },
                    {
                      "internalType": "string",
                      "name": "queryParams",
                      "type": "string"
                    },
                    {
                      "internalType": "string",
                      "name": "body",
                      "type": "string"
                    },
                    {
                      "internalType": "string",
                      "name": "postProcessJq",
                      "type": "string"
                    },
                    {
                      "internalType": "string",
                      "name": "abiSignature",
                      "type": "string"
                    }
                  ],
                  "internalType": "struct IWeb2Json.RequestBody",
                  "name": "requestBody",
                  "type": "tuple"
                },
                {
                  "components": [
                    {
                      "internalType": "bytes",
                      "name": "abiEncodedData",
                      "type": "bytes"
                    }
                  ],
                  "internalType": "struct IWeb2Json.ResponseBody",
                  "name": "responseBody",
                  "type": "tuple"
                }
              ],
              "internalType": "struct IWeb2Json.Response",
              "name": "data",
              "type": "tuple"
            }
          ],
          "internalType": "struct IWeb2Json.Proof",
          "name": "_proof",
          "type": "tuple"
        }
      ],
      "name": "claim",
      "outputs": [],
      "stateMutability": "nonpayable",
      "type": "function"
    },
    {
      "inputs": [
        {
          "internalType": "uint256",
          "name": "_streamId",
          "type": "uint256"
        },
        {
          "internalType": "uint256",
          "name": "_commitCount",
          "type": "uint256"
        }
      ],
      "name": "claimDemo",
      "outputs": [],
      "stateMutability": "nonpayable",
      "type": "function"
    },
    {
      "inputs": [
        {
          "internalType": "address",
          "name": "_worker",
          "type": "address"
        },
        {
          "internalType": "uint256",
          "name": "_usdRatePerInterval",
          "type": "uint256"
        },
        {
          "internalType": "uint256",
          "name": "_claimInterval",
          "type": "uint256"
        }
      ],
      "name": "createStream",
      "outputs": [
        {
          "internalType": "uint256",
          "name": "streamId",
          "type": "uint256"
        }
      ],
      "stateMutability": "payable",
      "type": "function"
    },
    {
      "inputs": [
        {
          "internalType": "uint256",
          "name": "_streamId",
          "type": "uint256"
        }
      ],
      "name": "endStream",
      "outputs": [],
      "stateMutability": "nonpayable",
      "type": "function"
    },
    {
      "inputs": [],
      "name": "getCurrentPrice",
      "outputs": [
        {
          "internalType": "uint256",
          "name": "price",
          "type": "uint256"
        },
        {
          "internalType": "int8",
          "name": "decimals",
          "type": "int8"
        },
        {
          "internalType": "uint64",
          "name": "timestamp",
          "type": "uint64"
        }
      ],
      "stateMutability": "view",
      "type": "function"
    },
    {
      "inputs": [
        {
          "internalType": "uint256",
          "name": "_streamId",
          "type": "uint256"
        }
      ],
      "name": "getStream",
      "outputs": [
        {
          "components": [
            {
              "internalType": "address",
              "name": "employer",
              "type": "address"
            },
            {
              "internalType": "address",
              "name": "worker",
              "type": "address"
            },
            {
              "internalType": "uint256",
              "name": "usdRatePerInterval",
              "type": "uint256"
            },
            {
              "internalType": "uint256",
              "name": "claimInterval",
              "type": "uint256"
            },
            {
              "internalType": "uint256",
              "name": "totalDeposit",
              "type": "uint256"
            },
            {
              "internalType": "uint256",
              "name": "totalClaimed",
              "type": "uint256"
            },
            {
              "internalType": "uint256",
              "name": "lastClaimTime",
              "type": "uint256"
            },
            {
              "internalType": "uint256",
              "name": "createdAt",
              "type": "uint256"
            },
            {
              "internalType": "bool",
              "name": "active",
              "type": "bool"
            }
          ],
          "internalType": "struct InstantPayroll.Stream",
          "name": "",
          "type": "tuple"
        }
      ],
      "stateMutability": "view",
      "type": "function"
    },
    {
      "inputs": [],
      "name": "nextStreamId",
      "outputs": [
        {
          "internalType": "uint256",
          "name": "",
          "type": "uint256"
        }
      ],
      "stateMutability": "view",
      "type": "function"
    },
    {
      "inputs": [
        {
          "internalType": "uint256",
          "name": "",
          "type": "uint256"
        }
      ],
      "name": "streams",
      "outputs": [
        {
          "internalType": "address",
          "name": "employer",
          "type": "address"
        },
        {
          "internalType": "address",
          "name": "worker",
          "type": "address"
        },
        {
          "internalType": "uint256",
          "name": "usdRatePerInterval",
          "type": "uint256"
        },
        {
          "internalType": "uint256",
          "name": "claimInterval",
          "type": "uint256"
        },
        {
          "internalType": "uint256",
          "name": "totalDeposit",
          "type": "uint256"
        },
        {
          "internalType": "uint256",
          "name": "totalClaimed",
          "type": "uint256"
        },
        {
          "internalType": "uint256",
          "name": "lastClaimTime",
          "type": "uint256"
        },
        {
          "internalType": "uint256",
          "name": "createdAt",
          "type": "uint256"
        },
        {
          "internalType": "bool",
          "name": "active",
          "type": "bool"
        }
      ],
      "stateMutability": "view",
      "type": "function"
    },
    {
      "stateMutability": "payable",
      "type": "receive"
    }
  ],
  "bytecode": "0x608080604052346015576116b6908161001a8239f35b5f80fdfe608080604052600436101561001c575b50361561001a575f80fd5b005b5f3560e01c9081631e99d5691461126457508063224a64c5146112495780634f489587146111b457806350d55afc1461108d57806364d60d9114610ffb57806369f161c414610fd6578063894e9a0d14610eb25780638aa2855014610e975780638fc49ef81461073b578063aaad3171146103b9578063cd9e3fe8146101765763eb91d37e146100ac575f61000f565b34610172575f36600319011261017257602460606001600160a01b036100d0611651565b6040516349f4fc0360e11b8152665193148bd554d160c21b600482015293849290918391165afa908115610167576060915f905f809161012b575b6001600160401b039293506040519384525f0b6020840152166040820152f35b5050506101556001600160401b0391833d8511610160575b61014d81836112c8565b810190611456565b91925082919061010b565b503d610143565b6040513d5f823e3d90fd5b5f80fd5b6060366003190112610172576001600160a01b0360043581811690819003610172576024908135604435821561038457811561034d5780156103125734156102db575f54935f1985146102c85750836008602096600183015f55604051906101dd8261127d565b3382528882018781526040830187815260608401878152608085019034825260a08601925f845260c087019442865260e088019642885261010089019a60018c525f528f600190528060405f20995116906bffffffffffffffffffffffff60a01b91828b5416178a5560018a0192511690825416179055516002870155516003860155516004850155516005840155516006830155516007820155019051151560ff8019835416911617905560405191825284820152346040820152827f8d3a4d9a98c71920c13665fb97f1a612978391e661f9a17fa5390f60e7424d5c60603393a4604051908152f35b634e487b7160e01b5f9081526011600452fd5b60405162461bcd60e51b8152602060048201526010818601526f26bab9ba103232b837b9b4ba1023262960811b6044820152606490fd5b60405162461bcd60e51b815260206004820152601481860152730496e74657276616c206d757374206265203e20360641b6044820152606490fd5b60405162461bcd60e51b8152602060048201526010818601526f052617465206d757374206265203e20360841b6044820152606490fd5b60405162461bcd60e51b815260206004820152600e818601526d24b73b30b634b2103bb7b935b2b960911b6044820152606490fd5b3461017257604036600319011261017257600435602490813590805f526020916001835260405f209260088401936103f460ff865416611318565b600181019260018060a01b0392838554163314801561072f575b156106fb57600683019361043361042b86546003870154906113a3565b4210156113b0565b82156106c95780610442611651565b604051620f574160e41b8152665193148bd554d160c21b6004820181905298929091169084818d81855afa948515610167575f95610699575b5050604051976349f4fc0360e11b89526004890152878b8160609687945af1988915610167576104d2995f985f9161066d575b50886104d86104dd926104c283151561148b565b60028a019d8e549160ff166114d0565b906114e1565b6114f4565b95600485856104ea6115ad565b166040519283809263dbdff2c160e01b82525afa908115610167575f965f92610637575b50505f958161062b575b506105f4575b7fc19610f89e56b6eecf2ea73c5f596ebc3ae5f3d02739aa531cde2fb4dacbbb73999a9b506005600482015491018054986105598a84611358565b808a116105ea575b5061057b89809b6105766105d79c1515611512565b6113a3565b80925542905510156105dc575b506105a55f8080808a878754165af161059f611365565b50611550565b5416975494604051958695869192608093969594919660a0840197845260208401526040830152151560608201520152565b0390a3005b805460ff191690558a610588565b985061057b610561565b9350948060011b90808204600214901517156106185798995089989460019361051e565b8a634e487b7160e01b5f5260116004525ffd5b600a915006158d610518565b61065b93975080919250903d10610666575b61065381836112c8565b8101906112f6565b509490948d8061050e565b503d610649565b6104d899506104dd915061068d90863d88116101605761014d81836112c8565b509099509050886104ae565b9080929550813d83116106c2575b6106b181836112c8565b810103126101725751928b8061047b565b503d6106a7565b60405162461bcd60e51b815260048101839052600b818b01526a4e6f20616374697669747960a81b6044820152606490fd5b606490600e896040519262461bcd60e51b845260048401528201526d139bdd08185d5d1a1bdc9a5e995960921b6044820152fd5b5083835416331461040e565b3461017257600319604036820112610172576001600160401b03602435116101725760409060243536030112610172576004355f52600160205260405f2061078960ff600883015416611318565b60018101546001600160a01b03163303610e6157600681016107b461042b82546003850154906113a3565b604051602081019060208252600f60408201526e233231ab32b934b334b1b0ba34b7b760891b6060820152606081526107ec816112ad565b51902060405190630ac9aa5160e11b8252600482015260208160248173ad67fe66660fb8dfe9d6b1b4240d8650e30f60195afa908115610167575f91610e32575b50604051630aa05fe360e01b815260206004820152602435600401356022196024353603018112156101725760243501602481016001600160401b0360048301351161017257600482013560051b918236038213610172576040602485015260040135606484018190526001600160fb1b0310610172578190608484013781016024803501359260c21960243536030184121561017257602435840190606084840301604485015260048201356084840152602482013560a48401526001600160401b036108fd604484016113f1565b1660c48401526001600160401b03610917606484016113f1565b1660e484015236829003608483013560e21982018112156101725783610a3091016004810160c0610104880152610a206109676109548380611405565b60e06101448c01526102248b0191611436565b9160c4610a186109fa6109db6109bc8d61099d61098760248c0189611405565b61014319848d0381016101648601529b91611436565b906109ab60448c0189611405565b916101848c82860301910152611436565b8d6109ca60648b0188611405565b916101a48b82860301910152611436565b8c6109e960848a0187611405565b916101c48a82860301910152611436565b610a0760a4880185611405565b8d830388016101e48f015290611436565b940190611405565b9188840301610204890152611436565b9260a4810135916022190182121561017257610a7886946020610a6b8198600489979688970101906101246083198287030191015280611405565b9190928181520191611436565b03916001600160a01b03165afa908115610167575f91610df8575b5015610dbf576024350160a48101359060221981360301821215610172570160048101359060221981360301821215610172570160048101356001600160401b038111610172576024820191813603831361017257602091810103126101725735918215610d83576001600160a01b03610b0b611651565b604051620f574160e41b8152665193148bd554d160c21b6004820181905292909116602082602481845afa918215610167575f92610d4e575b5060246060929360405194859384926349f4fc0360e11b845260048401525af1938415610167575f915f95610d27575b50600490610b8383151561148b565b610b9d836104d860028701986104d28a549160ff166114d0565b9360606001600160a01b03610bb06115ad565b166040519485809263dbdff2c160e01b82525afa8015610167575f935f91610d01575b505f9381610cf5575b50610cc2575b600481015460058201805497610bf88984611358565b808911610cb8575b50906105d794939291610c3b89809b6105767fc19610f89e56b6eecf2ea73c5f596ebc3ae5f3d02739aa531cde2fb4dacbbb739c1515611512565b8092554290551015610ca7575b610c675f8080808b60018060a01b036001880154165af161059f611365565b6001808060a01b039101541696549260405194859460043598869192608093969594919660a0840197845260208401526040830152151560608201520152565b60088101805460ff19169055610c48565b97506105d7610c00565b9150928060011b9080820460021490151715610ce15792600191610be2565b634e487b7160e01b5f52601160045260245ffd5b600a9150061588610bdc565b9050610d1d91935060603d6060116106665761065381836112c8565b5092909288610bd3565b610d459195506004925060603d6060116101605761014d81836112c8565b50949091610b74565b91506020823d602011610d7b575b81610d69602093836112c8565b81010312610172579051906024610b44565b3d9150610d5c565b60405162461bcd60e51b81526020600482015260146024820152734e6f20766572696669656420616374697669747960601b6044820152606490fd5b60405162461bcd60e51b815260206004820152601160248201527024b73b30b634b21023222190383937b7b360791b6044820152606490fd5b90506020813d602011610e2a575b81610e13602093836112c8565b8101031261017257610e24906112e9565b84610a93565b3d9150610e06565b610e54915060203d602011610e5a575b610e4c81836112c8565b81019061158e565b8361082d565b503d610e42565b60405162461bcd60e51b815260206004820152600e60248201526d2737ba103a3432903bb7b935b2b960911b6044820152606490fd5b34610172575f36600319011261017257602060405160028152f35b3461017257602036600319011261017257610120604051610ed28161127d565b5f81525f60208201525f60408201525f60608201525f60808201525f60a08201525f60c08201525f60e08201525f610100809201526004355f52600160205260405f2090604051610f228161127d565b60018060a01b039283815416938483528060018301541690602084019182526002830154604085019081526003840154606086019081526004850154916080870192835260058601549360a0880194855260068701549560c089019687528960ff600860078b01549a60e08d019b8c52015416990198151589526040519a8b52511660208a01525160408901525160608801525160808701525160a08601525160c08501525160e084015251151590820152f35b34610172575f36600319011261017257604051665193148bd554d160c21b8152602090f35b34610172576020366003190112610172576004355f52600160205261012060405f2060018060a01b039081815416916001820154169060028101546003820154600483015460058401549160068501549360ff600860078801549701541696604051988952602089015260408801526060870152608086015260a085015260c084015260e08301521515610100820152f35b34610172576020366003190112610172576004355f81815260016020526040902080546001600160a01b0316903382900361117c576008810180546110d460ff8216611318565b60ff191690556110ef60056004830154920191825490611358565b918261112b575b507faaf3ecb4577772367b3bf3e2b4fb8682f9444cc4ec121a6710f191c485ef6c3c91604091549082519182526020820152a2005b5f80808581945af161113b611365565b501561114757836110f6565b60405162461bcd60e51b815260206004820152600d60248201526c1499599d5b990819985a5b1959609a1b6044820152606490fd5b60405162461bcd60e51b815260206004820152601060248201526f2737ba103a34329032b6b83637bcb2b960811b6044820152606490fd5b34610172575f36600319011261017257600460606001600160a01b036111d86115ad565b166040519283809263dbdff2c160e01b82525afa908115610167576060915f915f91611229575b50808061121d575b6040519283521515602083015215156040820152f35b600a8306159150611207565b90506112429150823d84116106665761065381836112c8565b50836111ff565b34610172575f366003190112610172576020604051600a8152f35b34610172575f366003190112610172576020905f548152f35b61012081019081106001600160401b0382111761129957604052565b634e487b7160e01b5f52604160045260245ffd5b608081019081106001600160401b0382111761129957604052565b90601f801991011681019081106001600160401b0382111761129957604052565b5190811515820361017257565b90816060910312610172578051916040611312602084016112e9565b92015190565b1561131f57565b60405162461bcd60e51b815260206004820152601160248201527053747265616d206e6f742061637469766560781b6044820152606490fd5b91908203918211610ce157565b3d1561139e573d906001600160401b0382116112995760405191611393601f8201601f1916602001846112c8565b82523d5f602084013e565b606090565b91908201809211610ce157565b156113b757565b60405162461bcd60e51b8152602060048201526012602482015271546f6f206561726c7920746f20636c61696d60701b6044820152606490fd5b35906001600160401b038216820361017257565b9035601e19823603018112156101725701602081359101916001600160401b03821161017257813603831361017257565b908060209392818452848401375f828201840152601f01601f1916010190565b90816060910312610172578051916020820151805f0b8103610172576040909201516001600160401b03811681036101725790565b1561149257565b60405162461bcd60e51b81526020600482015260166024820152754654534f20707269636520756e617661696c61626c6560501b6044820152606490fd5b60ff16604d8111610ce157600a0a90565b81810292918115918404141715610ce157565b81156114fe570490565b634e487b7160e01b5f52601260045260245ffd5b1561151957565b60405162461bcd60e51b815260206004820152600f60248201526e14dd1c99585b4819195c1b195d1959608a1b6044820152606490fd5b1561155757565b60405162461bcd60e51b815260206004820152600f60248201526e151c985b9cd9995c8819985a5b1959608a1b6044820152606490fd5b9081602091031261017257516001600160a01b03811681036101725790565b604051602081019060208252600e60408201526d2930b73237b6a73ab6b132b92b1960911b6060820152606081526115e4816112ad565b51902060405190630ac9aa5160e11b8252600482015260208160248173ad67fe66660fb8dfe9d6b1b4240d8650e30f60195afa908115610167575f91611632575b506001600160a01b031690565b61164b915060203d602011610e5a57610e4c81836112c8565b5f611625565b6040516020810190602082526006604082015265233a39b7ab1960d11b6060820152606081526115e4816112ad56fea2646970667358221220eb9d8f93df96ab4e260d499f6e9672e19017520e0806cf1a38fa8c5c20b1d7de64736f6c63430008190033",
  "linkReferences": {},
  "deployedLinkReferences": {}
}