{
  "_format": "hh-sol-artifact-1",
  "contractName": "InstantPayroll",
  "sourceName": "contracts/InstantPayroll.sol",
  "abi": [
    {
      "anonymous": false,
      "inputs": [
        {
          "indexed": true,
          "internalType": "uint256",
          "name": "streamId",
          "type": "uint256"
        },
        {
          "indexed": true,
          "internalType": "address",
          "name": "worker",
          "type": "address"
        },
        {
          "indexed": false,
          "internalType": "uint256",
          "name": "amountFLR",
          "type": "uint256"
        },
        {
          "indexed": false,
          "internalType": "uint256",
          "name": "amountUSD",
          "type": "uint256"
        },
        {
          "indexed": false,
          "internalType": "uint256",
          "name": "flrUsdPrice",
          "type": "uint256"
        },
        {
          "indexed": false,
          "internalType": "bool",
          "name": "bonusTriggered",
          "type": "bool"
        },
        {
          "indexed": false,
          "internalType": "uint256",
          "name": "commitCount",
          "type": "uint256"
        }
      ],
      "name": "PaymentClaimed",
      "type": "event"
    },
    {
      "anonymous": false,
      "inputs": [
        {
          "indexed": true,
          "internalType": "uint256",
          "name": "streamId",
          "type": "uint256"
        },
        {
          "indexed": true,
          "internalType": "address",
          "name": "employer",
          "type": "address"
        },
        {
          "indexed": true,
          "internalType": "address",
          "name": "worker",
          "type": "address"
        },
        {
          "indexed": false,
          "internalType": "uint256",
          "name": "usdRatePerInterval",
          "type": "uint256"
        },
        {
          "indexed": false,
          "internalType": "uint256",
          "name": "claimInterval",
          "type": "uint256"
        },
        {
          "indexed": false,
          "internalType": "uint256",
          "name": "totalDeposit",
          "type": "uint256"
        }
      ],
      "name": "StreamCreated",
      "type": "event"
    },
    {
      "anonymous": false,
      "inputs": [
        {
          "indexed": true,
          "internalType": "uint256",
          "name": "streamId",
          "type": "uint256"
        },
        {
          "indexed": false,
          "internalType": "uint256",
          "name": "totalClaimed",
          "type": "uint256"
        },
        {
          "indexed": false,
          "internalType": "uint256",
          "name": "refunded",
          "type": "uint256"
        }
      ],
      "name": "StreamEnded",
      "type": "event"
    },
    {
      "inputs": [],
      "name": "BONUS_DIVISOR",
      "outputs": [
        {
          "internalType": "uint256",
          "name": "",
          "type": "uint256"
        }
      ],
      "stateMutability": "view",
      "type": "function"
    },
    {
      "inputs": [],
      "name": "BONUS_MULTIPLIER",
      "outputs": [
        {
          "internalType": "uint256",
          "name": "",
          "type": "uint256"
        }
      ],
      "stateMutability": "view",
      "type": "function"
    },
    {
      "inputs": [],
      "name": "FLR_USD_FEED_ID",
      "outputs": [
        {
          "internalType": "bytes21",
          "name": "",
          "type": "bytes21"
        }
      ],
      "stateMutability": "view",
      "type": "function"
    },
    {
      "inputs": [],
      "name": "checkBonusStatus",
      "outputs": [
        {
          "internalType": "uint256",
          "name": "randomNumber",
          "type": "uint256"
        },
        {
          "internalType": "bool",
          "name": "isSecure",
          "type": "bool"
        },
        {
          "internalType": "bool",
          "name": "wouldTrigger",
          "type": "bool"
        }
      ],
      "stateMutability": "view",
      "type": "function"
    },
    {
      "inputs": [
        {
          "internalType": "uint256",
          "name": "_streamId",
          "type": "uint256"
        },
        {
          "components": [
            {
              "internalType": "bytes32[]",
              "name": "merkleProof",
              "type": "bytes32[]"
            },
            {
              "components": [
                {
                  "internalType": "bytes32",
                  "name": "attestationType",
                  "type": "bytes32"
                },
                {
                  "internalType": "bytes32",
                  "name": "sourceId",
                  "type": "bytes32"
                },
                {
                  "internalType": "uint64",
                  "name": "votingRound",
                  "type": "uint64"
                },
                {
                  "internalType": "uint64",
                  "name": "lowestUsedTimestamp",
                  "type": "uint64"
                },
                {
                  "components": [
                    {
                      "internalType": "string",
                      "name": "url",
                      "type": "string"
                    },
                    {
                      "internalType": "string",
                      "name": "httpMethod",
                      "type": "string"
                    },
                    {
                      "internalType": "string",
                      "name": "headers",
                      "type": "string"
                    },
                    {
                      "internalType": "string",
                      "name": "queryParams",
                      "type": "string"
                    },
                    {
                      "internalType": "string",
                      "name": "body",
                      "type": "string"
                    },
                    {
                      "internalType": "string",
                      "name": "postProcessJq",
                      "type": "string"
                    },
                    {
                      "internalType": "string",
                      "name": "abiSignature",
                      "type": "string"
                    }
                  ],
                  "internalType": "struct IWeb2Json.RequestBody",
                  "name": "requestBody",
                  "type": "tuple"
                },
                {
                  "components": [
                    {
                      "internalType": "bytes",
                      "name": "abiEncodedData",
                      "type": "bytes"
                    }
                  ],
                  "internalType": "struct IWeb2Json.ResponseBody",
                  "name": "responseBody",
                  "type": "tuple"
                }
              ],
              "internalType": "struct IWeb2Json.Response",
              "name": "data",
              "type": "tuple"
            }
          ],
          "internalType": "struct IWeb2Json.Proof",
          "name": "_proof",
          "type": "tuple"
        }
      ],
      "name": "claim",
      "outputs": [],
      "stateMutability": "nonpayable",
      "type": "function"
    },
    {
      "inputs": [
        {
          "internalType": "uint256",
          "name": "_streamId",
          "type": "uint256"
        },
        {
          "internalType": "uint256",
          "name": "_commitCount",
          "type": "uint256"
        }
      ],
      "name": "claimDemo",
      "outputs": [],
      "stateMutability": "nonpayable",
      "type": "function"
    },
    {
      "inputs": [
        {
          "internalType": "address",
          "name": "_worker",
          "type": "address"
        },
        {
          "internalType": "uint256",
          "name": "_usdRatePerInterval",
          "type": "uint256"
        },
        {
          "internalType": "uint256",
          "name": "_claimInterval",
          "type": "uint256"
        }
      ],
      "name": "createStream",
      "outputs": [
        {
          "internalType": "uint256",
          "name": "streamId",
          "type": "uint256"
        }
      ],
      "stateMutability": "payable",
      "type": "function"
    },
    {
      "inputs": [
        {
          "internalType": "uint256",
          "name": "_streamId",
          "type": "uint256"
        }
      ],
      "name": "endStream",
      "outputs": [],
      "stateMutability": "nonpayable",
      "type": "function"
    },
    {
      "inputs": [],
      "name": "getCurrentPrice",
      "outputs": [
        {
          "internalType": "uint256",
          "name": "price",
          "type": "uint256"
        },
        {
          "internalType": "int8",
          "name": "decimals",
          "type": "int8"
        },
        {
          "internalType": "uint64",
          "name": "timestamp",
          "type": "uint64"
        }
      ],
      "stateMutability": "view",
      "type": "function"
    },
    {
      "inputs": [
        {
          "internalType": "uint256",
          "name": "_streamId",
          "type": "uint256"
        }
      ],
      "name": "getStream",
      "outputs": [
        {
          "components": [
            {
              "internalType": "address",
              "name": "employer",
              "type": "address"
            },
            {
              "internalType": "address",
              "name": "worker",
              "type": "address"
            },
            {
              "internalType": "uint256",
              "name": "usdRatePerInterval",
              "type": "uint256"
            },
            {
              "internalType": "uint256",
              "name": "claimInterval",
              "type": "uint256"
            },
            {
              "internalType": "uint256",
              "name": "totalDeposit",
              "type": "uint256"
            },
            {
              "internalType": "uint256",
              "name": "totalClaimed",
              "type": "uint256"
            },
            {
              "internalType": "uint256",
              "name": "lastClaimTime",
              "type": "uint256"
            },
            {
              "internalType": "uint256",
              "name": "createdAt",
              "type": "uint256"
            },
            {
              "internalType": "bool",
              "name": "active",
              "type": "bool"
            }
          ],
          "internalType": "struct InstantPayroll.Stream",
          "name": "",
          "type": "tuple"
        }
      ],
      "stateMutability": "view",
      "type": "function"
    },
    {
      "inputs": [],
      "name": "nextStreamId",
      "outputs": [
        {
          "internalType": "uint256",
          "name": "",
          "type": "uint256"
        }
      ],
      "stateMutability": "view",
      "type": "function"
    },
    {
      "inputs": [
        {
          "internalType": "uint256",
          "name": "",
          "type": "uint256"
        }
      ],
      "name": "streams",
      "outputs": [
        {
          "internalType": "address",
          "name": "employer",
          "type": "address"
        },
        {
          "internalType": "address",
          "name": "worker",
          "type": "address"
        },
        {
          "internalType": "uint256",
          "name": "usdRatePerInterval",
          "type": "uint256"
        },
        {
          "internalType": "uint256",
          "name": "claimInterval",
          "type": "uint256"
        },
        {
          "internalType": "uint256",
          "name": "totalDeposit",
          "type": "uint256"
        },
        {
          "internalType": "uint256",
          "name": "totalClaimed",
          "type": "uint256"
        },
        {
          "internalType": "uint256",
          "name": "lastClaimTime",
          "type": "uint256"
        },
        {
          "internalType": "uint256",
          "name": "createdAt",
          "type": "uint256"
        },
        {
          "internalType": "bool",
          "name": "active",
          "type": "bool"
        }
      ],
      "stateMutability": "view",
      "type": "function"
    }
  ],
  "bytecode": "0x608080604052346015576115e1908161001a8239f35b5f80fdfe6080806040526004361015610012575f80fd5b5f3560e01c9081631e99d5691461118f57508063224a64c5146111745780634f489587146110df57806350d55afc14610fb857806364d60d9114610f2657806369f161c414610f01578063894e9a0d14610ddd5780638aa2855014610dc25780638fc49ef8146106d1578063aaad3171146103ad578063cd9e3fe81461016a5763eb91d37e146100a0575f80fd5b34610166575f36600319011261016657602460606001600160a01b036100c461157c565b6040516349f4fc0360e11b8152665193148bd554d160c21b600482015293849290918391165afa90811561015b576060915f905f809161011f575b6001600160401b039293506040519384525f0b6020840152166040820152f35b5050506101496001600160401b0391833d8511610154575b61014181836111f3565b810190611381565b9192508291906100ff565b503d610137565b6040513d5f823e3d90fd5b5f80fd5b6060366003190112610166576001600160a01b036004358181169081900361016657602490813560443582156103785781156103415780156103065734156102cf575f54935f1985146102bc5750836008602096600183015f55604051906101d1826111a8565b3382528882018781526040830187815260608401878152608085019034825260a08601925f845260c087019442865260e088019642885261010089019a60018c525f528f600190528060405f20995116906bffffffffffffffffffffffff60a01b91828b5416178a5560018a0192511690825416179055516002870155516003860155516004850155516005840155516006830155516007820155019051151560ff8019835416911617905560405191825284820152346040820152827f8d3a4d9a98c71920c13665fb97f1a612978391e661f9a17fa5390f60e7424d5c60603393a4604051908152f35b634e487b7160e01b5f9081526011600452fd5b60405162461bcd60e51b8152602060048201526010818601526f26bab9ba103232b837b9b4ba1023262960811b6044820152606490fd5b60405162461bcd60e51b815260206004820152601481860152730496e74657276616c206d757374206265203e20360641b6044820152606490fd5b60405162461bcd60e51b8152602060048201526010818601526f052617465206d757374206265203e20360841b6044820152606490fd5b60405162461bcd60e51b815260206004820152600e818601526d24b73b30b634b2103bb7b935b2b960911b6044820152606490fd5b346101665760403660031901126101665760043560243590805f52600160205260405f209160088301908154906103e660ff8316611243565b6001850180546001600160a01b03908116949192919033861480156106c5575b1561068f57600688019361042b610423865460038c0154906112ce565b4210156112db565b831561065c578161043a61157c565b16926040519687946349f4fc0360e11b8652665193148bd554d160c21b600487015285602460609788935afa9a8b1561015b575f985f9c610636575b506104828915156113b6565b88600282019c8d549060ff16610497906113fb565b6104a09161140c565b906104aa9161141f565b97856104b46114d8565b1687604051809263dbdff2c160e01b8252815a91600492fa90811561015b575f985f92610600575b50505f97816105f4575b506105c1575b6005600483015492019081546105028185611283565b808c116105b9575b508a7fc19610f89e56b6eecf2ea73c5f596ebc3ae5f3d02739aa531cde2fb4dacbbb739d6105a79b9a999897610575975f9788978897610556878a9961055182151561143d565b6112ce565b80925542905510156105ac575b50505af161056f611290565b5061147b565b5416975494604051958695869192608093969594919660a0840197845260208401526040830152151560608201520152565b0390a3005b60ff191690555f80610563565b9a508f61050a565b9550968060011b90808204600214901517156105e057966001956104ec565b634e487b7160e01b5f52601160045260245ffd5b600a915006158e6104e6565b61062493995080919250903d1061062f575b61061c81836111f3565b810190611221565b509690968e806104dc565b503d610612565b909b50610651919850853d87116101545761014181836111f3565b509790979a8c610476565b60405162461bcd60e51b815260206004820152600b60248201526a4e6f20616374697669747960a81b6044820152606490fd5b60405162461bcd60e51b815260206004820152600e60248201526d139bdd08185d5d1a1bdc9a5e995960921b6044820152606490fd5b50808854163314610406565b3461016657600319604036820112610166576001600160401b03602435116101665760409060243536030112610166576004355f52600160205260405f20600881015461072060ff8216611243565b60018201546001600160a01b031633819003610d8c5761074c61042360068501546003860154906112ce565b604051602081019060208252600f60408201526e233231ab32b934b334b1b0ba34b7b760891b606082015260608152610784816111d8565b51902060405190630ac9aa5160e11b8252600482015260208160248173ad67fe66660fb8dfe9d6b1b4240d8650e30f60195afa90811561015b575f91610d5d575b5060405190630aa05fe360e01b8252602060048301526024356004013591602219928360243536030181121561016657602435016024600482013591016001600160401b038211610166578160051b9182360382136101665760406024850152606484018190526001600160fb1b0310610166578190608484013781016024803501359260c21960243536030184121561016657602435840190606084840301604485015260048201356084840152602482013560a48401526001600160401b036108926044840161131c565b1660c48401526001600160401b036108ac6064840161131c565b1660e484015236829003608483013560e219820181121561016657836109c591016004810160c06101048801526109b56108fc6108e98380611330565b60e06101448c01526102248b0191611361565b9160c46109ad61098f6109706109518d61093261091c60248c0189611330565b61014319848d0381016101648601529b91611361565b9061094060448c0189611330565b916101848c82860301910152611361565b8d61095f60648b0188611330565b916101a48b82860301910152611361565b8c61097e60848a0187611330565b916101c48a82860301910152611361565b61099c60a4880185611330565b8d830388016101e48f015290611361565b940190611330565b9188840301610204890152611361565b928760a4820135920182121561016657610a0b869460206109fe8198600489979688970101906101246083198287030191015280611330565b9190928181520191611361565b03916001600160a01b03165afa90811561015b575f91610d23575b5015610cea576024350160a481013590828136030182121561016657016004810135918136030182121561016657019160048301356001600160401b0381116101665760248401938136038513610166576020918101031261016657823515610cae57602460606001600160a01b03610a9d61157c565b6040516349f4fc0360e11b8152665193148bd554d160c21b600482015293849290918391165afa91821561015b575f915f93610c80575b50610b0782610b028195610aeb60049615156113b6565b610afc60028b01549160ff166113fb565b9061140c565b61141f565b9060606001600160a01b03610b1a6114d8565b166040519485809263dbdff2c160e01b82525afa90811561015b5787915f945f91610c5a575b505f9481610c4e575b50610c2e575b94817fc19610f89e56b6eecf2ea73c5f596ebc3ae5f3d02739aa531cde2fb4dacbbb739660046105a795940154600583018054610b8c8184611283565b808811610c24575b50610bcd955f95869586958695610bb28c809761055182151561143d565b8091554260068501551015610c135750505af161056f611290565b600260018060a01b0360018901541697015492604051948594600435983593869192608093969594919660a0840197845260208401526040830152151560608201520152565b60089060ff19169101558d8f610563565b9650610bcd610b94565b9250508060011b90808204600214901517156105e0576001918690610b4f565b600a9150061589610b49565b9050610c7691945060603d60601161062f5761061c81836111f3565b5093909389610b40565b610b02935060049250610ca4610b079160603d6060116101545761014181836111f3565b5094509250610ad4565b60405162461bcd60e51b81526020600482015260146024820152734e6f20766572696669656420616374697669747960601b6044820152606490fd5b60405162461bcd60e51b815260206004820152601160248201527024b73b30b634b21023222190383937b7b360791b6044820152606490fd5b90506020813d602011610d55575b81610d3e602093836111f3565b8101031261016657610d4f90611214565b86610a26565b3d9150610d31565b610d7f915060203d602011610d85575b610d7781836111f3565b8101906114b9565b846107c5565b503d610d6d565b60405162461bcd60e51b815260206004820152600e60248201526d2737ba103a3432903bb7b935b2b960911b6044820152606490fd5b34610166575f36600319011261016657602060405160028152f35b3461016657602036600319011261016657610120604051610dfd816111a8565b5f81525f60208201525f60408201525f60608201525f60808201525f60a08201525f60c08201525f60e08201525f610100809201526004355f52600160205260405f2090604051610e4d816111a8565b60018060a01b039283815416938483528060018301541690602084019182526002830154604085019081526003840154606086019081526004850154916080870192835260058601549360a0880194855260068701549560c089019687528960ff600860078b01549a60e08d019b8c52015416990198151589526040519a8b52511660208a01525160408901525160608801525160808701525160a08601525160c08501525160e084015251151590820152f35b34610166575f36600319011261016657604051665193148bd554d160c21b8152602090f35b34610166576020366003190112610166576004355f52600160205261012060405f2060018060a01b039081815416916001820154169060028101546003820154600483015460058401549160068501549360ff600860078801549701541696604051988952602089015260408801526060870152608086015260a085015260c084015260e08301521515610100820152f35b34610166576020366003190112610166576004355f81815260016020526040902080546001600160a01b031690338290036110a757600881018054610fff60ff8216611243565b60ff1916905561101a60056004830154920191825490611283565b9182611056575b507faaf3ecb4577772367b3bf3e2b4fb8682f9444cc4ec121a6710f191c485ef6c3c91604091549082519182526020820152a2005b5f80808581945af1611066611290565b50156110725783611021565b60405162461bcd60e51b815260206004820152600d60248201526c1499599d5b990819985a5b1959609a1b6044820152606490fd5b60405162461bcd60e51b815260206004820152601060248201526f2737ba103a34329032b6b83637bcb2b960811b6044820152606490fd5b34610166575f36600319011261016657600460606001600160a01b036111036114d8565b166040519283809263dbdff2c160e01b82525afa90811561015b576060915f915f91611154575b508080611148575b6040519283521515602083015215156040820152f35b600a8306159150611132565b905061116d9150823d841161062f5761061c81836111f3565b508361112a565b34610166575f366003190112610166576020604051600a8152f35b34610166575f366003190112610166576020905f548152f35b61012081019081106001600160401b038211176111c457604052565b634e487b7160e01b5f52604160045260245ffd5b608081019081106001600160401b038211176111c457604052565b90601f801991011681019081106001600160401b038211176111c457604052565b5190811515820361016657565b9081606091031261016657805191604061123d60208401611214565b92015190565b1561124a57565b60405162461bcd60e51b815260206004820152601160248201527053747265616d206e6f742061637469766560781b6044820152606490fd5b919082039182116105e057565b3d156112c9573d906001600160401b0382116111c457604051916112be601f8201601f1916602001846111f3565b82523d5f602084013e565b606090565b919082018092116105e057565b156112e257565b60405162461bcd60e51b8152602060048201526012602482015271546f6f206561726c7920746f20636c61696d60701b6044820152606490fd5b35906001600160401b038216820361016657565b9035601e19823603018112156101665701602081359101916001600160401b03821161016657813603831361016657565b908060209392818452848401375f828201840152601f01601f1916010190565b90816060910312610166578051916020820151805f0b8103610166576040909201516001600160401b03811681036101665790565b156113bd57565b60405162461bcd60e51b81526020600482015260166024820152754654534f20707269636520756e617661696c61626c6560501b6044820152606490fd5b60ff16604d81116105e057600a0a90565b818102929181159184041417156105e057565b8115611429570490565b634e487b7160e01b5f52601260045260245ffd5b1561144457565b60405162461bcd60e51b815260206004820152600f60248201526e14dd1c99585b4819195c1b195d1959608a1b6044820152606490fd5b1561148257565b60405162461bcd60e51b815260206004820152600f60248201526e151c985b9cd9995c8819985a5b1959608a1b6044820152606490fd5b9081602091031261016657516001600160a01b03811681036101665790565b604051602081019060208252600e60408201526d2930b73237b6a73ab6b132b92b1960911b60608201526060815261150f816111d8565b51902060405190630ac9aa5160e11b8252600482015260208160248173ad67fe66660fb8dfe9d6b1b4240d8650e30f60195afa90811561015b575f9161155d575b506001600160a01b031690565b611576915060203d602011610d8557610d7781836111f3565b5f611550565b6040516020810190602082526006604082015265233a39b7ab1960d11b60608201526060815261150f816111d856fea2646970667358221220fe22cfa7c84c80173ece37e904e4acb06e24880bf9d0dfdf7e4482d1874a31a064736f6c63430008190033",
  "linkReferences": {},
  "deployedLinkReferences": {}
}