{
  "_format": "hh-sol-artifact-1",
  "contractName": "InstantPayroll",
  "sourceName": "contracts/InstantPayroll.sol",
  "abi": [
    {
      "anonymous": false,
      "inputs": [
        {
          "indexed": true,
          "internalType": "uint256",
          "name": "streamId",
          "type": "uint256"
        },
        {
          "indexed": true,
          "internalType": "address",
          "name": "worker",
          "type": "address"
        },
        {
          "indexed": false,
          "internalType": "uint256",
          "name": "amountFLR",
          "type": "uint256"
        },
        {
          "indexed": false,
          "internalType": "uint256",
          "name": "amountUSD",
          "type": "uint256"
        },
        {
          "indexed": false,
          "internalType": "uint256",
          "name": "flrUsdPrice",
          "type": "uint256"
        },
        {
          "indexed": false,
          "internalType": "bool",
          "name": "bonusTriggered",
          "type": "bool"
        },
        {
          "indexed": false,
          "internalType": "uint256",
          "name": "commitCount",
          "type": "uint256"
        }
      ],
      "name": "PaymentClaimed",
      "type": "event"
    },
    {
      "anonymous": false,
      "inputs": [
        {
          "indexed": true,
          "internalType": "uint256",
          "name": "streamId",
          "type": "uint256"
        },
        {
          "indexed": true,
          "internalType": "address",
          "name": "employer",
          "type": "address"
        },
        {
          "indexed": true,
          "internalType": "address",
          "name": "worker",
          "type": "address"
        },
        {
          "indexed": false,
          "internalType": "uint256",
          "name": "usdRatePerInterval",
          "type": "uint256"
        },
        {
          "indexed": false,
          "internalType": "uint256",
          "name": "claimInterval",
          "type": "uint256"
        },
        {
          "indexed": false,
          "internalType": "uint256",
          "name": "totalDeposit",
          "type": "uint256"
        }
      ],
      "name": "StreamCreated",
      "type": "event"
    },
    {
      "anonymous": false,
      "inputs": [
        {
          "indexed": true,
          "internalType": "uint256",
          "name": "streamId",
          "type": "uint256"
        },
        {
          "indexed": false,
          "internalType": "uint256",
          "name": "totalClaimed",
          "type": "uint256"
        },
        {
          "indexed": false,
          "internalType": "uint256",
          "name": "refunded",
          "type": "uint256"
        }
      ],
      "name": "StreamEnded",
      "type": "event"
    },
    {
      "inputs": [],
      "name": "BONUS_DIVISOR",
      "outputs": [
        {
          "internalType": "uint256",
          "name": "",
          "type": "uint256"
        }
      ],
      "stateMutability": "view",
      "type": "function"
    },
    {
      "inputs": [],
      "name": "BONUS_MULTIPLIER",
      "outputs": [
        {
          "internalType": "uint256",
          "name": "",
          "type": "uint256"
        }
      ],
      "stateMutability": "view",
      "type": "function"
    },
    {
      "inputs": [],
      "name": "FLR_USD_FEED_ID",
      "outputs": [
        {
          "internalType": "bytes21",
          "name": "",
          "type": "bytes21"
        }
      ],
      "stateMutability": "view",
      "type": "function"
    },
    {
      "inputs": [],
      "name": "checkBonusStatus",
      "outputs": [
        {
          "internalType": "uint256",
          "name": "randomNumber",
          "type": "uint256"
        },
        {
          "internalType": "bool",
          "name": "isSecure",
          "type": "bool"
        },
        {
          "internalType": "bool",
          "name": "wouldTrigger",
          "type": "bool"
        }
      ],
      "stateMutability": "view",
      "type": "function"
    },
    {
      "inputs": [
        {
          "internalType": "uint256",
          "name": "_streamId",
          "type": "uint256"
        },
        {
          "components": [
            {
              "internalType": "bytes32[]",
              "name": "merkleProof",
              "type": "bytes32[]"
            },
            {
              "components": [
                {
                  "internalType": "bytes32",
                  "name": "attestationType",
                  "type": "bytes32"
                },
                {
                  "internalType": "bytes32",
                  "name": "sourceId",
                  "type": "bytes32"
                },
                {
                  "internalType": "uint64",
                  "name": "votingRound",
                  "type": "uint64"
                },
                {
                  "internalType": "uint64",
                  "name": "lowestUsedTimestamp",
                  "type": "uint64"
                },
                {
                  "components": [
                    {
                      "internalType": "string",
                      "name": "url",
                      "type": "string"
                    },
                    {
                      "internalType": "string",
                      "name": "httpMethod",
                      "type": "string"
                    },
                    {
                      "internalType": "string",
                      "name": "headers",
                      "type": "string"
                    },
                    {
                      "internalType": "string",
                      "name": "queryParams",
                      "type": "string"
                    },
                    {
                      "internalType": "string",
                      "name": "body",
                      "type": "string"
                    },
                    {
                      "internalType": "string",
                      "name": "postProcessJq",
                      "type": "string"
                    },
                    {
                      "internalType": "string",
                      "name": "abiSignature",
                      "type": "string"
                    }
                  ],
                  "internalType": "struct IWeb2Json.RequestBody",
                  "name": "requestBody",
                  "type": "tuple"
                },
                {
                  "components": [
                    {
                      "internalType": "bytes",
                      "name": "abiEncodedData",
                      "type": "bytes"
                    }
                  ],
                  "internalType": "struct IWeb2Json.ResponseBody",
                  "name": "responseBody",
                  "type": "tuple"
                }
              ],
              "internalType": "struct IWeb2Json.Response",
              "name": "data",
              "type": "tuple"
            }
          ],
          "internalType": "struct IWeb2Json.Proof",
          "name": "_proof",
          "type": "tuple"
        }
      ],
      "name": "claim",
      "outputs": [],
      "stateMutability": "nonpayable",
      "type": "function"
    },
    {
      "inputs": [
        {
          "internalType": "address",
          "name": "_worker",
          "type": "address"
        },
        {
          "internalType": "uint256",
          "name": "_usdRatePerInterval",
          "type": "uint256"
        },
        {
          "internalType": "uint256",
          "name": "_claimInterval",
          "type": "uint256"
        }
      ],
      "name": "createStream",
      "outputs": [
        {
          "internalType": "uint256",
          "name": "streamId",
          "type": "uint256"
        }
      ],
      "stateMutability": "payable",
      "type": "function"
    },
    {
      "inputs": [
        {
          "internalType": "uint256",
          "name": "_streamId",
          "type": "uint256"
        }
      ],
      "name": "endStream",
      "outputs": [],
      "stateMutability": "nonpayable",
      "type": "function"
    },
    {
      "inputs": [],
      "name": "getCurrentPrice",
      "outputs": [
        {
          "internalType": "uint256",
          "name": "price",
          "type": "uint256"
        },
        {
          "internalType": "int8",
          "name": "decimals",
          "type": "int8"
        },
        {
          "internalType": "uint64",
          "name": "timestamp",
          "type": "uint64"
        }
      ],
      "stateMutability": "view",
      "type": "function"
    },
    {
      "inputs": [
        {
          "internalType": "uint256",
          "name": "_streamId",
          "type": "uint256"
        }
      ],
      "name": "getStream",
      "outputs": [
        {
          "components": [
            {
              "internalType": "address",
              "name": "employer",
              "type": "address"
            },
            {
              "internalType": "address",
              "name": "worker",
              "type": "address"
            },
            {
              "internalType": "uint256",
              "name": "usdRatePerInterval",
              "type": "uint256"
            },
            {
              "internalType": "uint256",
              "name": "claimInterval",
              "type": "uint256"
            },
            {
              "internalType": "uint256",
              "name": "totalDeposit",
              "type": "uint256"
            },
            {
              "internalType": "uint256",
              "name": "totalClaimed",
              "type": "uint256"
            },
            {
              "internalType": "uint256",
              "name": "lastClaimTime",
              "type": "uint256"
            },
            {
              "internalType": "uint256",
              "name": "createdAt",
              "type": "uint256"
            },
            {
              "internalType": "bool",
              "name": "active",
              "type": "bool"
            }
          ],
          "internalType": "struct InstantPayroll.Stream",
          "name": "",
          "type": "tuple"
        }
      ],
      "stateMutability": "view",
      "type": "function"
    },
    {
      "inputs": [],
      "name": "nextStreamId",
      "outputs": [
        {
          "internalType": "uint256",
          "name": "",
          "type": "uint256"
        }
      ],
      "stateMutability": "view",
      "type": "function"
    },
    {
      "inputs": [
        {
          "internalType": "uint256",
          "name": "",
          "type": "uint256"
        }
      ],
      "name": "streams",
      "outputs": [
        {
          "internalType": "address",
          "name": "employer",
          "type": "address"
        },
        {
          "internalType": "address",
          "name": "worker",
          "type": "address"
        },
        {
          "internalType": "uint256",
          "name": "usdRatePerInterval",
          "type": "uint256"
        },
        {
          "internalType": "uint256",
          "name": "claimInterval",
          "type": "uint256"
        },
        {
          "internalType": "uint256",
          "name": "totalDeposit",
          "type": "uint256"
        },
        {
          "internalType": "uint256",
          "name": "totalClaimed",
          "type": "uint256"
        },
        {
          "internalType": "uint256",
          "name": "lastClaimTime",
          "type": "uint256"
        },
        {
          "internalType": "uint256",
          "name": "createdAt",
          "type": "uint256"
        },
        {
          "internalType": "bool",
          "name": "active",
          "type": "bool"
        }
      ],
      "stateMutability": "view",
      "type": "function"
    }
  ],
  "bytecode": "0x608080604052346015576112d2908161001a8239f35b5f80fdfe6080806040526004361015610012575f80fd5b5f3560e01c9081631e99d56914610fc457508063224a64c514610fa95780634f48958714610f1457806350d55afc14610ded57806364d60d9114610d5b57806369f161c414610d36578063894e9a0d14610c125780638aa2855014610bf75780638fc49ef8146103a2578063cd9e3fe81461015f5763eb91d37e14610095575f80fd5b3461015b575f36600319011261015b57602460606001600160a01b036100b961126d565b6040516349f4fc0360e11b8152665193148bd554d160c21b600482015293849290918391165afa908115610150576060915f905f8091610114575b6001600160401b039293506040519384525f0b6020840152166040820152f35b50505061013e6001600160401b0391833d8511610149575b6101368183611028565b810190611175565b9192508291906100f4565b503d61012c565b6040513d5f823e3d90fd5b5f80fd5b606036600319011261015b576001600160a01b036004358181169081900361015b576024908135604435821561036d5781156103365780156102fb5734156102c4575f54935f1985146102b15750836008602096600183015f55604051906101c682610fdd565b3382528882018781526040830187815260608401878152608085019034825260a08601925f845260c087019442865260e088019642885261010089019a60018c525f528f600190528060405f20995116906bffffffffffffffffffffffff60a01b91828b5416178a5560018a0192511690825416179055516002870155516003860155516004850155516005840155516006830155516007820155019051151560ff8019835416911617905560405191825284820152346040820152827f8d3a4d9a98c71920c13665fb97f1a612978391e661f9a17fa5390f60e7424d5c60603393a4604051908152f35b634e487b7160e01b5f9081526011600452fd5b60405162461bcd60e51b8152602060048201526010818601526f26bab9ba103232b837b9b4ba1023262960811b6044820152606490fd5b60405162461bcd60e51b815260206004820152601481860152730496e74657276616c206d757374206265203e20360641b6044820152606490fd5b60405162461bcd60e51b8152602060048201526010818601526f052617465206d757374206265203e20360841b6044820152606490fd5b60405162461bcd60e51b815260206004820152600e818601526d24b73b30b634b2103bb7b935b2b960911b6044820152606490fd5b3461015b5760031960403682011261015b576001600160401b036024351161015b576040906024353603011261015b576004355f52600160205260405f2060088101546103f160ff8216611078565b60018201546001600160a01b03169033829003610bc15761041b6006840154600385015490611103565b4210610b8757604051602081019060208252600f60408201526e233231ab32b934b334b1b0ba34b7b760891b6060820152606081526104598161100d565b51902060405190630ac9aa5160e11b8252600482015260208160248173ad67fe66660fb8dfe9d6b1b4240d8650e30f60195afa908115610150575f91610b58575b5060405190630aa05fe360e01b8252602060048301526024356004013560221960243536030181121561015b5760243501906024600483013592016001600160401b03831161015b578260051b92833603821361015b5760406024860152606485018190526001600160fb1b031061015b578290608485013760c219602435360301602480350135121561015b57818301838103606001604480860191909152602480358082013501600481013560848501529081013560a4909301929092526001600160401b039161056d9101611110565b1660c483850101526001600160401b0361059260646024356024803501350101611110565b1683830160e401526024803590810135013681900391906084013560e219830181121561015b5760243560243560240135010160048101908486016101040160c090526105df8280611124565b8688016101440160e0905286880161022401906105fb92611155565b916106096024830182611124565b93610143199485898b01830301898b01610164015261062792611155565b6106346044840183611124565b89890180840387016101849091015261064d9291611155565b61065a6064840183611124565b89890180840387016101a4909101526106739291611155565b6106806084840183611124565b89890180840387016101c4909101526106999291611155565b6106a660a4840183611124565b89890180840387016101e4909101526106bf9291611155565b9160c4016106cc91611124565b909286880183030186880161020401526106e592611155565b916022190160a46024803590810135010135121561015b57918301808203608319016101249190910152602091839182908190610746908661073960a4602480359081013501908101350160040180611124565b9190928181520191611155565b03916001600160a01b03165afa908115610150575f91610b1e575b5015610ae5576024803501356024350160a4810135906022198136030182121561015b57016004810135906022198136030182121561015b57019060048201356001600160401b03811161015b576024830192813603841361015b576020918101031261015b57813515610aa957602460606001600160a01b036107e361126d565b6040516349f4fc0360e11b8152665193148bd554d160c21b600482015293849290918391165afa918215610150575f915f93610a85575b508115610a475760ff60028701549316604d81116109f157600a0a9280848102048414811517156109f157909202819004936004929060606001600160a01b036108626111c9565b166040519586809263dbdff2c160e01b82525afa8015610150575f945f91610a11575b505f9481610a05575b506109d2575b6004870154916005880154926108aa84826110b8565b8089116109ca575b50871561099357875f949385949385949360058d6108d1868998611103565b91018190554260068f01551015610984575b505af16108ee6110c5565b501561094d57600260018060a01b0360018701541695015460405194855260208501526040840152151560608301523560808201527fc19610f89e56b6eecf2ea73c5f596ebc3ae5f3d02739aa531cde2fb4dacbbb7360a060043592a3005b60405162461bcd60e51b815260206004820152600f60248201526e151c985b9cd9995c8819985a5b1959608a1b6044820152606490fd5b60ff191660088c01558b6108e3565b60405162461bcd60e51b815260206004820152600f60248201526e14dd1c99585b4819195c1b195d1959608a1b6044820152606490fd5b9750896108b2565b9250938060011b90808204600214901517156109f15793600192610894565b634e487b7160e01b5f52601160045260245ffd5b600a915006158861088e565b9050610a3691945060603d606011610a40575b610a2e8183611028565b810190611056565b5093909388610885565b503d610a24565b60405162461bcd60e51b81526020600482015260166024820152754654534f20707269636520756e617661696c61626c6560501b6044820152606490fd5b909250610aa1915060603d606011610149576101368183611028565b50918661081a565b60405162461bcd60e51b81526020600482015260146024820152734e6f20766572696669656420616374697669747960601b6044820152606490fd5b60405162461bcd60e51b815260206004820152601160248201527024b73b30b634b21023222190383937b7b360791b6044820152606490fd5b90506020813d602011610b50575b81610b3960209383611028565b8101031261015b57610b4a90611049565b84610761565b3d9150610b2c565b610b7a915060203d602011610b80575b610b728183611028565b8101906111aa565b8461049a565b503d610b68565b60405162461bcd60e51b8152602060048201526012602482015271546f6f206561726c7920746f20636c61696d60701b6044820152606490fd5b60405162461bcd60e51b815260206004820152600e60248201526d2737ba103a3432903bb7b935b2b960911b6044820152606490fd5b3461015b575f36600319011261015b57602060405160028152f35b3461015b57602036600319011261015b57610120604051610c3281610fdd565b5f81525f60208201525f60408201525f60608201525f60808201525f60a08201525f60c08201525f60e08201525f610100809201526004355f52600160205260405f2090604051610c8281610fdd565b60018060a01b039283815416938483528060018301541690602084019182526002830154604085019081526003840154606086019081526004850154916080870192835260058601549360a0880194855260068701549560c089019687528960ff600860078b01549a60e08d019b8c52015416990198151589526040519a8b52511660208a01525160408901525160608801525160808701525160a08601525160c08501525160e084015251151590820152f35b3461015b575f36600319011261015b57604051665193148bd554d160c21b8152602090f35b3461015b57602036600319011261015b576004355f52600160205261012060405f2060018060a01b039081815416916001820154169060028101546003820154600483015460058401549160068501549360ff600860078801549701541696604051988952602089015260408801526060870152608086015260a085015260c084015260e08301521515610100820152f35b3461015b57602036600319011261015b576004355f81815260016020526040902080546001600160a01b03169033829003610edc57600881018054610e3460ff8216611078565b60ff19169055610e4f600560048301549201918254906110b8565b9182610e8b575b507faaf3ecb4577772367b3bf3e2b4fb8682f9444cc4ec121a6710f191c485ef6c3c91604091549082519182526020820152a2005b5f80808581945af1610e9b6110c5565b5015610ea75783610e56565b60405162461bcd60e51b815260206004820152600d60248201526c1499599d5b990819985a5b1959609a1b6044820152606490fd5b60405162461bcd60e51b815260206004820152601060248201526f2737ba103a34329032b6b83637bcb2b960811b6044820152606490fd5b3461015b575f36600319011261015b57600460606001600160a01b03610f386111c9565b166040519283809263dbdff2c160e01b82525afa908115610150576060915f915f91610f89575b508080610f7d575b6040519283521515602083015215156040820152f35b600a8306159150610f67565b9050610fa29150823d8411610a4057610a2e8183611028565b5083610f5f565b3461015b575f36600319011261015b576020604051600a8152f35b3461015b575f36600319011261015b576020905f548152f35b61012081019081106001600160401b03821117610ff957604052565b634e487b7160e01b5f52604160045260245ffd5b608081019081106001600160401b03821117610ff957604052565b90601f801991011681019081106001600160401b03821117610ff957604052565b5190811515820361015b57565b9081606091031261015b57805191604061107260208401611049565b92015190565b1561107f57565b60405162461bcd60e51b815260206004820152601160248201527053747265616d206e6f742061637469766560781b6044820152606490fd5b919082039182116109f157565b3d156110fe573d906001600160401b038211610ff957604051916110f3601f8201601f191660200184611028565b82523d5f602084013e565b606090565b919082018092116109f157565b35906001600160401b038216820361015b57565b9035601e198236030181121561015b5701602081359101916001600160401b03821161015b57813603831361015b57565b908060209392818452848401375f828201840152601f01601f1916010190565b9081606091031261015b578051916020820151805f0b810361015b576040909201516001600160401b038116810361015b5790565b9081602091031261015b57516001600160a01b038116810361015b5790565b604051602081019060208252600e60408201526d2930b73237b6a73ab6b132b92b1960911b6060820152606081526112008161100d565b51902060405190630ac9aa5160e11b8252600482015260208160248173ad67fe66660fb8dfe9d6b1b4240d8650e30f60195afa908115610150575f9161124e575b506001600160a01b031690565b611267915060203d602011610b8057610b728183611028565b5f611241565b6040516020810190602082526006604082015265233a39b7ab1960d11b6060820152606081526112008161100d56fea26469706673582212205933503c803dbdff6e3ff04ac90da253c8ec284cd830b6944fca4b60a223c82264736f6c63430008190033",
  "linkReferences": {},
  "deployedLinkReferences": {}
}