{
  "_format": "hh-sol-artifact-1",
  "contractName": "InstantPayrollPayout",
  "sourceName": "contracts/InstantPayrollPayout.sol",
  "abi": [
    {
      "inputs": [
        {
          "internalType": "address",
          "name": "_relayer",
          "type": "address"
        }
      ],
      "stateMutability": "nonpayable",
      "type": "constructor"
    },
    {
      "anonymous": false,
      "inputs": [
        {
          "indexed": true,
          "internalType": "address",
          "name": "worker",
          "type": "address"
        },
        {
          "indexed": true,
          "internalType": "uint256",
          "name": "flareStreamId",
          "type": "uint256"
        },
        {
          "indexed": false,
          "internalType": "uint256",
          "name": "amountFLR",
          "type": "uint256"
        },
        {
          "indexed": false,
          "internalType": "uint256",
          "name": "amountUSD",
          "type": "uint256"
        },
        {
          "indexed": false,
          "internalType": "bool",
          "name": "bonusTriggered",
          "type": "bool"
        },
        {
          "indexed": false,
          "internalType": "uint256",
          "name": "commitCount",
          "type": "uint256"
        }
      ],
      "name": "PayoutRecorded",
      "type": "event"
    },
    {
      "inputs": [
        {
          "internalType": "address",
          "name": "_worker",
          "type": "address"
        }
      ],
      "name": "getAllPayouts",
      "outputs": [
        {
          "components": [
            {
              "internalType": "uint256",
              "name": "flareStreamId",
              "type": "uint256"
            },
            {
              "internalType": "uint256",
              "name": "amountFLR",
              "type": "uint256"
            },
            {
              "internalType": "uint256",
              "name": "amountUSD",
              "type": "uint256"
            },
            {
              "internalType": "uint256",
              "name": "timestamp",
              "type": "uint256"
            },
            {
              "internalType": "bool",
              "name": "bonusTriggered",
              "type": "bool"
            },
            {
              "internalType": "uint256",
              "name": "commitCount",
              "type": "uint256"
            }
          ],
          "internalType": "struct InstantPayrollPayout.Payout[]",
          "name": "",
          "type": "tuple[]"
        }
      ],
      "stateMutability": "view",
      "type": "function"
    },
    {
      "inputs": [
        {
          "internalType": "address",
          "name": "_worker",
          "type": "address"
        },
        {
          "internalType": "uint256",
          "name": "_index",
          "type": "uint256"
        }
      ],
      "name": "getPayout",
      "outputs": [
        {
          "components": [
            {
              "internalType": "uint256",
              "name": "flareStreamId",
              "type": "uint256"
            },
            {
              "internalType": "uint256",
              "name": "amountFLR",
              "type": "uint256"
            },
            {
              "internalType": "uint256",
              "name": "amountUSD",
              "type": "uint256"
            },
            {
              "internalType": "uint256",
              "name": "timestamp",
              "type": "uint256"
            },
            {
              "internalType": "bool",
              "name": "bonusTriggered",
              "type": "bool"
            },
            {
              "internalType": "uint256",
              "name": "commitCount",
              "type": "uint256"
            }
          ],
          "internalType": "struct InstantPayrollPayout.Payout",
          "name": "",
          "type": "tuple"
        }
      ],
      "stateMutability": "view",
      "type": "function"
    },
    {
      "inputs": [
        {
          "internalType": "address",
          "name": "_worker",
          "type": "address"
        }
      ],
      "name": "getPayoutCount",
      "outputs": [
        {
          "internalType": "uint256",
          "name": "",
          "type": "uint256"
        }
      ],
      "stateMutability": "view",
      "type": "function"
    },
    {
      "inputs": [
        {
          "internalType": "address",
          "name": "_worker",
          "type": "address"
        },
        {
          "internalType": "uint256",
          "name": "_flareStreamId",
          "type": "uint256"
        },
        {
          "internalType": "uint256",
          "name": "_amountFLR",
          "type": "uint256"
        },
        {
          "internalType": "uint256",
          "name": "_amountUSD",
          "type": "uint256"
        },
        {
          "internalType": "bool",
          "name": "_bonusTriggered",
          "type": "bool"
        },
        {
          "internalType": "uint256",
          "name": "_commitCount",
          "type": "uint256"
        }
      ],
      "name": "recordPayout",
      "outputs": [],
      "stateMutability": "nonpayable",
      "type": "function"
    },
    {
      "inputs": [],
      "name": "relayer",
      "outputs": [
        {
          "internalType": "address",
          "name": "",
          "type": "address"
        }
      ],
      "stateMutability": "view",
      "type": "function"
    },
    {
      "inputs": [
        {
          "internalType": "address",
          "name": "",
          "type": "address"
        }
      ],
      "name": "totalEarnedUSD",
      "outputs": [
        {
          "internalType": "uint256",
          "name": "",
          "type": "uint256"
        }
      ],
      "stateMutability": "view",
      "type": "function"
    },
    {
      "inputs": [
        {
          "internalType": "address",
          "name": "",
          "type": "address"
        },
        {
          "internalType": "uint256",
          "name": "",
          "type": "uint256"
        }
      ],
      "name": "workerPayouts",
      "outputs": [
        {
          "internalType": "uint256",
          "name": "flareStreamId",
          "type": "uint256"
        },
        {
          "internalType": "uint256",
          "name": "amountFLR",
          "type": "uint256"
        },
        {
          "internalType": "uint256",
          "name": "amountUSD",
          "type": "uint256"
        },
        {
          "internalType": "uint256",
          "name": "timestamp",
          "type": "uint256"
        },
        {
          "internalType": "bool",
          "name": "bonusTriggered",
          "type": "bool"
        },
        {
          "internalType": "uint256",
          "name": "commitCount",
          "type": "uint256"
        }
      ],
      "stateMutability": "view",
      "type": "function"
    }
  ],
  "bytecode": "0x608034606f57601f6106a338819003918201601f19168301916001600160401b03831184841017607357808492602094604052833981010312606f57516001600160a01b03811690819003606f575f80546001600160a01b03191691909117905560405161061b90816100888239f35b5f80fd5b634e487b7160e01b5f52604160045260245ffdfe608060409080825260049081361015610016575f80fd5b5f3560e01c908163285476a4146103815750806335ccdc3d1461034a578063565eea191461029f5780635a3e2c9c146101595780638406c07914610132578063bb515a53146100fb5763bed72e6f1461006d575f80fd5b346100f757816003193601126100f757610085610528565b6001600160a01b03165f908152600160205282902080546024359391908410156100f75760c0936100b59161053e565b50805492600182015492600283015490600560ff60038601549486015416940154948151968752602087015285015260608401521515608083015260a0820152f35b5f80fd5b82346100f75760203660031901126100f7576020906001600160a01b03610120610528565b165f5260028252805f20549051908152f35b82346100f7575f3660031901126100f7575f5490516001600160a01b039091168152602090f35b5090346100f7576020806003193601126100f7576001600160a01b0361017d610528565b165f5260019260018252825f2091825467ffffffffffffffff80821161028c57855193600583901b603f01601f1916850191821185831017610279575085528083525f938452818420828401969492939290875b83831061025257505050508351938285019183865251809252840194915f5b8281106101fd5785870386f35b909192938260c088610245849a895160a08091805184526020810151602085015260408101516040850152606081015160608501526080810151151560808501520151910152565b01979501939291016101f0565b95600686829a986102658599989961059f565b8152019201920191909795979493946101d1565b604190634e487b7160e01b5f525260245ffd5b604184634e487b7160e01b5f525260245ffd5b82346100f757806003193601126100f75760c0906102bb610528565b5f60a06102c661056b565b8281528260208201528285820152826060820152826080820152015260018060a01b03165f52600160205261034861030b610305602435845f2061053e565b5061059f565b9151809260a08091805184526020810151602085015260408101516040850152606081015160608501526080810151151560808501520151910152565bf35b82346100f75760203660031901126100f7576020906001600160a01b0361036f610528565b165f5260018252805f20549051908152f35b8284346100f75760c03660031901126100f75761039c610528565b6024359360443592606435608435928315158094036100f7575f5460a435956001600160a01b03929091831633036104f857501695865f526001602052825f206103e461056b565b90898252602082018881528583018581526060840190428252608085019289845260a08601948b8652805490680100000000000000008210156104e557906104319160018201815561053e565b9690966104d35790600595949392915187555160018701555160028601555160038501558484019051151560ff8019835416911617905551910155865f526002602052825f208054918383018093116104c05750558151948552602085015283015260608201527f712e1bc88e9e858ea516ab0ee842a2e4455085cab7ca66a45e3bf8053ad62c4790608090a3005b601190634e487b7160e01b5f525260245ffd5b5f88634e487b7160e01b82525260245ffd5b604189634e487b7160e01b5f525260245ffd5b62461bcd60e51b8152602089820152600c60248201526b27b7363c903932b630bcb2b960a11b6044820152606490fd5b600435906001600160a01b03821682036100f757565b8054821015610557575f52600660205f20910201905f90565b634e487b7160e01b5f52603260045260245ffd5b6040519060c0820182811067ffffffffffffffff82111761058b57604052565b634e487b7160e01b5f52604160045260245ffd5b9060056105aa61056b565b928054845260018101546020850152600281015460408501526003810154606085015260ff60048201541615156080850152015460a083015256fea2646970667358221220618d6ebb31023c198a4e14e7de8bb292a19e1e78103868cb6ada9e0f3eeab39f64736f6c63430008190033",
  "linkReferences": {},
  "deployedLinkReferences": {}
}