{
  "_format": "hh-sol-artifact-1",
  "contractName": "PlasmaPayroll",
  "sourceName": "contracts/PlasmaPayroll.sol",
  "abi": [
    {
      "inputs": [
        {
          "internalType": "contract IERC20",
          "name": "_usdc",
          "type": "address"
        }
      ],
      "stateMutability": "nonpayable",
      "type": "constructor"
    },
    {
      "inputs": [
        {
          "internalType": "address",
          "name": "token",
          "type": "address"
        }
      ],
      "name": "SafeERC20FailedOperation",
      "type": "error"
    },
    {
      "anonymous": false,
      "inputs": [
        {
          "indexed": true,
          "internalType": "uint256",
          "name": "streamId",
          "type": "uint256"
        },
        {
          "indexed": true,
          "internalType": "address",
          "name": "worker",
          "type": "address"
        },
        {
          "indexed": false,
          "internalType": "uint256",
          "name": "amount",
          "type": "uint256"
        },
        {
          "indexed": false,
          "internalType": "uint256",
          "name": "intervalsCount",
          "type": "uint256"
        }
      ],
      "name": "PaymentClaimed",
      "type": "event"
    },
    {
      "anonymous": false,
      "inputs": [
        {
          "indexed": true,
          "internalType": "uint256",
          "name": "streamId",
          "type": "uint256"
        },
        {
          "indexed": true,
          "internalType": "address",
          "name": "employer",
          "type": "address"
        },
        {
          "indexed": true,
          "internalType": "address",
          "name": "worker",
          "type": "address"
        },
        {
          "indexed": false,
          "internalType": "uint256",
          "name": "usdcPerInterval",
          "type": "uint256"
        },
        {
          "indexed": false,
          "internalType": "uint256",
          "name": "claimInterval",
          "type": "uint256"
        },
        {
          "indexed": false,
          "internalType": "uint256",
          "name": "totalDeposit",
          "type": "uint256"
        }
      ],
      "name": "StreamCreated",
      "type": "event"
    },
    {
      "anonymous": false,
      "inputs": [
        {
          "indexed": true,
          "internalType": "uint256",
          "name": "streamId",
          "type": "uint256"
        },
        {
          "indexed": false,
          "internalType": "uint256",
          "name": "totalClaimed",
          "type": "uint256"
        },
        {
          "indexed": false,
          "internalType": "uint256",
          "name": "refunded",
          "type": "uint256"
        }
      ],
      "name": "StreamEnded",
      "type": "event"
    },
    {
      "inputs": [
        {
          "internalType": "uint256",
          "name": "_streamId",
          "type": "uint256"
        }
      ],
      "name": "claim",
      "outputs": [],
      "stateMutability": "nonpayable",
      "type": "function"
    },
    {
      "inputs": [
        {
          "internalType": "address",
          "name": "_worker",
          "type": "address"
        },
        {
          "internalType": "uint256",
          "name": "_usdcPerInterval",
          "type": "uint256"
        },
        {
          "internalType": "uint256",
          "name": "_claimInterval",
          "type": "uint256"
        },
        {
          "internalType": "uint256",
          "name": "_totalDeposit",
          "type": "uint256"
        }
      ],
      "name": "createStream",
      "outputs": [
        {
          "internalType": "uint256",
          "name": "streamId",
          "type": "uint256"
        }
      ],
      "stateMutability": "nonpayable",
      "type": "function"
    },
    {
      "inputs": [
        {
          "internalType": "uint256",
          "name": "_streamId",
          "type": "uint256"
        }
      ],
      "name": "endStream",
      "outputs": [],
      "stateMutability": "nonpayable",
      "type": "function"
    },
    {
      "inputs": [
        {
          "internalType": "uint256",
          "name": "_streamId",
          "type": "uint256"
        }
      ],
      "name": "getStream",
      "outputs": [
        {
          "components": [
            {
              "internalType": "address",
              "name": "employer",
              "type": "address"
            },
            {
              "internalType": "address",
              "name": "worker",
              "type": "address"
            },
            {
              "internalType": "uint256",
              "name": "usdcPerInterval",
              "type": "uint256"
            },
            {
              "internalType": "uint256",
              "name": "claimInterval",
              "type": "uint256"
            },
            {
              "internalType": "uint256",
              "name": "totalDeposit",
              "type": "uint256"
            },
            {
              "internalType": "uint256",
              "name": "totalClaimed",
              "type": "uint256"
            },
            {
              "internalType": "uint256",
              "name": "lastClaimTime",
              "type": "uint256"
            },
            {
              "internalType": "uint256",
              "name": "createdAt",
              "type": "uint256"
            },
            {
              "internalType": "bool",
              "name": "active",
              "type": "bool"
            }
          ],
          "internalType": "struct PlasmaPayroll.Stream",
          "name": "",
          "type": "tuple"
        }
      ],
      "stateMutability": "view",
      "type": "function"
    },
    {
      "inputs": [],
      "name": "nextStreamId",
      "outputs": [
        {
          "internalType": "uint256",
          "name": "",
          "type": "uint256"
        }
      ],
      "stateMutability": "view",
      "type": "function"
    },
    {
      "inputs": [
        {
          "internalType": "uint256",
          "name": "",
          "type": "uint256"
        }
      ],
      "name": "streams",
      "outputs": [
        {
          "internalType": "address",
          "name": "employer",
          "type": "address"
        },
        {
          "internalType": "address",
          "name": "worker",
          "type": "address"
        },
        {
          "internalType": "uint256",
          "name": "usdcPerInterval",
          "type": "uint256"
        },
        {
          "internalType": "uint256",
          "name": "claimInterval",
          "type": "uint256"
        },
        {
          "internalType": "uint256",
          "name": "totalDeposit",
          "type": "uint256"
        },
        {
          "internalType": "uint256",
          "name": "totalClaimed",
          "type": "uint256"
        },
        {
          "internalType": "uint256",
          "name": "lastClaimTime",
          "type": "uint256"
        },
        {
          "internalType": "uint256",
          "name": "createdAt",
          "type": "uint256"
        },
        {
          "internalType": "bool",
          "name": "active",
          "type": "bool"
        }
      ],
      "stateMutability": "view",
      "type": "function"
    },
    {
      "inputs": [],
      "name": "usdc",
      "outputs": [
        {
          "internalType": "contract IERC20",
          "name": "",
          "type": "address"
        }
      ],
      "stateMutability": "view",
      "type": "function"
    }
  ],
  "bytecode": "0x60a034607b57601f610aaa38819003918201601f19168301916001600160401b03831184841017607f57808492602094604052833981010312607b57516001600160a01b0381168103607b57608052604051610a16908161009482396080518181816101010152818161056a015281816105df01526107290152f35b5f80fd5b634e487b7160e01b5f52604160045260245ffdfe608060409080825260049182361015610016575f80fd5b60e0915f35831c9081631e99d5691461085e57508063379607f51461060e5780633e413bee146105cb57806350d55afc146104ca57806364d60d911461043a578063894e9a0d1461031c57639755ecd01461006f575f80fd5b34610318576080366003190112610318576001600160a01b0392803584811691908290036103185760249384359160449182359160649384359487156102e95786156102b8578415610283578515610251578851916323b872dd60e01b6020840152338b84015230908301528581830152815260a0810181811067ffffffffffffffff82111761023f578852610125907f000000000000000000000000000000000000000000000000000000000000000061097b565b5f54975f19891461022d575060209888600193896008948684015f5581519461014d866108f8565b3386528e86018c81528387018c815260608801918b835260808901938d85528060a08b01975f895260c08c0199428b528c019a428c526101008d019e8f525f526020600190525f209a5116906bffffffffffffffffffffffff60a01b91828c5416178b5560018b01925116908254161790555160028801555160038701555190850155516005840155516006830155516007820155019051151560ff8019835416911617905584519283528683015283820152837f8d3a4d9a98c71920c13665fb97f1a612978391e661f9a17fa5390f60e7424d5c60603393a451908152f35b634e487b7160e01b5f90815260118352fd5b89604184634e487b7160e01b5f52525ffd5b885162461bcd60e51b81526020818501526011818c0152704d757374206465706f736974205553444360781b81840152fd5b885162461bcd60e51b81526020818501526014818c0152730496e74657276616c206d757374206265203e20360641b81840152fd5b885162461bcd60e51b81526020818501526010818c01526f052617465206d757374206265203e20360841b81840152fd5b885162461bcd60e51b8152602081850152600e818c01526d24b73b30b634b2103bb7b935b2b960911b81840152fd5b5f80fd5b509190346103185760203660031901126103185782610120935191610340836108f8565b5f83525f60208401525f828401525f60608401525f60808401525f60a08401525f60c08401525f818401525f6101008094015283355f526001602052815f2091805192839161038e836108f8565b60018060a01b038083541697888552816001850154169260208601938452600285015481870190815260038601549260608801938452860154936080880194855260058701549560a089019687528b60ff600860068b01549a60c08d019b8c528d60078201549d019c8d520154169b019a15158b5283519c8d52511660208c015251908a01525160608901525160808801525160a08701525160c0860152519084015251151590820152f35b508234610318576020366003190112610318576101209281355f526001602052825f209060018060a01b03938483541694600184015416936002840154906003850154908501549060058601549260068701549460ff600860078a0154990154169881519a8b5260208b01528901526060880152608087015260a086015260c08501528301521515610100820152f35b83823461031857602036600319011261031857813590815f526001602052805f2060018060a01b03815416908133036105955761054b60057faaf3ecb4577772367b3bf3e2b4fb8682f9444cc4ec121a6710f191c485ef6c3c959660088401805461053760ff8216610877565b60ff191690558301549201805490926108d8565b918280610564575b5050549082519182526020820152a2005b61058e917f0000000000000000000000000000000000000000000000000000000000000000610929565b8582610553565b825162461bcd60e51b8152602081870152601060248201526f2737ba103a34329032b6b83637bcb2b960811b6044820152606490fd5b5034610318575f36600319011261031857517f00000000000000000000000000000000000000000000000000000000000000006001600160a01b03168152602090f35b838234610318576020908160031936011261031857823590815f5260018352805f20600881019485549561064460ff8816610877565b6001830180546001600160a01b0392908316903382900361082a57600686019586549560038201549761067789896108b7565b42106107f25761068788426108d8565b89156107df578990049788156107a5576106a560028501548a6108e5565b996005848601549501938454908c6106bd83896108d8565b80911161079d575b508c156107685750927f323b476e3de85384ba6766fa4ddb4422f28bfd874fd0ea4d9b77fde0a6b9f75e9d9e9f9361074d9896936107168e9997948e61070e8c61071c966108b7565b8097556108e5565b906108b7565b9055101561075b575b50507f0000000000000000000000000000000000000000000000000000000000000000610929565b5416958351928352820152a3005b60ff191690558b80610725565b8f606492508e519162461bcd60e51b8352820152600f60248201526e14dd1c99585b4819195c1b195d1959608a1b6044820152fd5b9c505f6106c5565b8a5162461bcd60e51b81528084018e90526014602482015273139bc81a5b9d195c9d985b1cc8195b185c1cd95960621b6044820152606490fd5b601283634e487b7160e01b5f525260245ffd5b895162461bcd60e51b81528083018d90526012602482015271546f6f206561726c7920746f20636c61696d60701b6044820152606490fd5b865162461bcd60e51b81528086018a9052600e60248201526d2737ba103a3432903bb7b935b2b960911b6044820152606490fd5b34610318575f366003190112610318576020905f548152f35b1561087e57565b60405162461bcd60e51b815260206004820152601160248201527053747265616d206e6f742061637469766560781b6044820152606490fd5b919082018092116108c457565b634e487b7160e01b5f52601160045260245ffd5b919082039182116108c457565b818102929181159184041417156108c457565b610120810190811067ffffffffffffffff82111761091557604052565b634e487b7160e01b5f52604160045260245ffd5b60405163a9059cbb60e01b60208201526001600160a01b039092166024830152604480830193909352918152608081019167ffffffffffffffff831182841017610915576109799260405261097b565b565b905f602091828151910182855af1156109d5575f513d6109cc57506001600160a01b0381163b155b6109aa5750565b604051635274afe760e01b81526001600160a01b039091166004820152602490fd5b600114156109a3565b6040513d5f823e3d90fdfea26469706673582212208a8034b7dbfec01b447adc64655e7839f3cef8e1737eaca4620d934a055ed58764736f6c63430008190033",
  "linkReferences": {},
  "deployedLinkReferences": {}
}